:020000040000FA
:100000000C945D000C9485000C9485000C94850084
:100010000C9485000C9485000C9485000C9485004C
:100020000C9485000C9485000C9485000C9485003C
:100030000C9485000C9485000C9485000C9485002C
:100040000C948C020C9485000C9485000C94850013
:100050000C9485000C9485000C9485000C9485000C
:100060000C9485000C94850000000008000201003B
:100070000003040700000000000000000000000072
:10008000250028002B0000000000240027002A0083
:10009000040404040404040402020202020203032E
:1000A0000303030301020408102040800102040836
:1000B0001020010204081020750311241FBECFEF89
:1000C000D8E0DEBFCDBF11E0A0E0B1E0E4E3F7E0AF
:1000D00002C005900D92A433B107D9F721E0A4E343
:1000E000B1E001C01D92A535B207E1F710E0CDE502
:1000F000D0E004C02197FE010E949203CC35D107C5
:10010000C9F70E94D6020C9498030C94000090E06A
:10011000FC01EC55FF4F249180579F4FFC018491C7
:10012000882399F090E0880F991FFC01EA57FF4F50
:10013000A591B491FC01E458FF4F859194918FB73C
:10014000F894EC91E22BEC938FBF0895AF92BF929D
:10015000CF92DF92EF92FF920F931F93CF93DF9393
:100160006C017B018B01040F151FEB015E01AE18C2
:10017000BF08C017D10759F06991D601ED91FC91E4
:100180000190F081E02DC6010995892B79F7C50111
:10019000DF91CF911F910F91FF90EF90DF90CF9063
:1001A000BF90AF90089590E0FC01E859FF4F249173
:1001B000FC01EC55FF4F3491FC01E057FF4FE491F7
:1001C000EE23C9F0222339F0233001F1A8F42130C5
:1001D00019F1223029F1F0E0EE0FFF1FE458FF4F34
:1001E000A591B4918FB7F894EC91611126C0309528
:1001F0003E233C938FBF08952730A9F02830C9F0E3
:10020000243049F7809180008F7D03C08091800069
:100210008F7780938000DFCF84B58F7784BDDBCF6D
:1002200084B58F7DFBCF8091B0008F778093B00035
:10023000D2CF8091B0008F7DF9CF3E2BDACF3FB780
:10024000F8948091390190913A01A0913B01B091CD
:100250003C0126B5A89B05C02F3F19F00196A11DB2
:10026000B11D3FBFBA2FA92F982F8827BC01CD0100
:10027000620F711D811D911D42E0660F771F881F5F
:10028000991F4A95D1F70895089590E080E0089568
:10029000CF93DF93EC0160E08E810E94D30061E098
:1002A0008E810E94D30060E08E810E94D3008BE893
:1002B00091E00197F1F7DF91CF910895CF92DF920E
:1002C000EF92FF920F931F93CF93DF936C017C010A
:1002D00087E0E80EF11CD0E0C0E0062F10E0B80186
:1002E0000C2E02C0759567950A94E2F76170F701CC
:1002F00081917F010E94D3002196C430D10579F706
:10030000C601DF91CF911F910F91FF90EF90DF9089
:10031000CF900C944801CF92DF92EF92FF920F930F
:100320001F93CF93DF93EC01F62E642F8C810E94F4
:10033000D3008D818F3F19F060E00E94D3000F2D14
:1003400010E08F8584FF25C06E0187E0C80ED11CA8
:10035000F12CE12CB8010E2C02C0759567950A941A
:10036000E2F76170F60181916F010E94D300FFEF07
:10037000EF1AFF0A88E0E816F10461F7CE01DF9179
:10038000CF911F910F91FF90EF90DF90CF900C9441
:100390004801B80184E0759567958A95E1F7CE012B
:1003A0000E945E016F2DCE01DF91CF911F910F91C1
:1003B000FF90EF90DF90CF900C945E0140E0682FAB
:1003C0008DE391E00C948B01CF93DF93823029F47D
:1003D00090914C01986090934C0180935001109241
:1003E000510180E48093520180E18093530180E5C4
:1003F00080935401809141010E94870080914201C5
:100400008F3F11F00E948700809143010E94870076
:10041000CDE3D1E09E012D53314080914C0184FD0C
:100420000AC084E090E02196281739073CF48E81B9
:100430000E948700EFCF88E090E0F5CF8BE39DE04E
:100440000197F1F760E0809141010E94D30060E0E4
:10045000809143010E94D300809142018F3F19F0A7
:1004600060E00E94D30080914C0184FD39C063E0BC
:100470008DE391E00E945E01CBE4D6E4CE010197CA
:10048000F1F763E08DE391E00E945E012197F1F7BF
:1004900063E08DE391E00E945E0183E592E00197C5
:1004A000F1F762E08DE391E00E945E0180914C01E2
:1004B00080620E94DE0184E080934D018CE00E9406
:1004C000DE0181E00E94DE018BE39FE10197F1F7FD
:1004D00082E080934E0186E0DF91CF910C94DE01A3
:1004E00080620E94DE018BE496E40197F1F780912F
:1004F0004C0180620E94DE0183E592E00197F1F7F2
:1005000080914C0180620E94DE01D0CF41E00E94C8
:100510008B0181E090E008951F920F920FB60F9229
:1005200011242F933F938F939F93AF93BF93809109
:10053000350190913601A0913701B0913801309189
:10054000340123E0230F2D3758F50196A11DB11D6D
:10055000209334018093350190933601A0933701A5
:10056000B09338018091390190913A01A0913B01FB
:10057000B0913C010196A11DB11D8093390190936A
:100580003A01A0933B01B0933C01BF91AF919F9181
:100590008F913F912F910F900FBE0F901F90189544
:1005A00026E8230F0296A11DB11DD2CF789484B501
:1005B000826084BD84B5816084BD85B5826085BD5F
:1005C00085B5816085BD80916E00816080936E00ED
:1005D00010928100809181008260809381008091DF
:1005E0008100816080938100809180008160809390
:1005F00080008091B10084608093B1008091B00050
:1006000081608093B00080917A00846080937A004A
:1006100080917A00826080937A0080917A00816074
:1006200080937A0080917A00806880937A0010929B
:10063000C10082E00E94E401C0E0D0E041E150E06E
:100640006CE071E08DE391E00E94A600E091500122
:10065000E23008F048C0E150F0E0E35CFE4F8489EE
:1006600080680E94DE0145E150E06EE171E08DE3BB
:1006700091E00E94A6000E941F014B015C018EEEDA
:10068000C82E82E0D82EE12CF12C0E941F0168199F
:1006900079098A099B09683E734081059105A8F391
:1006A00021E0C21AD108E108F10888EE880E83E043
:1006B000981EA11CB11CC114D104E104F10429F756
:1006C000E1E0809150018111E0E0E195F0E0E35C30
:1006D000FE4F848980680E94DE01209709F4AECF26
:1006E0000E940000ABCFE1E0B7CFEDE3F1E0138271
:1006F000128284E091E09183808314828FEF85835E
:1007000081E0868388E0878389E080878AE081872B
:100710008BE082871386148615861686178681E0FD
:100720000C94E401EE0FFF1F0590F491E02D099465
:10073000F894FFCF000000008602A60045014401A6
:1007400020202043495243554954204449474553AA
:1007500054007777772E636972637569746469678B
:080760006573742E636F6D00D8
:107E0000112484B714BE81FFF0D085E080938100F7
:107E100082E08093C00088E18093C10086E0809377
:107E2000C20080E18093C4008EE0C9D0259A86E02C
:107E300020E33CEF91E0309385002093840096BBD3
:107E4000B09BFECF1D9AA8958150A9F7CC24DD24C4
:107E500088248394B5E0AB2EA1E19A2EF3E0BF2EE7
:107E6000A2D0813461F49FD0082FAFD0023811F036
:107E7000013811F484E001C083E08DD089C08234E0
:107E800011F484E103C0853419F485E0A6D080C0E4
:107E9000853579F488D0E82EFF2485D0082F10E0AE
:107EA000102F00270E291F29000F111F8ED06801E7
:107EB0006FC0863521F484E090D080E0DECF843638
:107EC00009F040C070D06FD0082F6DD080E0C81688
:107ED00080E7D80618F4F601B7BEE895C0E0D1E017
:107EE00062D089930C17E1F7F0E0CF16F0E7DF06D8
:107EF00018F0F601B7BEE89568D007B600FCFDCFD4
:107F0000A601A0E0B1E02C9130E011968C91119780
:107F100090E0982F8827822B932B1296FA010C0160
:107F200087BEE89511244E5F5F4FF1E0A038BF0790
:107F300051F7F601A7BEE89507B600FCFDCF97BE46
:107F4000E89526C08437B1F42ED02DD0F82E2BD052
:107F50003CD0F601EF2C8F010F5F1F4F84911BD097
:107F6000EA94F801C1F70894C11CD11CFA94CF0C13
:107F7000D11C0EC0853739F428D08EE10CD085E9AC
:107F80000AD08FE07ACF813511F488E018D01DD067
:107F900080E101D065CF982F8091C00085FFFCCF94
:107FA0009093C60008958091C00087FFFCCF809118
:107FB000C00084FD01C0A8958091C6000895E0E648
:107FC000F0E098E1908380830895EDDF803219F02E
:107FD00088E0F5DFFFCF84E1DECF1F93182FE3DFCA
:107FE0001150E9F7F2DF1F91089580E0E8DFEE27F6
:047FF000FF270994CA
:027FFE00040479
:00000001FF
