:020000040000FA
:100000000C9435000C945D000C945D000C945D0024
:100010000C945D000C945D000C945D000C945D00EC
:100020000C945D000C945D000C945D000C945D00DC
:100030000C945D000C945D000C945D000C945D00CC
:100040000C94E7030C945D000C94B5030C948F039F
:100050000C945D000C945D000C945D000C945D00AC
:100060000C945D000C945D00E10511241FBECFEFE0
:10007000D8E0DEBFCDBF13E0A0E0B1E0E2E2F1E105
:1000800002C005900D92A63DB107D9F724E0A6ED78
:10009000B3E001C01D92AC37B207E1F710E0C5E351
:1000A000D0E004C02197FE010E948908C433D10723
:1000B000C9F70E9431040C948F080C940000AF9291
:1000C000BF92CF92DF92EF92FF920F931F93CF9345
:1000D000DF936C017B018B01040F151FEB015E01A7
:1000E000AE18BF08C017D10759F06991D601ED913C
:1000F000FC910190F081E02DC6010995892B79F7DB
:10010000C501DF91CF911F910F91FF90EF90DF908C
:10011000CF90BF90AF900895FC01538D448D252F53
:1001200030E0842F90E0821B930B541710F0CF9691
:10013000089501970895FC01918D828D981761F0C3
:10014000A28DAE0FBF2FB11D5D968C91928D9F5FDA
:100150009F73928F90E008958FEF9FEF0895FC01B9
:10016000918D828D981731F0828DE80FF11D858D6C
:1001700090E008958FEF9FEF0895FC01918D228DFF
:10018000892F90E0805C9F4F821B91098F73992784
:1001900008958FED93E00E94BD0021E0892B09F4C2
:1001A00020E0822F089580E090E0892B29F00E94C2
:1001B000C90081110C9400000895FC01A48DA80FC2
:1001C000B92FB11DA35ABF4F2C91848D90E0019699
:1001D0008F739927848FA689B7892C93A089B189B9
:1001E0008C91837080648C93938D848D981306C05A
:1001F0000288F389E02D80818F7D80830895EF92BE
:10020000FF920F931F93CF93DF93EC0181E0888FD0
:100210009B8D8C8D98131AC0E889F989808185FFA0
:1002200015C09FB7F894EE89FF896083E889F98942
:1002300080818370806480839FBF81E090E0DF9144
:10024000CF911F910F91FF90EF900895F62E0B8D97
:1002500010E00F5F1F4F0F731127E02E8C8D8E1152
:100260000CC00FB607FCFACFE889F989808185FFB9
:10027000F5CFCE010E94DD00F1CFEB8DEC0FFD2F0D
:10028000F11DE35AFF4FF0829FB7F8940B8FEA8974
:10029000FB8980818062CFCFCF93DF93EC01888D83
:1002A0008823B9F0AA89BB89E889F9898C9185FDF1
:1002B00003C0808186FD0DC00FB607FCF7CF8C917F
:1002C00085FFF2CF808185FFEDCFCE010E94DD005A
:1002D000E9CFDF91CF9108953FB7F8948091DB0388
:1002E0009091DC03A091DD03B091DE0326B5A89BBD
:1002F00005C02F3F19F00196A11DB11D3FBFBA2FB8
:10030000A92F982F8827BC01CD01620F711D811D77
:10031000911D42E0660F771F881F991F4A95D1F7FC
:1003200008958F929F92AF92BF92CF92DF92EF92F9
:10033000FF924B015C010E946C016B017C010E94E9
:100340006C016C197D098E099F09683E7340810517
:100350009105A8F321E0821A9108A108B10888EE5E
:10036000C80E83E0D81EE11CF11C81149104A10485
:10037000B10429F7FF90EF90DF90CF90BF90AF903E
:100380009F908F900895FC0101900020E9F731972C
:10039000AF01481B590BBC018FED93E00C945F003B
:1003A0008F929F92AF92BF920F931F93CF93DF9341
:1003B000CDB7DEB7A1970FB6F894DEBF0FBECDBFA5
:1003C00019A2423008F44AE08E010F5D1F4F842EBF
:1003D000912CB12CA12CA50194010E946708E62F55
:1003E000B901CA01EA30F4F4E05DD801EE938D0161
:1003F000232B242B252B79F790E080E0109719F020
:10040000CD010E94C301A1960FB6F894DEBF0FBEC6
:10041000CDBFDF91CF911F910F91BF90AF909F9073
:100420008F900895E95CE1CFCF93DF930E94C301E1
:10043000EC018AE693E00E94C3018C0F9D1FDF91BF
:10044000CF9108954F925F926F927F928F929F9279
:10045000AF92BF92CF92DF92EF92FF920F931F93D2
:10046000CF936B017C01742EAC019B010E9462084A
:10047000882399F08DE693E0CF911F910F91FF9023
:10048000EF90DF90CF90BF90AF909F908F907F9034
:100490006F905F904F900C94C30146015701E89410
:1004A000B7F82FEF3FEF4FE75FE7C501B4010E94B8
:1004B000620881110DC02FEF3FEF4FE75FE7C501E5
:1004C000B4010E94910618161CF481E793E0D4CF82
:1004D0002FEF3FEF4FE75FE4C701B6010E94F0073F
:1004E00018161CF485E793E0C7CF2FEF3FEF4FE7D7
:1004F0005FECC701B6010E94910687FDF3CF20E0B3
:1005000030E0A901C701B6010E94910610E000E0A9
:1005100087FF0AC06DE28FED93E00E94FF008C011F
:10052000F7FAF094F7F8F094C0E060E070E080E053
:100530009FE37C1641F020E030E040E251E40E946D
:100540009606CF5FF6CFA70196010E9425062B01E4
:100550003C010E940F074B015C014AE00E94D00160
:100560007C01E00EF11ECC23C1F1C501B4010E9453
:100570003E079B01AC01C301B2010E9424064B015E
:100580005C016EE28FED93E00E94FF00E80EF91E21
:10059000C15018F120E030E040E251E4C501B4015F
:1005A0000E94F5072B013C010E940F074B01B12C63
:1005B000A12C4AE0C501B4010E94D001E80EF91E49
:1005C000C501B4010E943E079B01AC01C301B20109
:1005D0000E9424064B015C01DBCFC701CF911F9124
:1005E0000F91FF90EF90DF90CF90BF90AF909F90D2
:1005F0008F907F906F905F904F900895CF93DF938F
:1006000042E00E942202EC018AE693E00E94C301CC
:100610008C0F9D1FDF91CF910895CF92DF92EF92C3
:10062000FF92CF93DF9397FF1BC06B017C016DE2BC
:100630008FED93E00E94FF00EC0166277727CB0146
:100640006C197D098E099F094AE00E94D0018C0F28
:100650009D1FDF91CF91FF90EF90DF90CF90089595
:100660004AE0DF91CF91FF90EF90DF90CF900C9414
:10067000D001CF92DF92EF92FF920F931F93CF930F
:10068000DF93EB017B0124E1E20EF11C8B016C0195
:10069000C61AD70AC601800F911F0E940E06F801E4
:1006A00081938F01EE15FF05A9F7CE01DF91CF9160
:1006B0001F910F91FF90EF90DF90CF9008959F9240
:1006C000AF92BF92CF92DF92EF92FF920F931F9360
:1006D000CF93DF935C017B018B01D0E0C0E0F80198
:1006E00091908F016501CC0EDD1EC6010E940E06A1
:1006F000981621F0692DC6010E9416062196C43075
:10070000D10569F7C701DF91CF911F910F91FF903C
:10071000EF90DF90CF90BF90AF909F9008951F9281
:100720000F920FB60F9211242F933F934F935F9325
:100730006F937F938F939F93AF93BF93EF93FF93A9
:100740008FED93E00E94DD00FF91EF91BF91AF919B
:100750009F918F917F916F915F914F913F912F91D9
:100760000F900FBE0F901F9018951F920F920FB60B
:100770000F9211242F938F939F93EF93FF93E09108
:10078000EF03F091F0038081E091F503F091F6031F
:1007900082FD1BC090818091F8038F5F8F73209141
:1007A000F903821741F0E091F803F0E0E152FC4FC9
:1007B000958F8093F803FF91EF919F918F912F91E7
:1007C0000F900FBE0F901F9018958081F4CF1F924D
:1007D0000F920FB60F9211242F933F938F939F93F5
:1007E000AF93BF938091D7039091D803A091D90381
:1007F000B091DA033091D60323E0230F2D3758F55B
:100800000196A11DB11D2093D6038093D703909329
:10081000D803A093D903B093DA038091DB039091BE
:10082000DC03A091DD03B091DE030196A11DB11D93
:100830008093DB039093DC03A093DD03B093DE038E
:10084000BF91AF919F918F913F912F910F900FBECC
:100850000F901F90189526E8230F0296A11DB11D39
:10086000D2CFCF93DF93CDB7DEB768970FB6F894AA
:10087000DEBF0FBECDBF789484B5826084BD84B5E1
:10088000816084BD85B5826085BD85B5816085BD8B
:1008900080916E00816080936E0010928100809143
:1008A00081008260809381008091810081608093CB
:1008B0008100809180008160809380008091B100F0
:1008C00084608093B1008091B00081608093B0001B
:1008D00080917A00846080937A0080917A008260AF
:1008E00080937A0080917A00816080937A00809171
:1008F0007A00806880937A001092C100E091EF0343
:10090000F091F00382E08083E091EB03F091EC033F
:100910001082E091ED03F091EE038FEC8083109252
:10092000F703E091F303F091F40386E08083E09114
:10093000F103F091F203808180618083E091F10303
:10094000F091F203808188608083E091F103F0915F
:10095000F203808180688083E091F103F091F203DB
:1009600080818F7D808389E793E00E94140202E1F9
:1009700011E032EF832E32E0932E4AE0342EF8015C
:10098000C480D580E680F780C701B6010E940807C1
:100990002B01CD8ADE8AEF8AF88EF8018085918559
:1009A000A285B38589839A83AB83BC8334972081E6
:1009B000318142815381C701B6010E9424060E9401
:1009C00008077B016A30710519F428E0E22EF12C4A
:1009D000B7010F2C000C880B990B0E940D038AE6BF
:1009E00093E00E94C301349C6001359CD00C11241B
:1009F000BE016B5E7F4FC6010E945F038CE693E0F1
:100A00000E941402BE016F5F7F4FC60104960E94D0
:100A10005F031C141D040CF040C026010D2C000CBB
:100A200066087708B12CA12CAE14BF04B4F582E996
:100A300093E00E94C301C301B2010E940D038DE93E
:100A400093E00E94C3016D897E898F89988D42E071
:100A50000E942202BE016B5E7F4FC6010E945F03AF
:100A600085EA93E00E94C30169817A818B819C8130
:100A70000E94FE02BE016F5F7F4FC60104960E9476
:100A80005F038FEFA81AB80AEAE04E0E511C611CF2
:100A9000711CFAE0CF0ED11CC7CF085F1F4F801624
:100AA000910609F06CCF68EE73E080E090E00E9460
:100AB00091018CEA93E00E9414028EE5882E912C1D
:100AC000A12CB12C94E6C92ED12CE12CF12CBE0125
:100AD0006F5F7F4FC6010E94390349805A806B8047
:100AE0007C808BEB93E00E94C301C701B6010E949A
:100AF0000D0389EC93E00E94C301C301B2010E947F
:100B0000FE02BE016F5F7F4FC4010E94390349801E
:100B10005A806B807C808EEB93E00E94C301C501FC
:100B2000B4010E940D0380ED93E00E94C30142E0F6
:100B3000C301B2010E9422028AE0C80ED11CE11C4E
:100B4000F11CEAE08E0E911CA11CB11CF2ECCF1638
:100B5000FBE0DF06E104F10409F0B9CFBE016F5FED
:100B60007F4F82E194E00E943903C980DA80EB80F4
:100B7000FC808EEB93E00E94C30162E174E080E0B0
:100B800090E00E940D038AE693E00E94C30180ED8D
:100B900093E00E94C301C701B6010E94FE0200E07B
:100BA00010E068E873E180E090E00E949101011597
:100BB0001105B9F30E94C900882399F30E9400002F
:100BC000F0CFEFEDF3E01382128288EE93E0A0E025
:100BD000B0E084839583A683B78384E091E091831A
:100BE000808385EC90E09587848784EC90E09787FC
:100BF000868780EC90E0918B808B81EC90E0938BEA
:100C0000828B82EC90E0958B848B86EC90E0978BC6
:100C1000868B118E128E138E148E0895F999FECF45
:100C200092BD81BDF89A992780B50895262FF9992C
:100C3000FECF1FBA92BD81BD20BD0FB6F894FA9ABF
:100C4000F99A0FBE019608955058BB27AA270E9413
:100C50003C060C94B6070E94A80738F00E94AF0724
:100C600020F039F49F3F19F426F40C94A5070EF4F4
:100C7000E095E7FB0C949F07E92F0E94C70758F304
:100C8000BA17620773078407950720F079F4A6F571
:100C90000C94E9070EF4E0950B2EBA2FA02D0B0152
:100CA000B90190010C01CA01A0011124FF27591BB1
:100CB00099F0593F50F4503E68F11A16F040A22FB7
:100CC000232F342F4427585FF3CF46953795279528
:100CD000A795F0405395C9F77EF41F16BA0B620B27
:100CE000730B840BBAF09150A1F0FF0FBB1F661F6E
:100CF000771F881FC2F70EC0BA0F621F731F841FB1
:100D000048F4879577956795B795F7959E3F08F0D6
:100D1000B0CF9395880F08F09927EE0F9795879598
:100D200008950E947B0708F481E008950E94AA06B6
:100D30000C94B6070E94AF0758F00E94A80740F035
:100D400029F45F3F29F00C949F0751110C94EA0796
:100D50000C94A5070E94C70768F39923B1F35523A4
:100D600091F3951B550BBB27AA27621773078407BE
:100D700038F09F5F5F4F220F331F441FAA1FA9F354
:100D800035D00E2E3AF0E0E832D091505040E69542
:100D9000001CCAF72BD0FE2F29D0660F771F881FA3
:100DA000BB1F261737074807AB07B0E809F0BB0B96
:100DB000802DBF01FF2793585F4F3AF09E3F5105AA
:100DC00078F00C949F070C94EA075F3FE4F3983E99
:100DD000D4F3869577956795B795F7959F5FC9F793
:100DE000880F911D9695879597F90895E1E0660F14
:100DF000771F881FBB1F621773078407BA0720F08D
:100E0000621B730B840BBA0BEE1F88F7E0950895F5
:100E10000E940F076894B1110C94EA0708950E948C
:100E2000CF0788F09F5798F0B92F9927B751B0F0A6
:100E3000E1F0660F771F881F991F1AF0BA95C9F75E
:100E400014C0B13091F00E94E907B1E008950C940C
:100E5000E907672F782F8827B85F39F0B93FCCF3BF
:100E6000869577956795B395D9F73EF490958095DB
:100E7000709561957F4F8F4F9F4F0895E89409C0FB
:100E800097FB3EF490958095709561957F4F8F4FBD
:100E90009F4F9923A9F0F92F96E9BB279395F695D3
:100EA000879577956795B795F111F8CFFAF4BB0F51
:100EB00011F460FF1BC06F5F7F4F8F4F9F4F16C0B5
:100EC000882311F096E911C0772321F09EE8872F3F
:100ED000762F05C0662371F096E8862F70E060E0FB
:100EE0002AF09A95660F771F881FDAF7880F969574
:100EF000879597F90895990F0008550FAA0BE0E818
:100F0000FEEF16161706E807F907C0F012161306CB
:100F1000E407F50798F0621B730B840B950B39F40B
:100F20000A2661F0232B242B252B21F408950A2671
:100F300009F4A140A6958FEF811D811D089597F9B1
:100F40009F6780E870E060E008959FEF80EC08956F
:100F500000240A9416161706180609060895002498
:100F60000A9412161306140605060895092E039412
:100F7000000C11F4882352F0BB0F40F4BF2B11F486
:100F800060FF04C06F5F7F4F8F4F9F4F089557FDE5
:100F90009058440F551F59F05F3F71F04795880FE7
:100FA00097FB991F61F09F3F79F08795089512167E
:100FB00013061406551FF2CF4695F1DF08C016162A
:100FC00017061806991FF1CF8695710561050894DB
:100FD0000895E894BB2766277727CB0197F90895F2
:100FE0000E947B0708F48FEF08950E9408080C9474
:100FF000B6070E94A80738F00E94AF0720F095239B
:1010000011F00C949F070C94A50711240C94EA0787
:101010000E94C70770F3959FC1F3950F50E0551FCD
:10102000629FF001729FBB27F00DB11D639FAA273D
:10103000F00DB11DAA1F649F6627B00DA11D661F8C
:10104000829F2227B00DA11D621F739FB00DA11DAD
:10105000621F839FA00D611D221F749F3327A00D67
:10106000611D231F849F600D211D822F762F6A2F03
:1010700011249F5750409AF0F1F088234AF0EE0F68
:10108000FF1FBB1F661F771F881F91505040A9F795
:101090009E3F510580F00C949F070C94EA075F3F38
:1010A000E4F3983ED4F3869577956795B795F795D1
:1010B000E7959F5FC1F7FE2B880F911D9695879549
:1010C00097F908950E947B07880B990B0895A1E278
:1010D0001A2EAA1BBB1BFD010DC0AA1FBB1FEE1FB2
:1010E000FF1FA217B307E407F50720F0A21BB30BFD
:1010F000E40BF50B661F771F881F991F1A9469F779
:1011000060957095809590959B01AC01BD01CF01D4
:101110000895EE0FFF1F0590F491E02D0994F894C7
:10112000FFCF00000000FF005F008C004C01BD00FD
:101130009B00AF00000048C36666264100005CC308
:10114000713D944100003EC3713DB641000034C37F
:101150006666D84100002AC3713DFA41000020C3F1
:1011600085EB0D42000016C39A991E4200000CC385
:1011700033332F42000002C352B83F420000F0C296
:1011800000A0A2450000DCC21F8560420000C8C26A
:10119000CDCC70420000B4C2008080420000A0C2EA
:1011A0005C8F884200008CC27B949042000070C229
:1011B0005C8F9842000048C20080A042000020C21C
:1011C000856BA8420000F0C10A57B0420000A0C1E0
:1011D0008F42B842000020C1D723C0420000000067
:1011E0000000C84200002041CDCCCF420000A04109
:1011F0007B94D7420000F0410A57DF4200002042B2
:101200007B14E74200004842CDCCEE420000704221
:10121000E17AF64200008C42D723FE420000A04251
:10122000D7E302430000B44233B306430000C84290
:1012300000800A430000DC42AE470E430000F0424B
:101240005C0F124300000243ECD1154300000C4335
:10125000EC91194300001643EC511D43000020435C
:101260003D0A214300002A438FC224430000344337
:101270005278284300003E43F6282C4300004843A0
:101280000AD72F43000052438F82334300005C4350
:10129000852B374300006643ECD13A43000070438E
:1012A000C3753E4300007A437B14424300008243EF
:1012B00033B3454300008743CD4C494300008C4382
:1012C00048E14C4300009143C375504300009643EE
:1012D000AE07544300009B437B9457430000A04358
:1012E00048215B430000A543F6A85E430000AA43E3
:1012F000142E62430000AF43A4B065430000B44322
:10130000A43069430000B94385AB6C430000000082
:1013100000000000000000000000000000000000CD
:1013200000000000000000000000000000000000BD
:1013300000000000000000000000000000000000AD
:10134000000000000000000000000000000000009D
:10135000000000000000000000000000000000008D
:10136000000000000000000000000000000000007D
:10137000000000000000000000000000000000006D
:101380000000000000000000000000000D0A006ED8
:10139000616E00696E66006F7666005772697474DC
:1013A000656E20666C6F617420646174612074796D
:1013B0007065210041444452455353203A20002C8B
:1013C000202078203A20002C202059203A00526515
:1013D0006164696E67204D656D6F7279002C202005
:1013E00041646472657373203A20002C20205820D9
:0813F0003A002C2059203A00BC
:107E0000112484B714BE81FFF0D085E080938100F7
:107E100082E08093C00088E18093C10086E0809377
:107E2000C20080E18093C4008EE0C9D0259A86E02C
:107E300020E33CEF91E0309385002093840096BBD3
:107E4000B09BFECF1D9AA8958150A9F7CC24DD24C4
:107E500088248394B5E0AB2EA1E19A2EF3E0BF2EE7
:107E6000A2D0813461F49FD0082FAFD0023811F036
:107E7000013811F484E001C083E08DD089C08234E0
:107E800011F484E103C0853419F485E0A6D080C0E4
:107E9000853579F488D0E82EFF2485D0082F10E0AE
:107EA000102F00270E291F29000F111F8ED06801E7
:107EB0006FC0863521F484E090D080E0DECF843638
:107EC00009F040C070D06FD0082F6DD080E0C81688
:107ED00080E7D80618F4F601B7BEE895C0E0D1E017
:107EE00062D089930C17E1F7F0E0CF16F0E7DF06D8
:107EF00018F0F601B7BEE89568D007B600FCFDCFD4
:107F0000A601A0E0B1E02C9130E011968C91119780
:107F100090E0982F8827822B932B1296FA010C0160
:107F200087BEE89511244E5F5F4FF1E0A038BF0790
:107F300051F7F601A7BEE89507B600FCFDCF97BE46
:107F4000E89526C08437B1F42ED02DD0F82E2BD052
:107F50003CD0F601EF2C8F010F5F1F4F84911BD097
:107F6000EA94F801C1F70894C11CD11CFA94CF0C13
:107F7000D11C0EC0853739F428D08EE10CD085E9AC
:107F80000AD08FE07ACF813511F488E018D01DD067
:107F900080E101D065CF982F8091C00085FFFCCF94
:107FA0009093C60008958091C00087FFFCCF809118
:107FB000C00084FD01C0A8958091C6000895E0E648
:107FC000F0E098E1908380830895EDDF803219F02E
:107FD00088E0F5DFFFCF84E1DECF1F93182FE3DFCA
:107FE0001150E9F7F2DF1F91089580E0E8DFEE27F6
:047FF000FF270994CA
:027FFE00040479
:00000001FF
