:020000040000FA
:100000000C9462000C948A000C948A000C948A0070
:100010000C948A000C948A000C948A000C948A0038
:100020000C948A000C948A000C948A000C948A0028
:100030000C948A000C948A000C948A000C948A0018
:100040000C943A080C948A000C9408080C94E2076B
:100050000C948A000C948A000C948A000C948A00F8
:100060000C9484080C948A0000000008000201002F
:100070000003040700000000000000000000000072
:10008000240027002A000000000023002600290089
:10009000010204081020408001020408102001021F
:1000A0000408102000000000250028002B00040494
:1000B0000404040404040202020202020303030310
:1000C00003039F0911241FBECFEFD8E0DEBFCDBFD1
:1000D00011E0A0E0B1E0E8EEFDE102C005900D9274
:1000E000A037B107D9F722E0A0E7B1E001C01D9227
:1000F000A13CB207E1F710E0C2E6D0E004C02197CE
:10010000FE010E94C00DC136D107C9F70E94430A03
:100110000C94F20E0C9400008230910538F0880F98
:10012000991F880F991F05970197F1F70895AF92CE
:10013000BF92CF92DF92EF92FF920F931F93CF93D4
:10014000DF936C017B018B01040F151FEB015E0136
:10015000AE18BF08C017D10759F06991D601ED91CB
:10016000FC910190F081E02DC6010995892B79F76A
:10017000C501DF91CF911F910F91FF90EF90DF901C
:10018000CF90BF90AF900895FC01538D448D252FE3
:1001900030E0842F90E0821B930B541710F0CF9621
:1001A000089501970895FC01918D828D981761F053
:1001B000A28DAE0FBF2FB11D5D968C91928D9F5F6A
:1001C0009F73928F90E008958FEF9FEF0895FC0149
:1001D000918D828D981731F0828DE80FF11D858DFC
:1001E00090E008958FEF9FEF0895FC01918D228D8F
:1001F000892F90E0805C9F4F821B91098F73992714
:1002000008958BEE91E00E94F50021E0892B09F41E
:1002100020E0822F089580E090E0892B29F00E9451
:10022000010181110C9400000895FC01A48DA80F18
:10023000B92FB11DA35ABF4F2C91848D90E0019628
:100240008F739927848FA689B7892C93A089B18948
:100250008C91837080648C93938D848D981306C0E9
:100260000288F389E02D80818F7D80830895EF924D
:10027000FF920F931F93CF93DF93EC0181E0888F60
:100280009B8D8C8D98131AC0E889F989808185FF30
:1002900015C09FB7F894EE89FF896083E889F989D2
:1002A00080818370806480839FBF81E090E0DF91D4
:1002B000CF911F910F91FF90EF900895F62E0B8D27
:1002C00010E00F5F1F4F0F731127E02E8C8D8E11E2
:1002D0000CC00FB607FCFACFE889F989808185FF49
:1002E000F5CFCE010E941501F1CFEB8DEC0FFD2F64
:1002F000F11DE35AFF4FF0829FB7F8940B8FEA8904
:10030000FB8980818062CFCFCF93DF93EC01888D12
:100310008823B9F0AA89BB89E889F9898C9185FD80
:1003200003C0808186FD0DC00FB607FCF7CF8C910E
:1003300085FFF2CF808185FFEDCFCE010E941501B0
:10034000E9CFDF91CF91089590E0FC01E859FF4F8C
:100350002491FC01E057FF4F3491FC01E255FF4F1F
:10036000E491EE23C9F0222339F0233001F1A8F4FF
:10037000213019F1223029F1F0E0EE0FFF1FEC558A
:10038000FF4FA591B4918FB7F894EC91611126C0FD
:1003900030953E233C938FBF08952730A9F0283035
:1003A000C9F0243049F7809180008F7D03C080918F
:1003B00080008F7780938000DFCF84B58F7784BDF6
:1003C000DBCF84B58F7DFBCF8091B0008F7780939A
:1003D000B000D2CF8091B0008F7DF9CF3E2BDACF25
:1003E000CF93DF9390E0FC01E057FF4F24918255BB
:1003F0009F4FFC0184918823D1F090E0880F991FD2
:10040000FC01E458FF4FA591B491FC01EC55FF4F5E
:10041000C591D49161110EC09FB7F8948C91E22FD1
:10042000E0958E238C932881E223E8839FBFDF91A0
:10043000CF9108958FB7F894EC91E22BEC938FBF96
:10044000F6CFCF9361E08091AB020E94F00161E0B2
:100450008091AB020E94A4018091A0029091A10220
:10046000892B09F438C0CFB7F8948091EA01811143
:1004700027C0E8EBF0E08491EAE9F0E09491E82FFE
:10048000F0E0EE0FFF1FE458FF4FA591B491EC91FF
:10049000E92321F461E08AE00E94A40161E08AE09E
:1004A0000E94F0018CB580618CBD8CB580648CBDE0
:1004B00061E08DE00E94F00161E08BE00E94F001BC
:1004C0008091EA018F5F8093EA01CFBF81E0809342
:1004D000BB02CF91089561E08091AC020E94F001CF
:1004E0008091AA028B7F60E009F061E08091AC020C
:1004F0000E94A4018091AD028F3F41F061E00E9413
:10050000F00161E08091AD020E94A4018091AE02F1
:100510008F3FE1F260E00E94F001D8CF3FB7F8943E
:100520008091E6019091E701A091E801B091E90185
:1005300026B5A89B05C02F3F19F00196A11DB11D3E
:100540003FBFBA2FA92F982F8827BC01CD01620F7A
:10055000711D811D911D42E0660F771F881F991F35
:100560004A95D1F708958F929F92AF92BF92CF9202
:10057000DF92EF92FF924B015C010E948E026B01B1
:100580007C010E948E026C197D098E099F09683ECC
:10059000734081059105A8F321E0821A9108A10812
:1005A000B10888EEC80E83E0D81EE11CF11C81144E
:1005B0009104A104B10429F7FF90EF90DF90CF9050
:1005C000BF90AF909F908F900895089520919701CC
:1005D000260F3327331F21323105ECF42091BB0164
:1005E000FC0190E080E0243069F082E00895A09161
:1005F00097012191AC0149585E4FA40FB52FB11D51
:100600002C930196861798F380919701680F609359
:10061000970180E0089581E0089508958FEF9FEF9E
:1006200008958FEF9FEF08958091700190E091956C
:10063000819591090895CF93DF93CB01EA01642F4F
:100640000E94E602CE01DF91CF910895CF93DF9310
:100650001F92CDB7DEB7698361E0CE0101960E949B
:10066000E60281E090E00F90DF91CF91089590E055
:1006700080E00895CF93DF93EC0160E08E810E94CB
:10068000A40161E08E810E94A40160E08E810E943D
:10069000A4018BE891E00197F1F7DF91CF910895E4
:1006A000CF92DF92EF92FF920F931F93CF93DF933E
:1006B0006C017C0187E0E80EF11CD0E0C0E0062F61
:1006C00010E0B8010C2E02C0759567950A94E2F708
:1006D0006170F70181917F010E94A4012196C430CD
:1006E000D10579F7C601DF91CF911F910F91FF904E
:1006F000EF90DF90CF900C943A03CF92DF92EF927D
:10070000FF920F931F93CF93DF93EC01F62E642F8C
:100710008C810E94A4018D818F3F19F060E00E94BE
:10072000A4010F2D10E08F8584FF25C06E0187E0A6
:10073000C80ED11CF12CE12CB8010E2C02C075950D
:1007400067950A94E2F76170F60181916F010E944A
:10075000A401FFEFEF1AFF0A88E0E816F10461F741
:10076000CE01DF91CF911F910F91FF90EF90DF901D
:10077000CF900C943A03B80184E0759567958A95FB
:10078000E1F7CE010E9450036F2DCE01DF91CF9192
:100790001F910F91FF90EF90DF90CF900C9450033A
:1007A00040E0682F88E892E00C947D0381E00E948D
:1007B000D0038BE39FE10197F1F70895CF93DF9387
:1007C000823029F4909197029860909397028093D9
:1007D0009B0210929C0280E480939D0280E18093B2
:1007E0009E0280E580939F0261E080918C020E94CE
:1007F000F00180918D028F3F19F061E00E94F001BD
:1008000061E080918E020E94F001C8E8D2E09E0172
:10081000285832408091970284FD0BC084E090E01C
:1008200021962817390744F461E08E810E94F00177
:10083000EECF88E090E0F4CF8BE39DE00197F1F7F5
:1008400060E080918C020E94A40160E080918E02A1
:100850000E94A40180918D028F3F19F060E00E94F8
:10086000A4018091970284FD34C063E088E892E09F
:100870000E945003CBE4D6E4CE010197F1F763E088
:1008800088E892E00E9450032197F1F763E088E83E
:1008900092E00E94500383E592E00197F1F762E055
:1008A00088E892E00E9450038091970280620E9443
:1008B000D00384E0809398028CE00E94D0030E94D1
:1008C000D60382E08093990286E0DF91CF910C9469
:1008D000D00380620E94D0038BE496E40197F1F785
:1008E0008091970280620E94D00383E592E0019795
:1008F000F1F78091970280620E94D003D5CF41E04A
:100900000E947D0381E090E008956F927F928F9224
:100910009F92AF92BF92CF92DF92EF92FF920F938E
:100920001F93CF93DF9300D000D0CDB7DEB7809177
:10093000BC02811104C00E9421028093BC0244E0E9
:1009400050E06FEF70E0CE0101960E94EB0E8091B7
:10095000A0029091A102892B41F0E091A202F091B6
:10096000A302908181819CBD8DBD60E08091AB022E
:100970000E94A4012091A0023091A1028981232B21
:1009800009F441C08EBDFE0131969E012C5F3F4FA0
:100990002E173F0741F091810DB407FEFDCF8EB5B4
:1009A0009EBD8193F5CF0DB407FEFDCF8EB58C8330
:1009B00061E08091AB020E94A40169817A8176276F
:1009C0006727762790E080E0982F872F762F66277D
:1009D0002B81622B982F872F762F66272C81622BF5
:1009E0000F900F900F900F90DF91CF911F910F916B
:1009F000FF90EF90DF90CF90BF90AF909F908F903F
:100A00007F906F9008952091A8023091A9028824C8
:100A10008394232B11F040E8842E8821662463946C
:100A20008111612C2091A4023091A5024091A6026F
:100A30005091A70260E271EA87E090E00E949E0D6B
:100A4000E22E8E010F5F1F4F5E0185E0A80EB11CE4
:100A5000C22ED12CF8017080F82C912CEE2019F0C8
:100A6000C6010E948C008091AA02877F09F05CC0B9
:100A70008091AD028F3FA9F09F2D972181E009F46D
:100A800080E0861571F0E091AF02F091B0028091A4
:100A9000B702992309F442C09081892B8083662490
:100AA0006394E091B102F091B20280819091B90219
:100AB000892B8083EE2019F0C6010E948C00809162
:100AC000AE028F3F51F0E091B302F091B402808109
:100AD0009091B802892309F09F28E091B102F0912A
:100AE000B20290818091B9028095892380838091A0
:100AF000AE028F3F11F0F80190828091A802909190
:100B0000A902892B09F04DC0FF0CF110A7CF0F5F90
:100B10001F4FA016B10609F09DCF4ACF9081809556
:100B200089238083612CBDCFE091B102F091B202A4
:100B300080819091B902892B8083EE2019F0C60143
:100B40000E948C008091AD028F3F61F0E091AF0276
:100B5000F091B0028091B7029F2D9721F1F0908122
:100B6000892B8083E091B102F091B2029081809153
:100B7000B9028095892380838091AE028F3F09F46A
:100B8000B6CFE091B302F091B40280819091B802A7
:100B9000892309F4ACCF9F28AACF9081809589231F
:100BA000E0CFF694B2CF0F931F930E9485048B0180
:100BB0009C010770112722273327012B022B032BBF
:100BC000F9F497FF15C032E196958795779567956B
:100BD0003A95D1F7706C8F6F9F6F0E94770C20E071
:100BE00030E040E85EE30E942C0D1F910F910895C4
:100BF00022E195958795779567952A95D1F7EDCF61
:100C000060E070E080EC9FE7F0CF0E94850424E074
:100C100096958795779567952A95D1F773FD0CC0C2
:100C20007770882799270E94750C20E030E040E813
:100C30005DE30E942C0D0895786F072E000C880B41
:100C4000990B0E94770CF1CFFB0101900020E9F78E
:100C50003197AF01461B570BDC01ED91FC910280EF
:100C6000F381E02D09948F929F92AF92BF92EF9201
:100C7000FF920F931F93CF93DF93CDB7DEB7A1976A
:100C80000FB6F894DEBF0FBECDBF7C01FA01CB01D9
:100C900019A2223008F42AE08E010F5D1F4F822E28
:100CA000912CB12CA12CBF01A50194010E949E0D95
:100CB000F901CA016A300CF5605DD8016E938D01AF
:100CC000232B242B252B79F790E080E0109721F03F
:100CD000BD01C7010E942406A1960FB6F894DEBF9D
:100CE0000FBECDBFDF91CF911F910F91FF90EF907D
:100CF000BF90AF909F908F900895695CDECF2F9248
:100D00003F924F925F926F927F928F929F92AF929B
:100D1000BF92CF92DF92EF92FF921F93CF93DF9318
:100D2000EC016A017B01722EAB019601CB01B60189
:100D30000E94990D64E271E0811126C046015701BD
:100D4000E894B7F82FEF3FEF4FE75FE7C501B40135
:100D50000E94990D81110CC02FEF3FEF4FE75FE725
:100D6000C501B4010E94CF0B68E271E0181664F06F
:100D70002FEF3FEF4FE75FE4C701B6010E94270D59
:100D80001816B4F46CE271E0CE01DF91CF911F919F
:100D9000FF90EF90DF90CF90BF90AF909F908F909B
:100DA0007F906F905F904F903F902F900C9424060F
:100DB0002FEF3FEF4FE75FECC701B6010E94CF0B6B
:100DC00087FDE0CF20E030E0A901C701B6010E9415
:100DD000CF0B312C212C87FF0DC0E881F9810190C8
:100DE000F081E02D6DE2CE0109951C01F7FAF09437
:100DF000F7F8F09410E060E070E080E09FE3711697
:100E000041F020E030E040E251E40E94D40B1F5F4B
:100E1000F6CFA70196010E94630B2B013C010E94B3
:100E2000460C4B015C012AE0BC01A401CE010E94EA
:100E300033067C01E20CF31C1123E1F1C501B4017E
:100E40000E94750C9B01AC01C301B2010E94620BB0
:100E50004B015C01E881F9810190F081E02D6EE2A7
:100E6000CE010995E80EF91E115020F120E030E086
:100E700040E251E4C501B4010E942C0D2B013C015C
:100E80000E94460C4B01B12CA12C2AE0B501A40113
:100E9000CE010E943306E80EF91EC501B4010E947E
:100EA000750C9B01AC01C301B2010E94620B4B01A6
:100EB0005C01DACFC701DF91CF911F91FF90EF90D6
:100EC000DF90CF90BF90AF909F908F907F906F906A
:100ED0005F904F903F902F9008951F93CF93DF9393
:100EE00085ED8093BC008091730190917401A09175
:100EF0007501B09176010796A11DB11D23E0B6954D
:100F0000A795979587952A95D1F72091BC0024FD48
:100F100003C01092BB0152C0409173015091740103
:100F20006091750170917601452B462B472B69F333
:100F30000097A105B10541F025E32A95F1F70000DE
:100F40000197A109B109E1CF80917201C1E0C0937D
:100F50007101882399F1D091B8001091BA00809165
:100F6000BC008A7B8093BC0060E082E10E94A40107
:100F700060E083E10E94A4011092BB01C093BD0117
:100F80001092BC0161E082E10E94A40161E083E172
:100F90000E94A4018091B9008E7F8093B900809156
:100FA000B9008D7F8093B90088E48093B80085E410
:100FB0008093BC001093BA00D093B800DF91CF911A
:100FC0001F9108951F920F920FB60F9211242F9325
:100FD0003F934F935F936F937F938F939F93AF93C1
:100FE000BF93EF93FF938BEE91E00E941501FF9169
:100FF000EF91BF91AF919F918F917F916F915F9191
:101000004F913F912F910F900FBE0F901F90189509
:101010001F920F920FB60F9211242F938F939F93CD
:10102000EF93FF93E091FB01F091FC018081E0914F
:101030000102F091020282FD1BC0908180910402A6
:101040008F5F8F7320910502821741F0E0910402B7
:10105000F0E0E551FE4F958F80930402FF91EF91F0
:101060009F918F912F910F900FBE0F901F90189509
:101070008081F4CF1F920F920FB60F9211242F93FD
:101080003F938F939F93AF93BF938091E201909191
:10109000E301A091E401B091E5013091E10123E089
:1010A000230F2D3758F50196A11DB11D2093E101A5
:1010B0008093E2019093E301A093E401B093E501F2
:1010C0008091E6019091E701A091E801B091E901DA
:1010D0000196A11DB11D8093E6019093E701A093B5
:1010E000E801B093E901BF91AF919F918F913F913A
:1010F0002F910F900FBE0F901F90189526E8230F89
:101100000296A11DB11DD2CF1F920F920FB60F9262
:1011100011242F933F934F935F936F937F938F93FC
:101120009F93AF93BF93EF93FF938091B900887F14
:10113000803609F44AC0F0F5883209F4A5C018F5E4
:10114000803109F499C0B8F4882309F4F5C08830D7
:1011500009F492C0FF91EF91BF91AF919F918F9150
:101160007F916F915F914F913F912F910F900FBEA3
:101170000F901F901895883109F486C0803251F77E
:101180008093BA0114C0803409F49BC040F48033CA
:10119000B9F38833F9F68093BA0185ECAEC0803597
:1011A00009F483C0883509F494C0883499F60E9404
:1011B0006D07D0CF883909F48AC038F5883729F00F
:1011C00050F4883611F0803729F683E08093BB0114
:1011D0001092B90155C0883809F479C0803919F0E6
:1011E000803809F0B7CF8091B901803208F06FC024
:1011F000E091B90181E08E0F8093B9018091BB002D
:10120000F0E0E756FE4F80833BC0803B39F0D0F4DE
:10121000803A09F477C0883A09F09CCF84E0809343
:10122000BB011092980110929701F0E0E0E009955F
:101230008091970181110FC081E0809397011092F6
:10124000770109C0803C09F4A8CF883C09F4A5CFF8
:10125000883B09F07FCFE091980181E08E0F809369
:101260009801F0E0E958FE4F80818093BB00909197
:1012700098018091970129C08091E0018093BB0083
:1012800085EC8093BC0066CF9091DF018091DE01F8
:10129000981758F5E091DF0181E08E0F8093DF0110
:1012A000F0E0E254FE4F8081E9CFE091DF0181E080
:1012B0008E0F8093DF018091BB00F0E0E254FE4F7F
:1012C00080839091DF018091DE019817C8F285E854
:1012D000D8CFE091DF0181E08E0F8093DF01809114
:1012E000BB00F0E0E254FE4F80838091BD0181118C
:1012F0005ECF81E08093BC0184EA8093BC001092B1
:10130000BB0128CF85EC8093BC001092BB0180917B
:10131000B901803230F4E091B901F0E0E756FE4FB8
:1013200010826091B90170E089E991E0F0E0E0E0BD
:1013300009951092B9010ECF1092BA0138CF1F93C0
:10134000CF93DF93EBEEF1E01382128288EE93E00D
:10135000A0E0B0E084839583A683B7838AE091E020
:101360009183808385EC90E09587848784EC90E07E
:101370009787868780EC90E0918B808B81EC90E062
:10138000938B828B82EC90E0958B848B86EC90E043
:10139000978B868B118E128E138E148EC0EAD2E03C
:1013A00084E08B8785E08C8783E08E871FEF1D8725
:1013B000E2EBF0E0E491F0E0EE0FFF1FEC55FF4FA1
:1013C000859194919E8B8D8BE4E9F0E0E491EA8F16
:1013D000E1EBF0E0E491F0E0EE0FFF1FEA57FF4F82
:1013E000859194919C8B8B8BE3E9F0E0E491E88FFD
:1013F000E3EBF0E0E491F0E0EE0FFF1FEC55FF4F60
:10140000859194919A8B898BE5E9F0E0E491E98FDD
:1014100080E492E4AFE0B0E08C839D83AE83BF8331
:1014200081E090E0998788871A861B8E82E090E0A1
:101430000E94C60D21E5FC01208311829B838A83D3
:10144000198218821C8EE8E8F2E0138212828CE185
:1014500091E09183808386E08483158387E086838F
:1014600088E0878389E080878AE081878BE08287B4
:101470001386148615861686178681E0DF91CF9134
:101480001F910C94DE03789484B5826084BD84B58A
:10149000816084BD85B5826085BD85B5816085BD6F
:1014A00080916E00816080936E0010928100809127
:1014B00081008260809381008091810081608093AF
:1014C0008100809180008160809380008091B100D4
:1014D00084608093B1008091B00081608093B000FF
:1014E00080917A00846080937A0080917A00826093
:1014F00080937A0080917A00816080937A00809155
:101500007A00806880937A001092C100E091FB011C
:10151000F091FC0182E08083E091F701F091F80105
:101520001082E091F901F091FA018FEC8083109222
:101530000302E091FF01F091000286E08083E091D8
:10154000FD01F091FE01808180618083E091FD01C9
:10155000F091FE01808188608083E091FD01F0912F
:10156000FE01808180688083E091FD01F091FE01A1
:1015700080818F7D808382E00E94DE030E94D603FB
:1015800060E371E088E892E00E94240664EF71E075
:1015900080E090E00E94B3020E9421028093BC028E
:1015A00081110DC06EE371E088E892E00E9424068C
:1015B0006AE070E080E090E00E94B302F9CF65E459
:1015C00071E088E892E00E942406C0E0D0E00E942A
:1015D000D603E1E080919B028111E0E0E195F0E02B
:1015E000E857FD4F848980680E94D0036BE471E066
:1015F00088E892E00E9424060E940506AB01BC0127
:1016000022E088E892E00E947F0668E571E088E8C1
:1016100092E00E9424066BE471E08BEE91E00E9460
:1016200024060E940506AB01BC0122E08BEE91E08E
:101630000E947F0668E571E08BEE91E00E9424062F
:101640000E94D3056B017C010E94D305E0919B02AF
:10165000E230B0F5E150F0E0E857FD4F8489806852
:101660000E94D003A7019601C701B6010E94990DFF
:101670006BE571E081110FC067E671E088E892E0E8
:101680000E94240622E0B701A60188E892E00E94A9
:101690007F066CE671E088E892E00E94240668EE1E
:1016A00073E080E090E00E94B302209709F48FCFAE
:1016B0000E940101882309F48ACF0E94000087CF8D
:1016C000E1E0C9CF5058BB27AA270E947A0B0C949F
:1016D000ED0C0E94DF0C38F00E94E60C20F039F48B
:1016E0009F3F19F426F40C94DC0C0EF4E095E7FB14
:1016F0000C94D60CE92F0E94FE0C58F3BA1762071F
:1017000073078407950720F079F4A6F50C94200D53
:101710000EF4E0950B2EBA2FA02D0B01B90190010C
:101720000C01CA01A0011124FF27591B99F0593F50
:1017300050F4503E68F11A16F040A22F232F342F98
:101740004427585FF3CF469537952795A795F040E6
:101750005395C9F77EF41F16BA0B620B730B840BFB
:10176000BAF09150A1F0FF0FBB1F661F771F881FB3
:10177000C2F70EC0BA0F621F731F841F48F487950B
:1017800077956795B795F7959E3F08F0B0CF9395FD
:10179000880F08F09927EE0F9795879508950E9476
:1017A000B20C08F481E008950E94E80B0C94ED0C53
:1017B0000E94E60C58F00E94DF0C40F029F45F3FD5
:1017C00029F00C94D60C51110C94210D0C94DC0CC6
:1017D0000E94FE0C68F39923B1F3552391F3951BF6
:1017E000550BBB27AA2762177307840738F09F5F42
:1017F0005F4F220F331F441FAA1FA9F335D00E2EAF
:101800003AF0E0E832D091505040E695001CCAF71B
:101810002BD0FE2F29D0660F771F881FBB1F2617DE
:1018200037074807AB07B0E809F0BB0B802DBF01B5
:10183000FF2793585F4F3AF09E3F510578F00C9484
:10184000D60C0C94210D5F3FE4F3983ED4F38695BB
:1018500077956795B795F7959F5FC9F7880F911DA5
:101860009695879597F90895E1E0660F771F881F91
:10187000BB1F621773078407BA0720F0621B730B44
:10188000840BBA0BEE1F88F7E09508950E94060DB1
:1018900088F09F5798F0B92F9927B751B0F0E1F031
:1018A000660F771F881F991F1AF0BA95C9F714C0E1
:1018B000B13091F00E94200DB1E008950C94200DFC
:1018C000672F782F8827B85F39F0B93FCCF386951A
:1018D00077956795B395D9F73EF490958095709577
:1018E00061957F4F8F4F9F4F0895E89409C097FBF4
:1018F0003EF490958095709561957F4F8F4F9F4FE7
:101900009923A9F0F92F96E9BB279395F69587952A
:1019100077956795B795F111F8CFFAF4BB0F11F4ED
:1019200060FF1BC06F5F7F4F8F4F9F4F16C0882394
:1019300011F096E911C0772321F09EE8872F762FCA
:1019400005C0662371F096E8862F70E060E02AF00B
:101950009A95660F771F881FDAF7880F96958795F7
:1019600097F90895990F0008550FAA0BE0E8FEEFCC
:1019700016161706E807F907C0F012161306E40753
:10198000F50798F0621B730B840B950B39F40A264C
:1019900061F0232B242B252B21F408950A2609F42A
:1019A000A140A6958FEF811D811D089597F99F672E
:1019B00080E870E060E008959FEF80EC08950024D7
:1019C0000A941616170618060906089500240A94A4
:1019D00012161306140605060895092E0394000C2A
:1019E00011F4882352F0BB0F40F4BF2B11F460FFB9
:1019F00004C06F5F7F4F8F4F9F4F089557FD9058E2
:101A0000440F551F59F05F3F71F04795880F97FBC2
:101A1000991F61F09F3F79F087950895121613067C
:101A20001406551FF2CF4695F1DF08C016161706AB
:101A30001806991FF1CF86957105610508940895E0
:101A4000E894BB2766277727CB0197F908950E9472
:101A5000B20C08F48FEF08950E943F0D0C94ED0C2A
:101A60000E94DF0C38F00E94E60C20F0952311F064
:101A70000C94D60C0C94DC0C11240C94210D0E94B7
:101A8000FE0C70F3959FC1F3950F50E0551F629FB8
:101A9000F001729FBB27F00DB11D639FAA27F00DC7
:101AA000B11DAA1F649F6627B00DA11D661F829FEE
:101AB0002227B00DA11D621F739FB00DA11D621FD3
:101AC000839FA00D611D221F749F3327A00D611DF0
:101AD000231F849F600D211D822F762F6A2F1124D2
:101AE0009F5750409AF0F1F088234AF0EE0FFF1F05
:101AF000BB1F661F771F881F91505040A9F79E3F5C
:101B0000510580F00C94D60C0C94210D5F3FE4F34A
:101B1000983ED4F3869577956795B795F795E795B1
:101B20009F5FC1F7FE2B880F911D9695879597F9BA
:101B300008950E94B20C880B990B0895A1E21A2E09
:101B4000AA1BBB1BFD010DC0AA1FBB1FEE1FFF1F61
:101B5000A217B307E407F50720F0A21BB30BE40BB1
:101B6000F50B661F771F881F991F1A9469F76095F8
:101B70007095809590959B01AC01BD01CF010895B2
:101B8000EE0FFF1F0590F491E02D09940F931F9322
:101B9000CF93DF938230910510F482E090E0E091E2
:101BA000BF02F091C00230E020E0B0E0A0E030974A
:101BB00099F42115310509F44AC0281B390B24304A
:101BC0003105D8F58A819B816115710589F1FB0189
:101BD00093838283FE0111C0408151810281138170
:101BE00048175907E0F04817590799F4109761F022
:101BF00012960C93129713961C933296CF01DF9195
:101C0000CF911F910F9108950093BF021093C002CE
:101C1000F4CF2115310551F04217530738F0A901CF
:101C2000DB019A01BD01DF01F801C1CFEF01F9CF5E
:101C30009093C0028093BF02CDCFFE01E20FF31F4D
:101C4000819391932250310939832883D7CF2091F2
:101C5000BD023091BE02232B41F42091020130914C
:101C600003013093BE022093BD0220910001309108
:101C700001012115310541F42DB73EB74091040112
:101C800050910501241B350BE091BD02F091BE027D
:101C9000E217F307A0F42E1B3F0B2817390778F043
:101CA000AC014E5F5F4F2417350748F04E0F5F1FA2
:101CB0005093BE024093BD02819391939FCFF0E079
:101CC000E0E09CCFCF93DF930097E9F0FC013297DF
:101CD00013821282A091BF02B091C002ED0130E0E8
:101CE00020E01097A1F420813181820F931F209171
:101CF000BD023091BE022817390709F061C0F09388
:101D0000BE02E093BD02DF91CF910895EA01CE17A4
:101D1000DF07E8F54A815B819E0141155105B1F766
:101D2000E901FB83EA8349915991C40FD51FEC1750
:101D3000FD0761F4808191810296840F951FE9016E
:101D400099838883828193819B838A83F0E0E0E09A
:101D500012968D919C9113970097B9F52D913C9116
:101D60001197CD010296820F931F2091BD023091F1
:101D7000BE022817390739F6309751F51092C00284
:101D80001092BF02B093BE02A093BD02BCCFD3831A
:101D9000C28340815181840F951FC817D90761F410
:101DA0004E5F5F4F88819981480F591F518340834F
:101DB0008A819B81938382832115310509F0B0CFFD
:101DC000F093C002E093BF029ECFFD01DC01C0CFC3
:101DD00013821282D7CFDC0101C06D934150504075
:101DE000E0F70895F894FFCF0000C10280000000E2
:101DF000000037019700C4008401F500D300E7001C
:101E0000000000007F0497003703E5026E616E005A
:101E1000696E66006F7666004D415833313835354E
:101E20002074657374004552524F522E00444F4E39
:101E3000452E00496E742E2054656D70203D2000A3
:101E40000D0A00542F432050726F626C656D004381
:081E5000203D200020200000CD
:107E0000112484B714BE81FFF0D085E080938100F7
:107E100082E08093C00088E18093C10086E0809377
:107E2000C20080E18093C4008EE0C9D0259A86E02C
:107E300020E33CEF91E0309385002093840096BBD3
:107E4000B09BFECF1D9AA8958150A9F7CC24DD24C4
:107E500088248394B5E0AB2EA1E19A2EF3E0BF2EE7
:107E6000A2D0813461F49FD0082FAFD0023811F036
:107E7000013811F484E001C083E08DD089C08234E0
:107E800011F484E103C0853419F485E0A6D080C0E4
:107E9000853579F488D0E82EFF2485D0082F10E0AE
:107EA000102F00270E291F29000F111F8ED06801E7
:107EB0006FC0863521F484E090D080E0DECF843638
:107EC00009F040C070D06FD0082F6DD080E0C81688
:107ED00080E7D80618F4F601B7BEE895C0E0D1E017
:107EE00062D089930C17E1F7F0E0CF16F0E7DF06D8
:107EF00018F0F601B7BEE89568D007B600FCFDCFD4
:107F0000A601A0E0B1E02C9130E011968C91119780
:107F100090E0982F8827822B932B1296FA010C0160
:107F200087BEE89511244E5F5F4FF1E0A038BF0790
:107F300051F7F601A7BEE89507B600FCFDCF97BE46
:107F4000E89526C08437B1F42ED02DD0F82E2BD052
:107F50003CD0F601EF2C8F010F5F1F4F84911BD097
:107F6000EA94F801C1F70894C11CD11CFA94CF0C13
:107F7000D11C0EC0853739F428D08EE10CD085E9AC
:107F80000AD08FE07ACF813511F488E018D01DD067
:107F900080E101D065CF982F8091C00085FFFCCF94
:107FA0009093C60008958091C00087FFFCCF809118
:107FB000C00084FD01C0A8958091C6000895E0E648
:107FC000F0E098E1908380830895EDDF803219F02E
:107FD00088E0F5DFFFCF84E1DECF1F93182FE3DFCA
:107FE0001150E9F7F2DF1F91089580E0E8DFEE27F6
:047FF000FF270994CA
:027FFE00040479
:00000001FF
