:020000040000FA
:100000000C945D000C9485000C9485000C94850084
:100010000C9485000C9485000C9485000C9485004C
:100020000C9485000C9485000C9485000C9485003C
:100030000C9485000C9485000C9485000C9485002C
:100040000C94B5050C9485000C9483050C945D0507
:100050000C9485000C9485000C9485000C9485000C
:100060000C94FF050C9485000000000800020100BC
:100070000003040700000000000000000000000072
:10008000250028002B0000000000240027002A0083
:10009000040404040404040402020202020203032E
:1000A0000303030301020408102040800102040836
:1000B00010200102040810201E0711241FBECFEFDC
:1000C000D8E0DEBFCDBF11E0A0E0B1E0E6E1F3E1B2
:1000D00002C005900D92A839B107D9F723E0A8E92D
:1000E000B1E001C01D92A131B207E1F710E0CDE50A
:1000F000D0E004C02197FE010E948309CC35D107CE
:10010000C9F70E9467070C9489090C94000090E0DD
:10011000FC01EC55FF4F249180579F4FFC018491C7
:10012000882399F090E0880F991FFC01EA57FF4F50
:10013000A591B491FC01E458FF4F859194918FB73C
:10014000F894EC91E22BEC938FBF08958091E50138
:100150009091E601891B990B089508950895AF9237
:10016000BF92CF92DF92EF92FF920F931F93CF93A4
:10017000DF936C017B018B01040F151FEB015E0106
:10018000AE18BF08C017D10759F06991D601ED919B
:10019000FC910190F081E02DC6010995892B79F73A
:1001A000C501DF91CF911F910F91FF90EF90DF90EC
:1001B000CF90BF90AF900895FC01538D448D252FB3
:1001C00030E0842F90E0821B930B541710F0CF96F1
:1001D000089501970895FC01918D828D981761F023
:1001E000A28DAE0FBF2FB11D5D968C91928D9F5F3A
:1001F0009F73928F90E008958FEF9FEF0895FC0119
:10020000918D828D981731F0828DE80FF11D858DCB
:1002100090E008958FEF9FEF0895FC01918D228D5E
:10022000892F90E0805C9F4F821B91098F739927E3
:10023000089581E692E00E940D0121E0892B09F4E6
:1002400020E0822F089580E090E0892B29F00E9421
:10025000190181110C9400000895FC01A48DA80FD0
:10026000B92FB11DA35ABF4F2C91848D90E00196F8
:100270008F739927848FA689B7892C93A089B18918
:100280008C91837080648C93938D848D981306C0B9
:100290000288F389E02D80818F7D80830895EF921D
:1002A000FF920F931F93CF93DF93EC0181E0888F30
:1002B0009B8D8C8D98131AC0E889F989808185FF00
:1002C00015C09FB7F894EE89FF896083E889F989A2
:1002D00080818370806480839FBF81E090E0DF91A4
:1002E000CF911F910F91FF90EF900895F62E0B8DF7
:1002F00010E00F5F1F4F0F731127E02E8C8D8E11B2
:100300000CC00FB607FCFACFE889F989808185FF18
:10031000F5CFCE010E942D01F1CFEB8DEC0FFD2F1B
:10032000F11DE35AFF4FF0829FB7F8940B8FEA89D3
:10033000FB8980818062CFCFCF93DF93EC01888DE2
:100340008823B9F0AA89BB89E889F9898C9185FD50
:1003500003C0808186FD0DC00FB607FCF7CF8C91DE
:1003600085FFF2CF808185FFEDCFCE010E942D0168
:10037000E9CFDF91CF91089590E0FC01E859FF4F5C
:100380002491FC01EC55FF4F3491FC01E057FF4FE5
:10039000E491EE23C9F0222339F0233001F1A8F4CF
:1003A000213019F1223029F1F0E0EE0FFF1FE4585F
:1003B000FF4FA591B4918FB7F894EC91611126C0CD
:1003C00030953E233C938FBF08952730A9F0283005
:1003D000C9F0243049F7809180008F7D03C080915F
:1003E00080008F7780938000DFCF84B58F7784BDC6
:1003F000DBCF84B58F7DFBCF8091B0008F7780936A
:10040000B000D2CF8091B0008F7DF9CF3E2BDACFF4
:100410003FB7F8948091DD019091DE01A091DF015A
:10042000B091E00126B5A89B05C02F3F19F00196B9
:10043000A11DB11D3FBFBA2FA92F982F8827BC013E
:10044000CD01620F711D811D911D42E0660F771F66
:10045000881F991F4A95D1F708952091B901260F59
:100460003327331F21323105ECF420915B02FC016C
:1004700090E080E0243069F082E00895A091B90115
:100480002191AC0147565E4FA40FB52FB11D2C939F
:100490000196861798F38091B901680F6093B901AE
:1004A00080E0089581E0089510925B0281E08093DE
:1004B0003A021092350261E082E10E94BC0161E0E3
:1004C00083E10E94BC01E9EBF0E080818E7F8083B4
:1004D00080818D7F808388E48093B80085E4809359
:1004E000BC000895CF93DF9391E090939801882307
:1004F000B9F0C091B800D091BA008091BC008A7B5D
:100500008093BC0060E082E10E94BC0160E083E176
:100510000E94BC010E945402D093BA00C093B8005C
:10052000DF91CF910895CF92DF92EF92FF920F93D8
:100530001F93CF93DF93D82FC62F613208F098C056
:100540000E9408026B017C0180915B0281116BC0EB
:1005500081E080935B0280933A029FEF909339028F
:10056000109238029C0F909337028093360280914C
:100570003602DD0FD82BD0933602809135028130C0
:1005800009F078C0109235020E9408026B017C01CC
:10059000809136028093BB0080915D0290915E0253
:1005A000A0915F02B0916002892B8A2B8B2BA1F066
:1005B0000E94080200915D0210915E0220915F028C
:1005C000309160026C197D098E099F090617170783
:1005D0002807390708F448C08091BC0083FDD8CFB4
:1005E00085EC8093BC000E9408026B017C01809125
:1005F0005B02813009F440C0809138028C1710F4FE
:10060000C0913802E5E1F2E0ABE3B2E080E08C13A8
:1006100055C08C2FDF91CF911F910F91FF90EF90DC
:10062000DF90CF90089580915D0290915E02A0913D
:100630005F02B0916002892B8A2B8B2B09F484CF47
:100640000E94080200915D0210915E0220915F02FB
:10065000309160026C197D098E099F0906171707F2
:100660002807390708F070CF80915C020E9472025F
:10067000C0E0CFCF85EEB5CF80915D0290915E0254
:10068000A0915F02B0916002892B8A2B8B2B09F419
:10069000AECF0E94080200915D0210915E0220918F
:1006A0005F02309160026C197D098E099F0906175F
:1006B00017072807390708F09ACFD6CF91919D9355
:1006C0008F5FA5CF8F929F92AF92BF92CF92DF9212
:1006D000EF92FF920F931F93CF93DF93D091140269
:1006E000D13208F0D7C0182FC09113020E9408021F
:1006F0006B017C0180915B0281116BC082E0809371
:100700005B0210933A028FEF809339021092380205
:10071000D0933702A3EFB1E0E5E1F2E080E0D81337
:1007200091C01092360280913602CC0FC82BC09334
:10073000360280913502813009F088C0109235026E
:100740000E9408026B017C01809136028093BB00FD
:1007500080915D0290915E02A0915F02B091600273
:10076000892B8A2B8B2BA1F00E94080200915D023D
:1007700010915E0220915F02309160026C197D0938
:100780008E099F09061717072807390708F442C082
:100790008091BC0083FDD8CF85EC8093BC000E9483
:1007A00008026B017C0180915B02823009F450C029
:1007B000809139028F3F09F46FC0809139028032F5
:1007C00009F46CC080913902803309F469C084E077
:1007D00026C080915D0290915E02A0915F02B0916F
:1007E0006002892B8A2B8B2B09F484CF0E9408028C
:1007F00080905D0290905E02A0905F02B0906002D7
:100800006C197D098E099F0986169706A806B906F8
:1008100008F070CF80915C020E94720285E0109215
:10082000F201109214021092F101DF91CF911F9109
:100830000F91FF90EF90DF90CF90BF90AF909F907F
:100840008F9008959D9191938F5F69CF85EEA5CF8D
:1008500080915D0290915E02A0915F02B091600272
:10086000892B8A2B8B2B09F49ECF0E9408020091C2
:100870005D0210915E0220915F02309160026C195E
:100880007D098E099F09061717072807390708F001
:100890008ACFC0CF81E0C3CF80E0C1CF82E0BFCF9D
:1008A00083E0BDCF0895E091E6018091E501E8176E
:1008B00030F4F0E0E55CFD4F808190E008958FEF2B
:1008C0009FEF08959091E6018091E5012FEF3FEFB2
:1008D000981748F4E92FF0E0E55CFD4F208130E007
:1008E0009F5F9093E601C9010895CF92DF92EF9246
:1008F000FF920F931F93CF93DF937C01CB018A016B
:100900002091F101222389F0EB016B01C40ED51E69
:10091000CC15DD0569F06991D701ED91FC9101904D
:10092000F081E02DC7010995F3CF642F0E942D02BD
:10093000C801DF91CF911F910F91FF90EF90DF9051
:10094000CF900895CF93DF931F92CDB7DEB7698321
:100950002091F1012223F9F020911402203258F065
:1009600021E030E0FC013383228390E080E00F90AF
:10097000DF91CF9108958091F201E82FF0E0ED50E2
:10098000FE4F998190838F5F8093F20180931402D0
:1009900081E090E0ECCF61E0CE0101960E942D0253
:1009A000F7CF90E080E00895FC0101900020E9F786
:1009B0003197AF01481B590BBC0181E692E00C94C2
:1009C000AF008F929F92AF92BF920F931F93CF93DE
:1009D000DF93CDB7DEB7A1970FB6F894DEBF0FBE99
:1009E000CDBF19A2423008F44AE08E010F5D1F4FBF
:1009F000842E912CB12CA12CA50194010E94610997
:100A0000E62FB901CA01EA30F4F4E05DD801EE93B3
:100A10008D01232B242B252B79F790E080E0109774
:100A200019F0CD010E94D404A1960FB6F894DEBF50
:100A30000FBECDBFDF91CF911F910F91BF90AF90AF
:100A40009F908F900895E95CE1CF85ED8093BC0085
:100A500080915D0290915E02A0915F02B091600270
:100A60000796A11DB11D23E0B695A795979587958B
:100A70002A95D1F72091BC0024FD03C010925B029F
:100A8000089540915D0250915E0260915F02709105
:100A90006002452B462B472B69F30097A105B10552
:100AA00041F025E32A95F1F700000197A109B1096A
:100AB000E1CF80915C020C9472021F920F920FB6EC
:100AC0000F9211242F933F934F935F936F937F93D4
:100AD0008F939F93AF93BF93EF93FF9381E692E041
:100AE0000E942D01FF91EF91BF91AF919F918F9146
:100AF0007F916F915F914F913F912F910F900FBE1A
:100B00000F901F9018951F920F920FB60F921124FD
:100B10002F938F939F93EF93FF93E0917102F09146
:100B200072028081E0917702F091780282FD1BC011
:100B3000908180917A028F5F8F7320917B02821760
:100B400041F0E0917A02F0E0EF59FD4F958F8093EC
:100B50007A02FF91EF919F918F912F910F900FBE8D
:100B60000F901F9018958081F4CF1F920F920FB6AF
:100B70000F9211242F933F938F939F93AF93BF9323
:100B80008091E7019091E801A091E901B091EA011B
:100B90003091DC0123E0230F2D3758F50196A11D7C
:100BA000B11D2093DC018093E7019093E801A093AD
:100BB000E901B093EA018091DD019091DE01A091FD
:100BC000DF01B091E0010196A11DB11D8093DD010F
:100BD0009093DE01A093DF01B093E001BF91AF914C
:100BE0009F918F913F912F910F900FBE0F901F906B
:100BF000189526E8230F0296A11DB11DD2CF1F9292
:100C00000F920FB60F9211242F933F934F935F9340
:100C10006F937F938F939F93AF93BF93EF93FF93C4
:100C20008091B900887F803609F44AC0F0F5883297
:100C300009F4A7C018F5803109F49BC0B8F48823E3
:100C400009F4F9C0883009F494C0FF91EF91BF9185
:100C5000AF919F918F917F916F915F914F913F9154
:100C60002F910F900FBE0F901F901895883109F4A7
:100C700088C0803251F78093390214C0803409F45F
:100C80009DC040F48033B9F38833F9F6809339027C
:100C900085ECB0C0803509F485C0883509F496C06C
:100CA000883499F60E942505D0CF883909F48CC084
:100CB00038F5883729F050F4883611F0803729F656
:100CC00083E080935B021092DB0157C0883809F4FF
:100CD0007BC0803919F0803809F0B7CF8091DB01F3
:100CE000803208F071C0E091DB0181E08E0F8093CB
:100CF000DB018091BB00F0E0E554FE4F80833DC0F6
:100D0000803B39F0E0F4803A09F479C0883A09F080
:100D10009CCF84E080935B021092BA011092B901DB
:100D2000E091E301F091E40109958091B90181110D
:100D30000FC081E08093B9011092990109C0803CF5
:100D400009F4A6CF883C09F4A3CF883B09F07DCFF6
:100D5000E091BA0181E08E0F8093BA01F0E0E7568E
:100D6000FE4F80818093BB009091BA018091B901C0
:100D700029C0809136028093BB0085EC8093BC0033
:100D800064CF9091380280913702981758F5E0911E
:100D9000380281E08E0F80933802F0E0EB5EFD4F69
:100DA0008081E9CFE091380281E08E0F8093380294
:100DB0008091BB00F0E0EB5EFD4F808390913802A4
:100DC000809137029817C8F285E8D8CFE0913802B1
:100DD00081E08E0F809338028091BB00F0E0EB5EE3
:100DE000FD4F808380913A0281115CCF81E0809336
:100DF000350284EA8093BC0010925B0226CF85EC1A
:100E00008093BC0010925B028091DB01803230F451
:100E1000E091DB01F0E0E554FE4F10826091DB01D0
:100E200070E0E091E101F091E2018BEB91E0099536
:100E30001092DB010ACF1092390234CFE1E6F2E0E2
:100E40001382128248EE53E060E070E044835583E1
:100E5000668377838EE291E09183808385EC90E0D6
:100E60009587848784EC90E09787868780EC90E074
:100E7000918B808B81EC90E0938B828B82EC90E065
:100E8000958B848B86EC90E0978B868B118E128EDF
:100E9000138E148E10920F0310920E038CE0809329
:100EA0000D0310920C03EEEFF2E0138212824483E2
:100EB00055836683778320E431E03183208398E68D
:100EC0009093100380930B0310920A030895CF931D
:100ED000DF9300D000D0CDB7DEB7789484B58260C0
:100EE00084BD84B5816084BD85B5826085BD85B5CE
:100EF000816085BD80916E00816080936E0010924C
:100F000081008091810082608093810080918100C6
:100F10008160809381008091800081608093800057
:100F20008091B10084608093B1008091B0008160B5
:100F30008093B00080917A00846080937A008091E1
:100F40007A00826080937A0080917A008160809339
:100F50007A0080917A00806880937A001092C100B4
:100F6000E0917102F091720282E08083E0916D0263
:100F7000F0916E021082E0916F02F09170028FEC9E
:100F8000808310927902E0917502F091760286E0FA
:100F90008083E0917302F09174028081806180838C
:100FA000E0917302F0917402808188608083E09107
:100FB0007302F0917402808180688083E0917302F3
:100FC000F091740280818F7D80831092E6011092EF
:100FD000F201109214020E9454028DEA90E0909364
:100FE000E4018093E3018EEA90E09093E201809324
:100FF000E10189E00E94870061E089E00E94BC0174
:101000008DE00E94870081E08093F101109213022D
:1010100066E08EEF92E00E94A20481E00E946203EB
:101020000E9408026B017C010E9408026C197D0974
:101030008E099F09683E734081059105A8F361E020
:1010400088E60E9493028093E501811110C08EE42E
:1010500091E00E94D40440E168E670E080E090E016
:101060000E94E1048AE691E00E94D404FFCF81E06F
:101070008093F001662463948E010F5F1F4F6E0111
:1010800085E0C80ED11C50E0E52E50E0F52E772407
:1010900073948091F001882379F18DE691E00E94AC
:1010A000D4048AE691E00E94D404809110037092E7
:1010B000F101809313021092F201109214026091D8
:1010C0000B0360688EEF92E00E94A20481E00E9410
:1010D0006203882379F085E791E00E94D4044AE016
:1010E00061E070E080E090E00E94E1048AE691E037
:1010F0000E94D4041092F00119821A821B821C8271
:1011000064E0809110030E9493021092E6018093A4
:10111000E501843009F08EC058018EEF92E00E9404
:101120006204F50181935F01CE16DF06B1F78C8171
:10113000982F9C709C3009F0BFC080930A0323E075
:1011400080910A0387FD76C08C7090E09595879515
:10115000FC01EE0FFF1FDF01A80FB91FAB5EBE4FF2
:101160004D915D916C91062E000C770BD801812C6E
:10117000912C54013D91BA2CA92C982C8824832AB7
:101180003A2F301B3217B0F3482159216A217B21B5
:10119000452B462B472B71F0E80FF91FE050FF4F0E
:1011A00080819181A2810A2E000CBB0B882A992A8A
:1011B000AA2ABB2A80910A0387FD3CC085E891E0FA
:1011C0000E94D4044AE0C501B401B7FE0DC06DE22F
:1011D00081E692E00E944F0166277727CB016819CC
:1011E00079098A099B094AE00E94E1048AE691E0B4
:1011F0000E94D4048DE891E00E94D40460910B0316
:1012000070E090E080E040E10E94E1048AE691E035
:101210000E94D40485E791E00E94D4044AE060E093
:1012200070E0CB010E94E1048AE691E00E94D404C0
:101230007092F0012FB7F8948091E7019091E80146
:10124000A091E901B091EA012FBF4091EC015091CA
:10125000ED016091EE017091EF01841B950BA60BDF
:10126000B70BC397A105B105D8F06091EB016625D6
:101270006093EB018DE00E94BC012FB7F894809140
:10128000E7019091E801A091E901B091EA012FBF37
:101290008093EC019093ED01A093EE01B093EF01E8
:1012A000E114F10409F4F5CE0E941901882309F430
:1012B000F0CE0E940000EDCE8B8180930A0322E0E5
:1012C0003FCFA1E21A2EAA1BBB1BFD010DC0AA1F16
:1012D000BB1FEE1FFF1FA217B307E407F50720F09F
:1012E000A21BB30BE40BF50B661F771F881F991F1A
:1012F0001A9469F760957095809590959B01AC0163
:10130000BD01CF010895EE0FFF1F0590F491E02D70
:101310000994F894FFCF00F0FF00000000C0FF0028
:1013200000000000FF0000000000FC0008000000BA
:10133000000020000000000080000000000000020B
:10134000000000004F01AF00DC009C010D01EB002C
:10135000FF0000000000A2047504D1045204A6009E
:10136000620453044E6F2064657669636520666F7E
:10137000756E64206174206164647265737320000B
:101380000D0A00436F6E7665727400436F6E76656A
:101390007274206572726F723A200056616C7565C6
:0E13A0003A2000436F6E6669673A203078008D
:107E0000112484B714BE81FFF0D085E080938100F7
:107E100082E08093C00088E18093C10086E0809377
:107E2000C20080E18093C4008EE0C9D0259A86E02C
:107E300020E33CEF91E0309385002093840096BBD3
:107E4000B09BFECF1D9AA8958150A9F7CC24DD24C4
:107E500088248394B5E0AB2EA1E19A2EF3E0BF2EE7
:107E6000A2D0813461F49FD0082FAFD0023811F036
:107E7000013811F484E001C083E08DD089C08234E0
:107E800011F484E103C0853419F485E0A6D080C0E4
:107E9000853579F488D0E82EFF2485D0082F10E0AE
:107EA000102F00270E291F29000F111F8ED06801E7
:107EB0006FC0863521F484E090D080E0DECF843638
:107EC00009F040C070D06FD0082F6DD080E0C81688
:107ED00080E7D80618F4F601B7BEE895C0E0D1E017
:107EE00062D089930C17E1F7F0E0CF16F0E7DF06D8
:107EF00018F0F601B7BEE89568D007B600FCFDCFD4
:107F0000A601A0E0B1E02C9130E011968C91119780
:107F100090E0982F8827822B932B1296FA010C0160
:107F200087BEE89511244E5F5F4FF1E0A038BF0790
:107F300051F7F601A7BEE89507B600FCFDCF97BE46
:107F4000E89526C08437B1F42ED02DD0F82E2BD052
:107F50003CD0F601EF2C8F010F5F1F4F84911BD097
:107F6000EA94F801C1F70894C11CD11CFA94CF0C13
:107F7000D11C0EC0853739F428D08EE10CD085E9AC
:107F80000AD08FE07ACF813511F488E018D01DD067
:107F900080E101D065CF982F8091C00085FFFCCF94
:107FA0009093C60008958091C00087FFFCCF809118
:107FB000C00084FD01C0A8958091C6000895E0E648
:107FC000F0E098E1908380830895EDDF803219F02E
:107FD00088E0F5DFFFCF84E1DECF1F93182FE3DFCA
:107FE0001150E9F7F2DF1F91089580E0E8DFEE27F6
:047FF000FF270994CA
:027FFE00040479
:00000001FF
