:100000000C945D000C9485000C9485000C94850084
:100010000C9485000C9485000C9485000C9485004C
:100020000C9485000C9485000C9485000C9485003C
:100030000C9485000C9485000C9485000C9485002C
:100040000C94F6060C9485000C94C4060C949E0641
:100050000C9485000C9485000C9485000C9485000C
:100060000C9440070C948500000000002400270039
:100070002A0000000000250028002B0004040404CE
:100080000404040402020202020203030303030342
:10009000010204081020408001020408102001021F
:1000A00004081020000000080002010000030407FB
:1000B00000000000000000005F0811241FBECFEF09
:1000C000D8E0DEBFCDBF11E0A0E0B1E0ECE8FAE19E
:1000D00002C005900D92A43AB107D9F723E0A4EA33
:1000E000B1E001C01D92A831B207E1F710E0CDE503
:1000F000D0E004C02197FE010E943E0DCC35D1070F
:10010000C9F70E94A8080C94440D0C94000080913B
:10011000F5019091F601891B990B089508950895B2
:10012000AF92BF92CF92DF92EF92FF920F931F9305
:10013000CF93DF936C017B018B01040F151FEB0143
:100140005E01AE18BF08C017D10759F06991D601FA
:10015000ED91FC910190F081E02DC6010995892B6C
:1001600079F7C501DF91CF911F910F91FF90EF902B
:10017000DF90CF90BF90AF900895FC01538D448DD8
:10018000252F30E0842F90E0821B930B541710F042
:10019000CF96089501970895FC01918D828D98174F
:1001A00061F0A28DAE0FBF2FB11D5D968C91928D27
:1001B0009F5F9F73928F90E008958FEF9FEF089558
:1001C000FC01918D828D981731F0828DE80FF11D21
:1001D000858D90E008958FEF9FEF0895FC01918D3C
:1001E000228D892F90E0805C9F4F821B91098F7335
:1001F0009927089588E692E00E94EE0021E0892B7D
:1002000009F420E0822F089580E090E0892B29F006
:100210000E94FA0081110C9400000895FC01A48D45
:10022000A80FB92FB11DA35ABF4F2C91848D90E018
:1002300001968F739927848FA689B7892C93A089FB
:10024000B1898C91837080648C93938D848D981385
:1002500006C00288F389E02D80818F7D8083089518
:10026000EF92FF920F931F93CF93DF93EC0181E006
:10027000888F9B8D8C8D98131AC0E889F9898081AD
:1002800085FF15C09FB7F894EE89FF896083E889E0
:10029000F98980818370806480839FBF81E090E0D2
:1002A000DF91CF911F910F91FF90EF900895F62E5F
:1002B0000B8D10E00F5F1F4F0F731127E02E8C8DF9
:1002C0008E110CC00FB607FCFACFE889F98980813E
:1002D00085FFF5CFCE010E940E01F1CFEB8DEC0F23
:1002E000FD2FF11DE35AFF4FF0829FB7F8940B8F5B
:1002F000EA89FB8980818062CFCFCF93DF93EC01C5
:10030000888D8823B9F0AA89BB89E889F9898C91FD
:1003100085FD03C0808186FD0DC00FB607FCF7CFB9
:100320008C9185FFF2CF808185FFEDCFCE010E94B9
:100330000E01E9CFDF91CF91089590E0FC01EC55DB
:10034000FF4F2491FC01E057FF4F3491FC01E4582A
:10035000FF4FE491EE23C9F0222339F0233001F15D
:10036000A8F4213019F1223029F1F0E0EE0FFF1F3F
:10037000EE58FF4FA591B4918FB7F894EC916111AD
:1003800026C030953E233C938FBF08952730A9F0B7
:100390002830C9F0243049F7809180008F7D03C058
:1003A000809180008F7780938000DFCF84B58F7736
:1003B00084BDDBCF84B58F7DFBCF8091B0008F777C
:1003C0008093B000D2CF8091B0008F7DF9CF3E2BCB
:1003D000DACFCF93DF9390E0FC01E057FF4F2491F9
:1003E00084589F4FFC0184918823D1F090E0880FBE
:1003F000991FFC01E859FF4FA591B491FC01EE58FB
:10040000FF4FC591D49161110EC09FB7F8948C91A4
:10041000E22FE0958E238C932881E223E8839FBF0F
:10042000DF91CF9108958FB7F894EC91E22BEC9384
:100430008FBFF6CF3FB7F8948091ED019091EE0118
:10044000A091EF01B091F00126B5A89B05C02F3F08
:1004500019F00196A11DB11D3FBFBA2FA92F982FEA
:100460008827BC01CD01620F711D811D911D42E0E5
:10047000660F771F881F991F4A95D1F708958F92AD
:100480009F92AF92BF92CF92DF92EF92FF924B0179
:100490005C010E941A026B017C010E941A026C1915
:1004A0007D098E099F09683E734081059105A8F377
:1004B00021E0821A9108A108B10888EEC80E83E0F5
:1004C000D81EE11CF11C81149104A104B10429F788
:1004D000FF90EF90DF90CF90BF90AF909F908F9064
:1004E00008952091C501260F3327331F213231058E
:1004F000ECF420916202FC0190E080E0243069F08D
:1005000082E00895A091C5012191AC014B555E4F49
:10051000A40FB52FB11D2C930196861798F38091E7
:10052000C501680F6093C50180E0089581E00895DA
:100530001092620281E08093410210923C0261E0DD
:1005400082E10E949D0161E083E10E949D01E9EB4F
:10055000F0E080818E7F808380818D7F808388E43E
:100560008093B80085E48093BC000895CF93DF9317
:1005700091E09093A4018823B9F0C091B800D09184
:10058000BA008091BC008A7B8093BC0060E082E16D
:100590000E949D0160E083E10E949D010E949802FB
:1005A000D093BA00C093B800DF91CF910895CF9255
:1005B000DF92EF92FF920F931F93CF93DF93D82F89
:1005C000C62F613208F098C00E941A026B017C01AC
:1005D0008091620281116BC081E0809362028093FE
:1005E00041029FEF9093400210923F029C0F909324
:1005F0003E0280933D0280913D02DD0FD82BD093C7
:100600003D0280913C02813009F078C010923C029A
:100610000E941A026B017C0180913D028093BB0015
:100620008091640290916502A0916602B091670288
:10063000892B8A2B8B2BA1F00E941A020091640255
:100640001091650220916602309167026C197D0954
:100650008E099F09061717072807390708F448C0AD
:100660008091BC0083FDD8CF85EC8093BC000E94B4
:100670001A026B017C0180916202813009F440C052
:1006800080913F028C1710F4C0913F02ECE1F2E040
:10069000A2E4B2E080E08C1355C08C2FDF91CF91A3
:1006A0001F910F91FF90EF90DF90CF900895809170
:1006B000640290916502A0916602B0916702892B55
:1006C0008A2B8B2B09F484CF0E941A0200916402BA
:1006D0001091650220916602309167026C197D09C4
:1006E0008E099F09061717072807390708F070CFEA
:1006F000809163020E94B602C0E0CFCF85EEB5CFF5
:100700008091640290916502A0916602B0916702A7
:10071000892B8A2B8B2B09F4AECF0E941A020091F1
:1007200064021091650220916602309167026C1993
:100730007D098E099F09061717072807390708F052
:100740009ACFD6CF91919D938F5FA5CF8F929F9295
:10075000AF92BF92CF92DF92EF92FF920F931F93CF
:10076000CF93DF93D0911B02D13208F0D7C0182F5E
:10077000C0911A020E941A026B017C0180916202F0
:1007800081116BC082E080936202109341028FEF6F
:100790008093400210923F02D0933E02AAEFB1E054
:1007A000ECE1F2E080E0D81391C010923D0280911C
:1007B0003D02CC0FC82BC0933D0280913C0281309A
:1007C00009F088C010923C020E941A026B017C0161
:1007D00080913D028093BB008091640290916502FC
:1007E000A0916602B0916702892B8A2B8B2BA1F016
:1007F0000E941A0200916402109165022091660223
:10080000309167026C197D098E099F090617170739
:100810002807390708F442C08091BC0083FDD8CF77
:1008200085EC8093BC000E941A026B017C018091D0
:100830006202823009F450C0809140028F3F09F477
:100840006FC080914002803209F46CC080914002F8
:10085000803309F469C084E026C0809164029091DD
:100860006502A0916602B0916702892B8A2B8B2BBF
:1008700009F484CF0E941A0280906402909065026D
:10088000A0906602B09067026C197D098E099F09DD
:1008900086169706A806B90608F070CF8091630205
:1008A0000E94B60285E01092F90110921B0210928C
:1008B000F801DF91CF911F910F91FF90EF90DF90A2
:1008C000CF90BF90AF909F908F9008959D919193FE
:1008D0008F5F69CF85EEA5CF80916402909165020C
:1008E000A0916602B0916702892B8A2B8B2B09F4A9
:1008F0009ECF0E941A02009164021091650220911D
:100900006602309167026C197D098E099F090617EE
:1009100017072807390708F08ACFC0CF81E0C3CF77
:1009200080E0C1CF82E0BFCF83E0BDCF0895E091EA
:10093000F6018091F501E81730F4F0E0EE5BFD4F31
:10094000808190E008958FEF9FEF08959091F601D8
:100950008091F5012FEF3FEF981748F4E92FF0E071
:10096000EE5BFD4F208130E09F5F9093F601C9015F
:100970000895CF92DF92EF92FF920F931F93CF9340
:10098000DF937C01CB018A012091F801222389F0B9
:10099000EB016B01C40ED51ECC15DD0569F0699124
:1009A000D701ED91FC910190F081E02DC7010995EF
:1009B000F3CF642F0E947102C801DF91CF911F9184
:1009C0000F91FF90EF90DF90CF900895CF93DF933A
:1009D0001F92CDB7DEB769832091F8012223F9F089
:1009E00020911B02203258F021E030E0FC013383DB
:1009F000228390E080E00F90DF91CF910895809165
:100A0000F901E82FF0E0E650FE4F998190838F5F67
:100A10008093F90180931B0281E090E0ECCF61E0CC
:100A2000CE0101960E947102F7CF90E080E0089518
:100A3000FC0101900020E9F73197AF01481B590BE9
:100A4000BC0188E692E00C9490008F929F92AF9246
:100A5000BF920F931F93CF93DF93CDB7DEB7A197CC
:100A60000FB6F894DEBF0FBECDBF19A2423008F416
:100A70004AE08E010F5D1F4F842E912CB12CA12CCA
:100A8000A50194010E941C0DE62FB901CA01EA30AC
:100A9000F4F4E05DD801EE938D01232B242B252B5C
:100AA00079F790E080E0109719F0CD010E941805C9
:100AB000A1960FB6F894DEBF0FBECDBFDF91CF91E8
:100AC0001F910F91BF90AF909F908F900895E95C18
:100AD000E1CFCF92DF92EF92FF92CF93DF936B0142
:100AE0007C016DE288E692E00E943001EC0166270D
:100AF0007727CB016C197D098E099F094AE00E9476
:100B000025058C0F9D1FDF91CF91FF90EF90DF9017
:100B1000CF9008954F925F926F927F928F929F92A3
:100B2000AF92BF92CF92DF92EF92FF920F931F93FB
:100B3000CF936B017C01742EAC019B010E94170DB9
:100B4000882399F080E591E0CF911F910F91FF905C
:100B5000EF90DF90CF90BF90AF909F908F907F905D
:100B60006F905F904F900C94180546015701E894E0
:100B7000B7F82FEF3FEF4FE75FE7C501B4010E94E1
:100B8000170D81110DC02FEF3FEF4FE75FE7C50154
:100B9000B4010E944D0B18161CF484E591E0D4CFEB
:100BA0002FEF3FEF4FE75FE4C701B6010E94A50CAE
:100BB00018161CF488E591E0C7CF2FEF3FEF4FE701
:100BC0005FECC701B6010E944D0B87FDF3CF20E01B
:100BD00030E0A901C701B6010E944D0B10E000E012
:100BE00087FF0AC06DE288E692E00E9430018C0126
:100BF000F7FAF094F7F8F094C0E060E070E080E07D
:100C00009FE37C1641F020E030E040E251E40E9496
:100C1000520BCF5FF6CFA70196010E94E10A2B018C
:100C20003C010E94C40B4B015C014AE00E94250577
:100C30007C01E00EF11ECC23C1F1C501B4010E947C
:100C4000F30B9B01AC01C301B2010E94E00A4B010E
:100C50005C016EE288E692E00E943001E80EF91E27
:100C6000C15018F120E030E040E251E4C501B40188
:100C70000E94AA0C2B013C010E94C40B4B01B12C19
:100C8000A12C4AE0C501B4010E942505E80EF91E19
:100C9000C501B4010E94F30B9B01AC01C301B20179
:100CA0000E94E00A4B015C01DBCFC701CF911F918D
:100CB0000F91FF90EF90DF90CF90BF90AF909F90FB
:100CC0008F907F906F905F904F90089585ED809307
:100CD000BC008091640290916502A0916602B0917F
:100CE00067020796A11DB11D23E0B695A7959795BC
:100CF00087952A95D1F72091BC0024FD03C010925E
:100D0000620208954091640250916502609166020A
:100D100070916702452B462B472B69F30097A1057D
:100D2000B10541F025E32A95F1F700000197A109EB
:100D3000B109E1CF809163020C94B6021F920F9229
:100D40000FB60F9211242F933F934F935F936F939E
:100D50007F938F939F93AF93BF93EF93FF9388E617
:100D600092E00E940E01FF91EF91BF91AF919F9190
:100D70008F917F916F915F914F913F912F910F9044
:100D80000FBE0F901F9018951F920F920FB60F92E3
:100D900011242F938F939F93EF93FF93E091780209
:100DA000F09179028081E0917E02F0917F0282FDD4
:100DB0001BC09081809181028F5F8F73209182028E
:100DC000821741F0E0918102F0E0E859FD4F958FE4
:100DD00080938102FF91EF919F918F912F910F90BE
:100DE0000FBE0F901F9018958081F4CF1F920F9225
:100DF0000FB60F9211242F933F938F939F93AF932E
:100E0000BF938091E9019091EA01A091EB01B0912B
:100E1000EC013091E80123E0230F2D3758F50196BE
:100E2000A11DB11D2093E8018093E9019093EA018F
:100E3000A093EB01B093EC018091ED019091EE0154
:100E4000A091EF01B091F0010196A11DB11D809319
:100E5000ED019093EE01A093EF01B093F001BF91EB
:100E6000AF919F918F913F912F910F900FBE0F9057
:100E70001F90189526E8230F0296A11DB11DD2CF11
:100E80001F920F920FB60F9211242F933F934F93FF
:100E90005F936F937F938F939F93AF93BF93EF93E2
:100EA000FF938091B900887F803609F44AC0F0F53D
:100EB000883209F4A7C018F5803109F49BC0B8F452
:100EC000882309F4F9C0883009F494C0FF91EF91A8
:100ED000BF91AF919F918F917F916F915F914F9152
:100EE0003F912F910F900FBE0F901F901895883152
:100EF00009F488C0803251F78093400214C08034D6
:100F000009F49DC040F48033B9F38833F9F6809337
:100F1000400285ECB0C0803509F485C0883509F4FD
:100F200096C0883499F60E946606D0CF883909F4B5
:100F30008CC038F5883729F050F4883611F08037A6
:100F400029F683E0809362021092E70157C0883847
:100F500009F47BC0803919F0803809F0B7CF80914F
:100F6000E701803208F071C0E091E70181E08E0F67
:100F70008093E7018091BB00F0E0E953FE4F80834E
:100F80003DC0803B39F0E0F4803A09F479C0883AFA
:100F900009F09CCF84E0809362021092C601109207
:100FA000C501E091F301F091F40109958091C5012B
:100FB00081110FC081E08093C5011092A50109C085
:100FC000803C09F4A6CF883C09F4A3CF883B09F004
:100FD0007DCFE091C60181E08E0F8093C601F0E0E5
:100FE000EB55FE4F80818093BB009091C6018091AC
:100FF000C50129C080913D028093BB0085EC8093A0
:10100000BC0064CF90913F0280913E02981758F542
:10101000E0913F0281E08E0F80933F02F0E0E45EBA
:10102000FD4F8081E9CFE0913F0281E08E0F8093F8
:101030003F028091BB00F0E0E45EFD4F8083909121
:101040003F0280913E029817C8F285E8D8CFE09120
:101050003F0281E08E0F80933F028091BB00F0E061
:10106000E45EFD4F80838091410281115CCF81E07D
:1010700080933C0284EA8093BC001092620226CFE7
:1010800085EC8093BC00109262028091E70180326F
:1010900030F4E091E701F0E0E953FE4F10826091F7
:1010A000E70170E0E091F101F091F20187EC91E04D
:1010B00009951092E7010ACF1092400234CFE8E67A
:1010C000F2E01382128248EE53E060E070E0448365
:1010D00055836683778380E391E09183808385ECF9
:1010E00090E09587848784EC90E09787868780ECF2
:1010F00090E0918B808B81EC90E0938B828B82ECE3
:1011000090E0958B848B86EC90E0978B868B118E8C
:10111000128E138E148E10921603109215038CE00B
:101120008093140310921303E5E0F3E0138212821C
:10113000448355836683778322E431E031832083BF
:1011400098E6909317038093120310921103089569
:10115000CF93DF9300D000D0CDB7DEB7789484B5BD
:10116000826084BD84B5816084BD85B5826085BDA3
:1011700085B5816085BD80916E00816080936E0031
:101180001092810080918100826080938100809123
:1011900081008160809381008091800081608093D4
:1011A00080008091B10084608093B1008091B00094
:1011B00081608093B00080917A00846080937A008F
:1011C00080917A00826080937A0080917A008160B9
:1011D00080937A0080917A00806880937A001092E0
:1011E000C100E0917802F091790282E08083E09181
:1011F0007402F09175021082E0917602F09177020C
:101200008FEC808310928002E0917C02F0917D024D
:1012100086E08083E0917A02F0917B028081806198
:101220008083E0917A02F0917B02808188608083E4
:10123000E0917A02F0917B02808180688083E09166
:101240007A02F0917B0280818F7D80831092F6017B
:101250001092F5011092F90110921B020E9498025F
:101260008EE890E09093F4018093F3018FE890E092
:101270009093F2018093F10161E089E00E94E9011D
:1012800061E089E00E949D0161E08DE00E94E9013A
:1012900060E0809100010E94E90181E090E090937C
:1012A00001018093000161E090E080E00E94D20A99
:1012B00090E080E00E94CA0A182F4AE060E070E0E7
:1012C000CB010E9425058CE591E00E941805612F55
:1012D00070E090E080E04AE00E9425058EE591E014
:1012E0000E94180511E01093F80110921A02109252
:1012F000F90110921B0266E085E093E00E94E6048B
:1013000081E00E94A60361E070E080E090E00E942E
:101310003F0261E088E60E94D7021092F6018093B6
:10132000F501811110C081E691E00E94180540E1AD
:1013300068E670E080E090E00E9425058EE591E08F
:101340000E941805FFCF1093F701EE24E394F12CCF
:101350008E010F5F1F4F5E0185E0A80EB11C60E09B
:10136000C62E60E0D62E99249394F0920101E0926B
:1013700000018091F701882379F18DE791E00E94C7
:1013800018058EE591E00E94180580911703909250
:10139000F80180931A021092F90110921B026091D9
:1013A0001203606885E093E00E94E60481E00E94F9
:1013B000A603882379F085E891E00E9418054AE0A9
:1013C00061E070E080E090E00E9425058EE591E00C
:1013D0000E9418051092F70119821A821B821C8242
:1013E00064E0809117030E94D7021092F601809367
:1013F000F501843009F0B1C0380185E093E00E9426
:10140000A604F30181933F01EA15FB05B1F78C8136
:10141000982F9C709C3009F0B2C08093110323E098
:101420008091110387FD99C08C7090E09595879508
:10143000FC01EE0FFF1FDF01A80FB91FA95EBE4F11
:101440004D915D916C91062E000C770BD801412CCB
:10145000512C32013D91762C652C542C4424432A86
:101460003A2F301B3217B0F34421552166217721E2
:10147000452B462B472B71F0E80FF91FEE5FFE4F0F
:1014800080819181A2810A2E000CBB0B482A592A27
:101490006A2A7B2A8091110387FD5FC085E991E06C
:1014A0000E94180577FE70C0C301B2010E94690551
:1014B0008EE591E00E941805C301B2010E94F50B70
:1014C0002B013C018DE991E00E94180520E030E0FD
:1014D00048EC56E4C301B2010E94E00A20E83FEF65
:1014E00047EC57E40E94520B20E83FE443EC57E4FA
:1014F0000E94AA0C20E030E0A9010E94E10A42E02B
:101500000E948A058EE591E00E9418059092F701ED
:101510002FE632E143E85AE3C301B2010E94AA0C6C
:1015200020E030E040E85CE30E94AA0C20E030E0DC
:1015300040E05FE30E94AA0C9B01AC010E94E10A1B
:1015400020E030E04AE754E40E94AA0C42E00E9406
:101550008A058EE591E00E94180560ED77E080E055
:1015600090E00E943F02C114D10409F4FECE0E9413
:10157000FA00882309F4F9CE0E940000F6CE8B8190
:101580008093110322E04CCF4AE0C301B2010E94D4
:1015900025058ECFF999FECF92BD81BDF89A992786
:1015A00080B50895262FF999FECF1FBA92BD81BD4F
:1015B00020BD0FB6F894FA9AF99A0FBE01960895D5
:1015C0005058BB27AA270E94F80A0C946B0C0E9463
:1015D0005D0C38F00E94640C20F039F49F3F19F440
:1015E00026F40C945A0C0EF4E095E7FB0C94540C82
:1015F000E92F0E947C0C58F3BA176207730784071F
:10160000950720F079F4A6F50C949E0C0EF4E09565
:101610000B2EBA2FA02D0B01B90190010C01CA01AC
:10162000A0011124FF27591B99F0593F50F4503E57
:1016300068F11A16F040A22F232F342F4427585F49
:10164000F3CF469537952795A795F0405395C9F761
:101650007EF41F16BA0B620B730B840BBAF0915019
:10166000A1F0FF0FBB1F661F771F881FC2F70EC0B8
:10167000BA0F621F731F841F48F48795779567958B
:10168000B795F7959E3F08F0B0CF9395880F08F077
:101690009927EE0F9795879508950E94300C08F4CE
:1016A00081E008950E94660B0C946B0C0E94640C00
:1016B00058F00E945D0C40F029F45F3F29F00C9433
:1016C000540C51110C949F0C0C945A0C0E947C0CDD
:1016D00068F39923B1F3552391F3951B550BBB2761
:1016E000AA2762177307840738F09F5F5F4F220FA6
:1016F000331F441FAA1FA9F335D00E2E3AF0E0E89D
:1017000032D091505040E695001CCAF72BD0FE2FE6
:1017100029D0660F771F881FBB1F2617370748077A
:10172000AB07B0E809F0BB0B802DBF01FF27935832
:101730005F4F3AF09E3F510578F00C94540C0C9496
:101740009F0C5F3FE4F3983ED4F3869577956795B9
:10175000B795F7959F5FC9F7880F911D9695879567
:1017600097F90895E1E0660F771F881FBB1F621786
:1017700073078407BA0720F0621B730B840BBA0B44
:10178000EE1F88F7E09508950E94840C88F09F571B
:1017900098F0B92F9927B751B0F0E1F0660F771F95
:1017A000881F991F1AF0BA95C9F714C0B13091F08B
:1017B0000E949E0CB1E008950C949E0C672F782F28
:1017C0008827B85F39F0B93FCCF386957795679550
:1017D000B395D9F73EF490958095709561957F4FBC
:1017E0008F4F9F4F0895E89409C097FB3EF4909562
:1017F0008095709561957F4F8F4F9F4F9923A9F0EA
:10180000F92F96E9BB279395F69587957795679578
:10181000B795F111F8CFFAF4BB0F11F460FF1BC0BC
:101820006F5F7F4F8F4F9F4F16C0882311F096E94F
:1018300011C0772321F09EE8872F762F05C06623FD
:1018400071F096E8862F70E060E02AF09A95660FB6
:10185000771F881FDAF7880F9695879597F908956F
:10186000990F0008550FAA0BE0E8FEEF16161706B1
:10187000E807F907C0F012161306E407F50798F019
:10188000621B730B840B950B39F40A2661F0232B32
:10189000242B252B21F408950A2609F4A140A695AE
:1018A0008FEF811D811D089597F99F6780E870E093
:1018B00060E008959FEF80EC089500240A941616C6
:1018C000170618060906089500240A94121613062E
:1018D000140605060895092E0394000C11F48823BC
:1018E00052F0BB0F40F4BF2B11F460FF04C06F5FD8
:1018F0007F4F8F4F9F4F089557FD9058440F551FAE
:1019000059F05F3F71F04795880F97FB991F61F081
:101910009F3F79F087950895121613061406551FF8
:10192000F2CF4695F1DF08C0161617061806991F64
:10193000F1CF86957105610508940895E894BB2759
:1019400066277727CB0197F908950E94300C08F499
:101950008FEF08950E94BD0C0C946B0C0E945D0CDF
:1019600038F00E94640C20F0952311F00C94540C74
:101970000C945A0C11240C949F0C0E947C0C70F354
:10198000959FC1F3950F50E0551F629FF001729F24
:10199000BB27F00DB11D639FAA27F00DB11DAA1F33
:1019A000649F6627B00DA11D661F829F2227B00D80
:1019B000A11D621F739FB00DA11D621F839FA00D0B
:1019C000611D221F749F3327A00D611D231F849F5B
:1019D000600D211D822F762F6A2F11249F575040B2
:1019E0009AF0F1F088234AF0EE0FFF1FBB1F661F2D
:1019F000771F881F91505040A9F79E3F510580F0F6
:101A00000C94540C0C949F0C5F3FE4F3983ED4F379
:101A1000869577956795B795F795E7959F5FC1F799
:101A2000FE2B880F911D9695879597F908950E9432
:101A3000300C880B990B0895A1E21A2EAA1BBB1B30
:101A4000FD010DC0AA1FBB1FEE1FFF1FA217B3078A
:101A5000E407F50720F0A21BB30BE40BF50B661FA0
:101A6000771F881F991F1A9469F760957095809564
:101A700090959B01AC01BD01CF010895EE0FFF1FB2
:0C1A80000590F491E02D0994F894FFCF3C
:101A8C00020000F0FF00000000C0FF00000000009A
:101A9C00FF0000000000FC00080000000000200017
:101AAC0000000000800000000000000200000000A8
:101ABC0030019000BD007D01EE00CC00E000000084
:101ACC000000E604B904150596048700A6049704E3
:101ADC006E616E00696E66006F76660009000D0A15
:101AEC00004E6F2064657669636520666F756E6461
:101AFC0020617420616464726573732000436F6E9F
:101B0C007665727400436F6E7665727420657272BE
:101B1C006F723A200056616C75653A2000414E5345
:041B2C00203A00005B
:00000001FF
