:100000000C945D000C9485000C9485000C94850084
:100010000C9485000C9485000C9485000C9485004C
:100020000C9485000C9485000C9485000C9485003C
:100030000C9485000C9485000C9485000C9485002C
:100040000C94F6060C9485000C94C4060C949E0641
:100050000C9485000C9485000C9485000C9485000C
:100060000C9440070C948500000000002400270039
:100070002A0000000000250028002B0004040404CE
:100080000404040402020202020203030303030342
:10009000010204081020408001020408102001021F
:1000A00004081020000000080002010000030407FB
:1000B00000000000000000005F0811241FBECFEF09
:1000C000D8E0DEBFCDBF11E0A0E0B1E0ECE9FAE19D
:1000D00002C005900D92A63AB107D9F723E0A6EA2F
:1000E000B1E001C01D92AA31B207E1F710E0CDE501
:1000F000D0E004C02197FE010E94460DCC35D10707
:10010000C9F70E94A8080C944C0D0C940000809133
:10011000F7019091F801891B990B089508950895AE
:10012000AF92BF92CF92DF92EF92FF920F931F9305
:10013000CF93DF936C017B018B01040F151FEB0143
:100140005E01AE18BF08C017D10759F06991D601FA
:10015000ED91FC910190F081E02DC6010995892B6C
:1001600079F7C501DF91CF911F910F91FF90EF902B
:10017000DF90CF90BF90AF900895FC01538D448DD8
:10018000252F30E0842F90E0821B930B541710F042
:10019000CF96089501970895FC01918D828D98174F
:1001A00061F0A28DAE0FBF2FB11D5D968C91928D27
:1001B0009F5F9F73928F90E008958FEF9FEF089558
:1001C000FC01918D828D981731F0828DE80FF11D21
:1001D000858D90E008958FEF9FEF0895FC01918D3C
:1001E000228D892F90E0805C9F4F821B91098F7335
:1001F000992708958AE692E00E94EE0021E0892B7B
:1002000009F420E0822F089580E090E0892B29F006
:100210000E94FA0081110C9400000895FC01A48D45
:10022000A80FB92FB11DA35ABF4F2C91848D90E018
:1002300001968F739927848FA689B7892C93A089FB
:10024000B1898C91837080648C93938D848D981385
:1002500006C00288F389E02D80818F7D8083089518
:10026000EF92FF920F931F93CF93DF93EC0181E006
:10027000888F9B8D8C8D98131AC0E889F9898081AD
:1002800085FF15C09FB7F894EE89FF896083E889E0
:10029000F98980818370806480839FBF81E090E0D2
:1002A000DF91CF911F910F91FF90EF900895F62E5F
:1002B0000B8D10E00F5F1F4F0F731127E02E8C8DF9
:1002C0008E110CC00FB607FCFACFE889F98980813E
:1002D00085FFF5CFCE010E940E01F1CFEB8DEC0F23
:1002E000FD2FF11DE35AFF4FF0829FB7F8940B8F5B
:1002F000EA89FB8980818062CFCFCF93DF93EC01C5
:10030000888D8823B9F0AA89BB89E889F9898C91FD
:1003100085FD03C0808186FD0DC00FB607FCF7CFB9
:100320008C9185FFF2CF808185FFEDCFCE010E94B9
:100330000E01E9CFDF91CF91089590E0FC01EC55DB
:10034000FF4F2491FC01E057FF4F3491FC01E4582A
:10035000FF4FE491EE23C9F0222339F0233001F15D
:10036000A8F4213019F1223029F1F0E0EE0FFF1F3F
:10037000EE58FF4FA591B4918FB7F894EC916111AD
:1003800026C030953E233C938FBF08952730A9F0B7
:100390002830C9F0243049F7809180008F7D03C058
:1003A000809180008F7780938000DFCF84B58F7736
:1003B00084BDDBCF84B58F7DFBCF8091B0008F777C
:1003C0008093B000D2CF8091B0008F7DF9CF3E2BCB
:1003D000DACFCF93DF9390E0FC01E057FF4F2491F9
:1003E00084589F4FFC0184918823D1F090E0880FBE
:1003F000991FFC01E859FF4FA591B491FC01EE58FB
:10040000FF4FC591D49161110EC09FB7F8948C91A4
:10041000E22FE0958E238C932881E223E8839FBF0F
:10042000DF91CF9108958FB7F894EC91E22BEC9384
:100430008FBFF6CF3FB7F8948091EF019091F00114
:10044000A091F101B091F20126B5A89B05C02F3F04
:1004500019F00196A11DB11D3FBFBA2FA92F982FEA
:100460008827BC01CD01620F711D811D911D42E0E5
:10047000660F771F881F991F4A95D1F708958F92AD
:100480009F92AF92BF92CF92DF92EF92FF924B0179
:100490005C010E941A026B017C010E941A026C1915
:1004A0007D098E099F09683E734081059105A8F377
:1004B00021E0821A9108A108B10888EEC80E83E0F5
:1004C000D81EE11CF11C81149104A104B10429F788
:1004D000FF90EF90DF90CF90BF90AF909F908F9064
:1004E00008952091C701260F3327331F213231058C
:1004F000ECF420916402FC0190E080E0243069F08B
:1005000082E00895A091C7012191AC0149555E4F49
:10051000A40FB52FB11D2C930196861798F38091E7
:10052000C701680F6093C70180E0089581E00895D6
:100530001092640281E08093430210923E0261E0D7
:1005400082E10E949D0161E083E10E949D01E9EB4F
:10055000F0E080818E7F808380818D7F808388E43E
:100560008093B80085E48093BC000895CF93DF9317
:1005700091E09093A6018823B9F0C091B800D09182
:10058000BA008091BC008A7B8093BC0060E082E16D
:100590000E949D0160E083E10E949D010E949802FB
:1005A000D093BA00C093B800DF91CF910895CF9255
:1005B000DF92EF92FF920F931F93CF93DF93D82F89
:1005C000C62F613208F098C00E941A026B017C01AC
:1005D0008091640281116BC081E0809364028093FA
:1005E00043029FEF90934202109241029C0F90931E
:1005F000400280933F0280913F02DD0FD82BD093C1
:100600003F0280913E02813009F078C010923E0294
:100610000E941A026B017C0180913F028093BB0013
:100620008091660290916702A0916802B091690280
:10063000892B8A2B8B2BA1F00E941A020091660253
:100640001091670220916802309169026C197D094E
:100650008E099F09061717072807390708F448C0AD
:100660008091BC0083FDD8CF85EC8093BC000E94B4
:100670001A026B017C0180916402813009F440C050
:10068000809141028C1710F4C0914102EEE1F2E03A
:10069000A4E4B2E080E08C1355C08C2FDF91CF91A1
:1006A0001F910F91FF90EF90DF90CF900895809170
:1006B000660290916702A0916802B0916902892B4D
:1006C0008A2B8B2B09F484CF0E941A0200916602B8
:1006D0001091670220916802309169026C197D09BE
:1006E0008E099F09061717072807390708F070CFEA
:1006F000809165020E94B602C0E0CFCF85EEB5CFF3
:100700008091660290916702A0916802B09169029F
:10071000892B8A2B8B2B09F4AECF0E941A020091F1
:1007200066021091670220916802309169026C198B
:100730007D098E099F09061717072807390708F052
:100740009ACFD6CF91919D938F5FA5CF8F929F9295
:10075000AF92BF92CF92DF92EF92FF920F931F93CF
:10076000CF93DF93D0911D02D13208F0D7C0182F5C
:10077000C0911C020E941A026B017C0180916402EC
:1007800081116BC082E080936402109343028FEF6B
:100790008093420210924102D0934002ACEFB1E04C
:1007A000EEE1F2E080E0D81391C010923F02809118
:1007B0003F02CC0FC82BC0933F0280913E02813094
:1007C00009F088C010923E020E941A026B017C015F
:1007D00080913F028093BB008091660290916702F6
:1007E000A0916802B0916902892B8A2B8B2BA1F012
:1007F0000E941A020091660210916702209168021D
:10080000309169026C197D098E099F090617170737
:100810002807390708F442C08091BC0083FDD8CF77
:1008200085EC8093BC000E941A026B017C018091D0
:100830006402823009F450C0809142028F3F09F473
:100840006FC080914202803209F46CC080914202F4
:10085000803309F469C084E026C0809166029091DB
:100860006702A0916802B0916902892B8A2B8B2BB9
:1008700009F484CF0E941A02809066029090670269
:10088000A0906802B09069026C197D098E099F09D9
:1008900086169706A806B90608F070CF8091650203
:1008A0000E94B60285E01092FB0110921D02109288
:1008B000FA01DF91CF911F910F91FF90EF90DF90A0
:1008C000CF90BF90AF909F908F9008959D919193FE
:1008D0008F5F69CF85EEA5CF809166029091670208
:1008E000A0916802B0916902892B8A2B8B2B09F4A5
:1008F0009ECF0E941A020091660210916702209119
:100900006802309169026C197D098E099F090617EA
:1009100017072807390708F08ACFC0CF81E0C3CF77
:1009200080E0C1CF82E0BFCF83E0BDCF0895E091EA
:10093000F8018091F701E81730F4F0E0EC5BFD4F2F
:10094000808190E008958FEF9FEF08959091F801D6
:100950008091F7012FEF3FEF981748F4E92FF0E06F
:10096000EC5BFD4F208130E09F5F9093F801C9015F
:100970000895CF92DF92EF92FF920F931F93CF9340
:10098000DF937C01CB018A012091FA01222389F0B7
:10099000EB016B01C40ED51ECC15DD0569F0699124
:1009A000D701ED91FC910190F081E02DC7010995EF
:1009B000F3CF642F0E947102C801DF91CF911F9184
:1009C0000F91FF90EF90DF90CF900895CF93DF933A
:1009D0001F92CDB7DEB769832091FA012223F9F087
:1009E00020911D02203258F021E030E0FC013383D9
:1009F000228390E080E00F90DF91CF910895809165
:100A0000FB01E82FF0E0E450FE4F998190838F5F67
:100A10008093FB0180931D0281E090E0ECCF61E0C8
:100A2000CE0101960E947102F7CF90E080E0089518
:100A3000FC0101900020E9F73197AF01481B590BE9
:100A4000BC018AE692E00C9490008F929F92AF9244
:100A5000BF920F931F93CF93DF93CDB7DEB7A197CC
:100A60000FB6F894DEBF0FBECDBF19A2423008F416
:100A70004AE08E010F5D1F4F842E912CB12CA12CCA
:100A8000A50194010E94240DE62FB901CA01EA30A4
:100A9000F4F4E05DD801EE938D01232B242B252B5C
:100AA00079F790E080E0109719F0CD010E941805C9
:100AB000A1960FB6F894DEBF0FBECDBFDF91CF91E8
:100AC0001F910F91BF90AF909F908F900895E95C18
:100AD000E1CFCF92DF92EF92FF92CF93DF936B0142
:100AE0007C016DE28AE692E00E943001EC0166270B
:100AF0007727CB016C197D098E099F094AE00E9476
:100B000025058C0F9D1FDF91CF91FF90EF90DF9017
:100B1000CF9008954F925F926F927F928F929F92A3
:100B2000AF92BF92CF92DF92EF92FF920F931F93FB
:100B3000CF936B017C01742EAC019B010E941F0DB1
:100B4000882399F080E591E0CF911F910F91FF905C
:100B5000EF90DF90CF90BF90AF909F908F907F905D
:100B60006F905F904F900C94180546015701E894E0
:100B7000B7F82FEF3FEF4FE75FE7C501B4010E94E1
:100B80001F0D81110DC02FEF3FEF4FE75FE7C5014C
:100B9000B4010E94550B18161CF484E591E0D4CFE3
:100BA0002FEF3FEF4FE75FE4C701B6010E94AD0CA6
:100BB00018161CF488E591E0C7CF2FEF3FEF4FE701
:100BC0005FECC701B6010E94550B87FDF3CF20E013
:100BD00030E0A901C701B6010E94550B10E000E00A
:100BE00087FF0AC06DE28AE692E00E9430018C0124
:100BF000F7FAF094F7F8F094C0E060E070E080E07D
:100C00009FE37C1641F020E030E040E251E40E9496
:100C10005A0BCF5FF6CFA70196010E94E90A2B017C
:100C20003C010E94CC0B4B015C014AE00E9425056F
:100C30007C01E00EF11ECC23C1F1C501B4010E947C
:100C4000FB0B9B01AC01C301B2010E94E80A4B01FE
:100C50005C016EE28AE692E00E943001E80EF91E25
:100C6000C15018F120E030E040E251E4C501B40188
:100C70000E94B20C2B013C010E94CC0B4B01B12C09
:100C8000A12C4AE0C501B4010E942505E80EF91E19
:100C9000C501B4010E94FB0B9B01AC01C301B20171
:100CA0000E94E80A4B015C01DBCFC701CF911F9185
:100CB0000F91FF90EF90DF90CF90BF90AF909F90FB
:100CC0008F907F906F905F904F90089585ED809307
:100CD000BC008091660290916702A0916802B09179
:100CE00069020796A11DB11D23E0B695A7959795BA
:100CF00087952A95D1F72091BC0024FD03C010925E
:100D00006402089540916602509167026091680202
:100D100070916902452B462B472B69F30097A1057B
:100D2000B10541F025E32A95F1F700000197A109EB
:100D3000B109E1CF809165020C94B6021F920F9227
:100D40000FB60F9211242F933F934F935F936F939E
:100D50007F938F939F93AF93BF93EF93FF938AE615
:100D600092E00E940E01FF91EF91BF91AF919F9190
:100D70008F917F916F915F914F913F912F910F9044
:100D80000FBE0F901F9018951F920F920FB60F92E3
:100D900011242F938F939F93EF93FF93E0917A0207
:100DA000F0917B028081E0918002F091810282FDCE
:100DB0001BC09081809183028F5F8F73209184028A
:100DC000821741F0E0918302F0E0E659FD4F958FE4
:100DD00080938302FF91EF919F918F912F910F90BC
:100DE0000FBE0F901F9018958081F4CF1F920F9225
:100DF0000FB60F9211242F933F938F939F93AF932E
:100E0000BF938091EB019091EC01A091ED01B09125
:100E1000EE013091EA0123E0230F2D3758F50196BA
:100E2000A11DB11D2093EA018093EB019093EC0189
:100E3000A093ED01B093EE018091EF019091F0014C
:100E4000A091F101B091F2010196A11DB11D809315
:100E5000EF019093F001A093F101B093F201BF91E3
:100E6000AF919F918F913F912F910F900FBE0F9057
:100E70001F90189526E8230F0296A11DB11DD2CF11
:100E80001F920F920FB60F9211242F933F934F93FF
:100E90005F936F937F938F939F93AF93BF93EF93E2
:100EA000FF938091B900887F803609F44AC0F0F53D
:100EB000883209F4A7C018F5803109F49BC0B8F452
:100EC000882309F4F9C0883009F494C0FF91EF91A8
:100ED000BF91AF919F918F917F916F915F914F9152
:100EE0003F912F910F900FBE0F901F901895883152
:100EF00009F488C0803251F78093420214C08034D4
:100F000009F49DC040F48033B9F38833F9F6809337
:100F1000420285ECB0C0803509F485C0883509F4FB
:100F200096C0883499F60E946606D0CF883909F4B5
:100F30008CC038F5883729F050F4883611F08037A6
:100F400029F683E0809364021092E90157C0883843
:100F500009F47BC0803919F0803809F0B7CF80914F
:100F6000E901803208F071C0E091E90181E08E0F63
:100F70008093E9018091BB00F0E0E753FE4F80834E
:100F80003DC0803B39F0E0F4803A09F479C0883AFA
:100F900009F09CCF84E0809364021092C801109203
:100FA000C701E091F501F091F60109958091C70123
:100FB00081110FC081E08093C7011092A70109C081
:100FC000803C09F4A6CF883C09F4A3CF883B09F004
:100FD0007DCFE091C80181E08E0F8093C801F0E0E1
:100FE000E955FE4F80818093BB009091C8018091AC
:100FF000C70129C080913F028093BB0085EC80939C
:10100000BC0064CF9091410280914002981758F53E
:10101000E091410281E08E0F80934102F0E0E25EB8
:10102000FD4F8081E9CFE091410281E08E0F8093F6
:1010300041028091BB00F0E0E25EFD4F8083909121
:101040004102809140029817C8F285E8D8CFE0911C
:10105000410281E08E0F809341028091BB00F0E05D
:10106000E25EFD4F80838091430281115CCF81E07D
:1010700080933E0284EA8093BC001092640226CFE3
:1010800085EC8093BC00109264028091E90180326B
:1010900030F4E091E901F0E0E753FE4F10826091F7
:1010A000E90170E0E091F301F091F40189EC91E045
:1010B00009951092E9010ACF1092420234CFEAE674
:1010C000F2E01382128248EE53E060E070E0448365
:1010D00055836683778380E391E09183808385ECF9
:1010E00090E09587848784EC90E09787868780ECF2
:1010F00090E0918B808B81EC90E0938B828B82ECE3
:1011000090E0958B848B86EC90E0978B868B118E8C
:10111000128E138E148E10921803109217038CE007
:101120008093160310921503E7E0F3E01382128216
:10113000448355836683778322E431E031832083BF
:1011400098E6909319038093140310921303089563
:10115000CF93DF9300D000D0CDB7DEB7789484B5BD
:10116000826084BD84B5816084BD85B5826085BDA3
:1011700085B5816085BD80916E00816080936E0031
:101180001092810080918100826080938100809123
:1011900081008160809381008091800081608093D4
:1011A00080008091B10084608093B1008091B00094
:1011B00081608093B00080917A00846080937A008F
:1011C00080917A00826080937A0080917A008160B9
:1011D00080937A0080917A00806880937A001092E0
:1011E000C100E0917A02F0917B0282E08083E0917D
:1011F0007602F09177021082E0917802F091790204
:101200008FEC808310928202E0917E02F0917F0247
:1012100086E08083E0917C02F0917D028081806194
:101220008083E0917C02F0917D02808188608083E0
:10123000E0917C02F0917D02808180688083E09162
:101240007C02F0917D0280818F7D80831092F80175
:101250001092F7011092FB0110921D020E94980259
:101260008EE890E09093F6018093F5018FE890E08E
:101270009093F4018093F30161E089E00E94E90119
:1012800061E089E00E949D0161E08DE00E94E9013A
:1012900060E0809100010E94E90181E090E090937C
:1012A00001018093000161E090E080E00E94DA0A91
:1012B00090E080E00E94D20A182F4AE060E070E0DF
:1012C000CB010E9425058CE591E00E941805612F55
:1012D00070E090E080E04AE00E9425058EE591E014
:1012E0000E94180511E01093FA0110921C0210924E
:1012F000FB0110921D0266E087E093E00E94E60485
:1013000081E00E94A60361E070E080E090E00E942E
:101310003F0261E088E60E94D7021092F8018093B4
:10132000F701811110C081E691E00E94180540E1AB
:1013300068E670E080E090E00E9425058EE591E08F
:101340000E941805FFCF1093F901EE24E394F12CCD
:101350008E010F5F1F4F5E0185E0A80EB11C60E09B
:10136000C62E60E0D62E99249394F0920101E0926B
:1013700000018091F901882379F18DE791E00E94C5
:1013800018058EE591E00E9418058091190390924E
:10139000FA0180931C021092FB0110921D026091D1
:1013A0001403606887E093E00E94E60481E00E94F5
:1013B000A603882379F085E891E00E9418054AE0A9
:1013C00061E070E080E090E00E9425058EE591E00C
:1013D0000E9418051092F90119821A821B821C8240
:1013E00064E0809119030E94D7021092F801809363
:1013F000F701843009F0B9C0380187E093E00E941A
:10140000A604F30181933F01EA15FB05B1F78C8136
:10141000982F9C709C3009F0BAC08093130323E08E
:101420008091130387FDA1C08C7090E095958795FE
:10143000FC01EE0FFF1FDF01A80FB91FA95EBE4F11
:101440004D915D916C91062E000C770BD801412CCB
:10145000512C32013D91762C652C542C4424432A86
:101460003A2F301B3217B0F34421552166217721E2
:10147000452B462B472B71F0E80FF91FEE5FFE4F0F
:1014800080819181A2810A2E000CBB0B482A592A27
:101490006A2A7B2A8091130387FD67C085E991E062
:1014A0000E94180577FE78C0C301B2010E94690549
:1014B0008EE591E00E941805C301B2010E94FD0B68
:1014C0002B013C018DE991E00E94180520E030E0FD
:1014D00048EC56E4C301B2010E94E80A20E83FEF5D
:1014E00047EC57E40E945A0B20E83FE443EC57E4F2
:1014F0000E94B20C20E030E0A9010E94E90A42E01B
:101500000E948A058EE591E00E9418059092F901EB
:101510002FE632E143E85AE3C301B2010E94B20C64
:1015200020E030E040E85CE30E94B20C20E030E0D4
:1015300040E05FE30E94B20C9B01AC010E94E90A0B
:101540002B013C0183EA91E00E94180520E030E085
:101550004AE754E4C301B2010E94B20C42E00E9487
:101560008A058EE591E00E94180568EE73E080E040
:1015700090E00E943F02C114D10409F4F6CE0E940B
:10158000FA00882309F4F1CE0E940000EECE8B8190
:101590008093130322E044CF4AE0C301B2010E94CA
:1015A000250586CFF999FECF92BD81BDF89A99277E
:1015B00080B50895262FF999FECF1FBA92BD81BD3F
:1015C00020BD0FB6F894FA9AF99A0FBE01960895C5
:1015D0005058BB27AA270E94000B0C94730C0E9442
:1015E000650C38F00E946C0C20F039F49F3F19F420
:1015F00026F40C94620C0EF4E095E7FB0C945C0C62
:10160000E92F0E94840C58F3BA1762077307840706
:10161000950720F079F4A6F50C94A60C0EF4E0954D
:101620000B2EBA2FA02D0B01B90190010C01CA019C
:10163000A0011124FF27591B99F0593F50F4503E47
:1016400068F11A16F040A22F232F342F4427585F39
:10165000F3CF469537952795A795F0405395C9F751
:101660007EF41F16BA0B620B730B840BBAF0915009
:10167000A1F0FF0FBB1F661F771F881FC2F70EC0A8
:10168000BA0F621F731F841F48F48795779567957B
:10169000B795F7959E3F08F0B0CF9395880F08F067
:1016A0009927EE0F9795879508950E94380C08F4B6
:1016B00081E008950E946E0B0C94730C0E946C0CD8
:1016C00058F00E94650C40F029F45F3F29F00C941B
:1016D0005C0C51110C94A70C0C94620C0E94840CAD
:1016E00068F39923B1F3552391F3951B550BBB2751
:1016F000AA2762177307840738F09F5F5F4F220F96
:10170000331F441FAA1FA9F335D00E2E3AF0E0E88C
:1017100032D091505040E695001CCAF72BD0FE2FD6
:1017200029D0660F771F881FBB1F2617370748076A
:10173000AB07B0E809F0BB0B802DBF01FF27935822
:101740005F4F3AF09E3F510578F00C945C0C0C947E
:10175000A70C5F3FE4F3983ED4F3869577956795A1
:10176000B795F7959F5FC9F7880F911D9695879557
:1017700097F90895E1E0660F771F881FBB1F621776
:1017800073078407BA0720F0621B730B840BBA0B34
:10179000EE1F88F7E09508950E948C0C88F09F5703
:1017A00098F0B92F9927B751B0F0E1F0660F771F85
:1017B000881F991F1AF0BA95C9F714C0B13091F07B
:1017C0000E94A60CB1E008950C94A60C672F782F08
:1017D0008827B85F39F0B93FCCF386957795679540
:1017E000B395D9F73EF490958095709561957F4FAC
:1017F0008F4F9F4F0895E89409C097FB3EF4909552
:101800008095709561957F4F8F4F9F4F9923A9F0D9
:10181000F92F96E9BB279395F69587957795679568
:10182000B795F111F8CFFAF4BB0F11F460FF1BC0AC
:101830006F5F7F4F8F4F9F4F16C0882311F096E93F
:1018400011C0772321F09EE8872F762F05C06623ED
:1018500071F096E8862F70E060E02AF09A95660FA6
:10186000771F881FDAF7880F9695879597F908955F
:10187000990F0008550FAA0BE0E8FEEF16161706A1
:10188000E807F907C0F012161306E407F50798F009
:10189000621B730B840B950B39F40A2661F0232B22
:1018A000242B252B21F408950A2609F4A140A6959E
:1018B0008FEF811D811D089597F99F6780E870E083
:1018C00060E008959FEF80EC089500240A941616B6
:1018D000170618060906089500240A94121613061E
:1018E000140605060895092E0394000C11F48823AC
:1018F00052F0BB0F40F4BF2B11F460FF04C06F5FC8
:101900007F4F8F4F9F4F089557FD9058440F551F9D
:1019100059F05F3F71F04795880F97FB991F61F071
:101920009F3F79F087950895121613061406551FE8
:10193000F2CF4695F1DF08C0161617061806991F54
:10194000F1CF86957105610508940895E894BB2749
:1019500066277727CB0197F908950E94380C08F481
:101960008FEF08950E94C50C0C94730C0E94650CB7
:1019700038F00E946C0C20F0952311F00C945C0C54
:101980000C94620C11240C94A70C0E94840C70F32C
:10199000959FC1F3950F50E0551F629FF001729F14
:1019A000BB27F00DB11D639FAA27F00DB11DAA1F23
:1019B000649F6627B00DA11D661F829F2227B00D70
:1019C000A11D621F739FB00DA11D621F839FA00DFB
:1019D000611D221F749F3327A00D611D231F849F4B
:1019E000600D211D822F762F6A2F11249F575040A2
:1019F0009AF0F1F088234AF0EE0FFF1FBB1F661F1D
:101A0000771F881F91505040A9F79E3F510580F0E5
:101A10000C945C0C0C94A70C5F3FE4F3983ED4F359
:101A2000869577956795B795F795E7959F5FC1F789
:101A3000FE2B880F911D9695879597F908950E9422
:101A4000380C880B990B0895A1E21A2EAA1BBB1B18
:101A5000FD010DC0AA1FBB1FEE1FFF1FA217B3077A
:101A6000E407F50720F0A21BB30BE40BF50B661F90
:101A7000771F881F991F1A9469F760957095809554
:101A800090959B01AC01BD01CF010895EE0FFF1FA2
:0C1A90000590F491E02D0994F894FFCF2C
:101A9C00020000F0FF00000000C0FF00000000008A
:101AAC00FF0000000000FC00080000000000200007
:101ABC000000000080000000000000020000000098
:101ACC0030019000BD007D01EE00CC00E000000074
:101ADC000000E604B904150596048700A6049704D3
:101AEC006E616E00696E66006F76660009000D0A05
:101AFC00004E6F2064657669636520666F756E6451
:101B0C0020617420616464726573732000436F6E8E
:101B1C007665727400436F6E7665727420657272AE
:101B2C006F723A200056616C75653A2000414E5335
:061B3C00203A006D560086
:00000001FF
