:100000000C945D000C9485000C9485000C94850084
:100010000C9485000C9485000C9485000C9485004C
:100020000C9485000C9485000C9485000C9485003C
:100030000C9485000C9485000C9485000C9485002C
:100040000C94C8050C9485000C9496050C947005CE
:100050000C9485000C9485000C9485000C9485000C
:100060000C9412060C9485000000000800020100A8
:100070000003040700000000000000000000000072
:10008000250028002B0000000000240027002A0083
:10009000040404040404040402020202020203032E
:1000A0000303030301020408102040800102040836
:1000B0001020010204081020310711241FBECFEFC9
:1000C000D8E0DEBFCDBF11E0A0E0B1E0E4E3F3E1B2
:1000D00002C005900D92AA39B107D9F723E0AAE929
:1000E000B1E001C01D92AB30B207E1F710E0CDE501
:1000F000D0E004C02197FE010E949209CC35D107BF
:10010000C9F70E9476070C9498090C94000080911E
:10011000EB019091EC01891B990B089508950895C6
:10012000AF92BF92CF92DF92EF92FF920F931F9305
:10013000CF93DF936C017B018B01040F151FEB0143
:100140005E01AE18BF08C017D10759F06991D601FA
:10015000ED91FC910190F081E02DC6010995892B6C
:1001600079F7C501DF91CF911F910F91FF90EF902B
:10017000DF90CF90BF90AF900895FC01538D448DD8
:10018000252F30E0842F90E0821B930B541710F042
:10019000CF96089501970895FC01918D828D98174F
:1001A00061F0A28DAE0FBF2FB11D5D968C91928D27
:1001B0009F5F9F73928F90E008958FEF9FEF089558
:1001C000FC01918D828D981731F0828DE80FF11D21
:1001D000858D90E008958FEF9FEF0895FC01918D3C
:1001E000228D892F90E0805C9F4F821B91098F7335
:1001F000992708958DE592E00E94EE0021E0892B79
:1002000009F420E0822F089580E090E0892B29F006
:100210000E94FA0081110C9400000895FC01A48D45
:10022000A80FB92FB11DA35ABF4F2C91848D90E018
:1002300001968F739927848FA689B7892C93A089FB
:10024000B1898C91837080648C93938D848D981385
:1002500006C00288F389E02D80818F7D8083089518
:10026000EF92FF920F931F93CF93DF93EC0181E006
:10027000888F9B8D8C8D98131AC0E889F9898081AD
:1002800085FF15C09FB7F894EE89FF896083E889E0
:10029000F98980818370806480839FBF81E090E0D2
:1002A000DF91CF911F910F91FF90EF900895F62E5F
:1002B0000B8D10E00F5F1F4F0F731127E02E8C8DF9
:1002C0008E110CC00FB607FCFACFE889F98980813E
:1002D00085FFF5CFCE010E940E01F1CFEB8DEC0F23
:1002E000FD2FF11DE35AFF4FF0829FB7F8940B8F5B
:1002F000EA89FB8980818062CFCFCF93DF93EC01C5
:10030000888D8823B9F0AA89BB89E889F9898C91FD
:1003100085FD03C0808186FD0DC00FB607FCF7CFB9
:100320008C9185FFF2CF808185FFEDCFCE010E94B9
:100330000E01E9CFDF91CF91089590E0FC01E859DB
:10034000FF4F2491FC01EC55FF4F3491FC01E05725
:10035000FF4FE491EE23C9F0222339F0233001F15D
:10036000A8F4213019F1223029F1F0E0EE0FFF1F3F
:10037000E458FF4FA591B4918FB7F894EC916111B7
:1003800026C030953E233C938FBF08952730A9F0B7
:100390002830C9F0243049F7809180008F7D03C058
:1003A000809180008F7780938000DFCF84B58F7736
:1003B00084BDDBCF84B58F7DFBCF8091B0008F777C
:1003C0008093B000D2CF8091B0008F7DF9CF3E2BCB
:1003D000DACF3FB7F8948091E3019091E401A091C6
:1003E000E501B091E60126B5A89B05C02F3F19F0A5
:1003F0000196A11DB11D3FBFBA2FA92F982F8827A5
:10040000BC01CD01620F711D811D911D42E0660F7F
:10041000771F881F991F4A95D1F708958F929F9251
:10042000AF92BF92CF92DF92EF92FF924B015C01AD
:100430000E94E9016B017C010E94E9016C197D09B0
:100440008E099F09683E734081059105A8F321E05C
:10045000821A9108A108B10888EEC80E83E0D81E60
:10046000E11CF11C81149104A104B10429F7FF904F
:10047000EF90DF90CF90BF90AF909F908F900895B6
:100480002091BB01260F3327331F21323105ECF4B5
:1004900020915702FC0190E080E0243069F082E076
:1004A0000895A091BB012191AC0145565E4FA40F68
:1004B000B52FB11D2C930196861798F38091BB013F
:1004C000680F6093BB0180E0089581E00895109269
:1004D000570281E0809336021092310261E082E19E
:1004E0000E949D0161E083E10E949D01E9EBF0E043
:1004F00080818E7F808380818D7F808388E480935C
:10050000B80085E48093BC000895CF93DF9391E019
:1005100090939A018823B9F0C091B800D091BA00A5
:100520008091BC008A7B8093BC0060E082E10E94E5
:100530009D0160E083E10E949D010E946702D093CB
:10054000BA00C093B800DF91CF910895CF92DF92A7
:10055000EF92FF920F931F93CF93DF93D82FC62F65
:10056000613208F098C00E94E9016B017C01809122
:10057000570281116BC081E080935702809336024D
:100580009FEF90933502109234029C0F90933302A8
:100590008093320280913202DD0FD82BD093320249
:1005A00080913102813009F078C0109231020E94AE
:1005B000E9016B017C01809132028093BB00809144
:1005C000590290915A02A0915B02B0915C02892B72
:1005D0008A2B8B2BA1F00E94E90100915902109106
:1005E0005A0220915B0230915C026C197D098E09E0
:1005F0009F09061717072807390708F448C0809194
:10060000BC0083FDD8CF85EC8093BC000E94E9013B
:100610006B017C0180915702813009F440C08091C8
:1006200034028C1710F4C0913402E1E1F2E0A7E348
:10063000B2E080E08C1355C08C2FDF91CF911F91D9
:100640000F91FF90EF90DF90CF9008958091590225
:1006500090915A02A0915B02B0915C02892B8A2B87
:100660008B2B09F484CF0E94E9010091590210916B
:100670005A0220915B0230915C026C197D098E094F
:100680009F09061717072807390708F070CF8091D0
:1006900058020E948502C0E0CFCF85EEB5CF809191
:1006A000590290915A02A0915B02B0915C02892B91
:1006B0008A2B8B2B09F4AECF0E94E90100915902DD
:1006C00010915A0220915B0230915C026C197D09F5
:1006D0008E099F09061717072807390708F09ACFD0
:1006E000D6CF91919D938F5FA5CF8F929F92AF921E
:1006F000BF92CF92DF92EF92FF920F931F93CF930F
:10070000DF93D0911002D13208F0D7C0182FC091DA
:100710000F020E94E9016B017C0180915702811157
:100720006BC082E080935702109336028FEF809364
:10073000350210923402D0933302AFEEB1E0E1E122
:10074000F2E080E0D81391C0109232028091320220
:10075000CC0FC82BC093320280913102813009F056
:1007600088C0109231020E94E9016B017C018091E6
:1007700032028093BB008091590290915A02A0915D
:100780005B02B0915C02892B8A2B8B2BA1F00E941B
:10079000E9010091590210915A0220915B023091B7
:1007A0005C026C197D098E099F0906171707280737
:1007B000390708F442C08091BC0083FDD8CF85EC96
:1007C0008093BC000E94E9016B017C01809157027B
:1007D000823009F450C0809135028F3F09F46FC018
:1007E00080913502803209F46CC0809135028033EB
:1007F00009F469C084E026C08091590290915A02A0
:10080000A0915B02B0915C02892B8A2B8B2B09F49F
:1008100084CF0E94E9018090590290905A02A090E2
:100820005B02B0905C026C197D098E099F098616E7
:100830009706A806B90608F070CF809158020E946A
:10084000850285E01092EE01109210021092ED01E7
:10085000DF91CF911F910F91FF90EF90DF90CF909C
:10086000BF90AF909F908F9008959D9191938F5FCF
:1008700069CF85EEA5CF8091590290915A02A0913F
:100880005B02B0915C02892B8A2B8B2B09F49ECFE3
:100890000E94E9010091590210915A0220915B02D5
:1008A00030915C026C197D098E099F0906171707A4
:1008B0002807390708F08ACFC0CF81E0C3CF80E096
:1008C000C1CF82E0BFCF83E0BDCF0895E091EC01BE
:1008D0008091EB01E81730F4F0E0E95CFD4F808196
:1008E00090E008958FEF9FEF08959091EC01809133
:1008F000EB012FEF3FEF981748F4E92FF0E0E95CA8
:10090000FD4F208130E09F5F9093EC01C901089575
:10091000CF92DF92EF92FF920F931F93CF93DF93CB
:100920007C01CB018A012091ED01222389F0EB01AA
:100930006B01C40ED51ECC15DD0569F06991D70198
:10094000ED91FC910190F081E02DC7010995F3CF65
:10095000642F0E944002C801DF91CF911F910F9137
:10096000FF90EF90DF90CF900895CF93DF931F9289
:10097000CDB7DEB769832091ED012223F9F02091F4
:100980001002203258F021E030E0FC013383228352
:1009900090E080E00F90DF91CF9108958091EE017B
:1009A000E82FF0E0E151FE4F998190838F5F8093B3
:1009B000EE018093100281E090E0ECCF61E0CE0187
:1009C00001960E944002F7CF90E080E00895FC017C
:1009D00001900020E9F73197AF01481B590BBC018A
:1009E0008DE592E00C9490008F929F92AF92BF920F
:1009F0000F931F93CF93DF93CDB7DEB7A1970FB6B9
:100A0000F894DEBF0FBECDBF19A2423008F44AE011
:100A10008E010F5D1F4F842E912CB12CA12CA501AE
:100A200094010E947009E62FB901CA01EA30F4F47A
:100A3000E05DD801EE938D01232B242B252B79F734
:100A400090E080E0109719F0CD010E94E704A19694
:100A50000FB6F894DEBF0FBECDBFDF91CF911F91CF
:100A60000F91BF90AF909F908F900895E95CE1CF78
:100A700085ED8093BC008091590290915A02A0911B
:100A80005B02B0915C020796A11DB11D23E0B695F3
:100A9000A795979587952A95D1F72091BC0024FDBD
:100AA00003C01092570208954091590250915A0282
:100AB00060915B0270915C02452B462B472B69F3DA
:100AC0000097A105B10541F025E32A95F1F7000053
:100AD0000197A109B109E1CF809158020C948502D8
:100AE0001F920F920FB60F9211242F933F934F93A3
:100AF0005F936F937F938F939F93AF93BF93EF9386
:100B0000FF938DE592E00E940E01FF91EF91BF915E
:100B1000AF919F918F917F916F915F914F913F9195
:100B20002F910F900FBE0F901F9018951F920F924C
:100B30000FB60F9211242F938F939F93EF93FF93F0
:100B4000E0916D02F0916E028081E0917302F0916C
:100B5000740282FD1BC09081809176028F5F8F733B
:100B600020917702821741F0E0917602F0E0E35A9B
:100B7000FD4F958F80937602FF91EF919F918F911A
:100B80002F910F900FBE0F901F9018958081F4CF7A
:100B90001F920F920FB60F9211242F933F938F93B2
:100BA0009F93AF93BF938091DF019091E001A0915B
:100BB000E101B091E2013091DE0123E0230F2D37F6
:100BC00058F50196A11DB11D2093DE018093DF0130
:100BD0009093E001A093E101B093E2018091E301E1
:100BE0009091E401A091E501B091E6010196A11D6B
:100BF000B11D8093E3019093E401A093E501B093CC
:100C0000E601BF91AF919F918F913F912F910F90EE
:100C10000FBE0F901F90189526E8230F0296A11D76
:100C2000B11DD2CF1F920F920FB60F9211242F93A6
:100C30003F934F935F936F937F938F939F93AF9364
:100C4000BF93EF93FF938091B900887F803609F4BA
:100C50004AC0F0F5883209F4A7C018F5803109F4CC
:100C60009BC0B8F4882309F4F9C0883009F494C013
:100C7000FF91EF91BF91AF919F918F917F916F9174
:100C80005F914F913F912F910F900FBE0F901F904A
:100C90001895883109F488C0803251F78093350265
:100CA00014C0803409F49DC040F48033B9F3883314
:100CB000F9F68093350285ECB0C0803509F485C023
:100CC000883509F496C0883499F60E943805D0CF4B
:100CD000883909F48CC038F5883729F050F4883603
:100CE00011F0803729F683E0809357021092DD01DE
:100CF00057C0883809F47BC0803919F0803809F072
:100D0000B7CF8091DD01803208F071C0E091DD0144
:100D100081E08E0F8093DD018091BB00F0E0E35411
:100D2000FE4F80833DC0803B39F0E0F4803A09F407
:100D300079C0883A09F09CCF84E0809357021092E2
:100D4000BC011092BB01E091E901F091EA01099523
:100D50008091BB0181110FC081E08093BB01109293
:100D60009B0109C0803C09F4A6CF883C09F4A3CFBD
:100D7000883B09F07DCFE091BC0181E08E0F80932C
:100D8000BC01F0E0E556FE4F80818093BB0090915E
:100D9000BC018091BB0129C0809132028093BB00CD
:100DA00085EC8093BC0064CF909134028091330233
:100DB000981758F5E091340281E08E0F8093340249
:100DC000F0E0EF5EFD4F8081E9CFE091340281E0F9
:100DD0008E0F809334028091BB00F0E0EF5EFD4FF8
:100DE000808390913402809133029817C8F285E88D
:100DF000D8CFE091340281E08E0F8093340280914D
:100E0000BB00F0E0EF5EFD4F8083809136028111E0
:100E10005CCF81E08093310284EA8093BC00109221
:100E2000570226CF85EC8093BC0010925702809128
:100E3000DD01803230F4E091DD01F0E0E354FE4F5B
:100E400010826091DD0170E0E091E701F091E8012E
:100E50008DEB91E009951092DD010ACF10923502D9
:100E600034CFEDE5F2E01382128288EE93E0A0E049
:100E7000B0E084839583A683B78323E431E0318394
:100E8000208325EC30E03587248724EC30E0378759
:100E9000268720EC30E0318B208B21EC30E0338B47
:100EA000228B22EC30E0358B248B26EC30E0378B24
:100EB000268B118E128E138E148E1092FD021092BC
:100EC000FC0228E02093FB021092FA02EEEFF2E01F
:100ED0001382128284839583A683B78385E591E08C
:100EE0009183808388E680930A030895CF93DF93EC
:100EF00000D000D000D0CDB7DEB7789484B5826042
:100F000084BD84B5816084BD85B5826085BD85B5AD
:100F1000816085BD80916E00816080936E0010922B
:100F200081008091810082608093810080918100A6
:100F30008160809381008091800081608093800037
:100F40008091B10084608093B1008091B000816095
:100F50008093B00080917A00846080937A008091C1
:100F60007A00826080937A0080917A008160809319
:100F70007A0080917A00806880937A001092C10094
:100F8000E0916D02F0916E0282E08083E09169024F
:100F9000F0916A021082E0916B02F0916C028FEC8A
:100FA000808310927502E0917102F091720286E0E6
:100FB0008083E0916F02F091700280818061808374
:100FC000E0916F02F0917002808188608083E091EF
:100FD0006F02F0917002808180688083E0916F02DF
:100FE000F091700280818F7D80831092EC011092CD
:100FF000EB011092EE01109210020E9467028EE83F
:1010000090E09093EA018093E9018FE890E090935B
:10101000E8018093E701EDEAF0E02491E9E9F0E0EE
:101020008491882399F090E0880F991FFC01EA577A
:10103000FF4FA591B491FC01E458FF4F8591949125
:101040008FB7F894EC91E22BEC938FBF61E089E0CD
:101050000E949D0181E08093ED0110920F02109299
:10106000EE011092100266E08EEF92E00E94B5044D
:1010700081E00E94750361E070E080E090E00E94F2
:101080000E0261E088E60E94A6021092EC018093B5
:10109000EB01882309F456C0CE0101961C01DE0144
:1010A0001596BE83AD83E0ECCE2EEDEBDE2EE0EFA9
:1010B000EE2EFF24FA94F8EE4F2EF3E05F2E612C13
:1010C000712C1091FB028091FD026091FA02612B5C
:1010D00060689091FC02692B90910A03B1E0B09393
:1010E000ED0190930F021092EE0110921002682B06
:1010F0008EEF92E00E94B50481E00E947503882380
:1011000089F111E082E891E00E94E704612F70E02C
:1011100090E080E04AE00E94F4048FE791E00E94B2
:10112000E70468EE73E080E090E00E940E0280E049
:1011300090E0892B31F20E94FA00882311F20E947C
:101140000000BFCF83E691E00E94E70440E168E63B
:1011500070E080E090E00E94F4048FE791E00E944C
:10116000E704FFCF0E94E9014B015C01812F90E071
:10117000959587958730910508F098C0FC01EE0F92
:10118000FF1FE80FF91FE65DFE4F80819181A2816C
:10119000BC018A2F90E06115E0E47E07810591058E
:1011A00008F487C0A30192010E947009CA01B90125
:1011B0000E940E02D701C60188199909AA09BB0924
:1011C0004C015D0119821A821B821C8264E08091AD
:1011D0000A030E94A6021092EC018093EB01843076
:1011E00009F074C081018EEF92E00E947504D8016D
:1011F0008D938D01ED81FE81EA17FB07A1F78C81AC
:10120000982F9C70A3E09C3011F08B81A2E087FDA9
:101210005DC08C7090E0959587959C01220F331FDF
:10122000F901E80FF91FEB5EFE4F408151816281A9
:10123000062E000C770BF101812C912C5401B191F9
:10124000BA2CA92C982C88248B2ABE2FB219BA1735
:10125000B0F3482159216A217B21452B462B472B8E
:1012600079F0820F931FFC01E050FF4F8081918144
:10127000A2810A2E000CBB0B882A992AAA2ABB2A13
:1012800082E991E00E94E7044AE0C501B401B7FE9B
:1012900042CF6DE28DE592E00E943001662777270C
:1012A000CB01681979098A099B0934CF60E070E0A5
:1012B000CB016230710508F47DCFCB01880F991FF7
:1012C000880F991F05970197F1F774CF0E94E901E4
:1012D000680D791D8A1D9B1D97FF74CF13E012CFF7
:1012E000A1E21A2EAA1BBB1BFD010DC0AA1FBB1F2A
:1012F000EE1FFF1FA217B307E407F50720F0A21B9C
:10130000B30BE40BF50B661F771F881F991F1A9408
:1013100069F760957095809590959B01AC01BD0132
:10132000CF010895EE0FFF1F0590F491E02D099471
:04133000F894FFCF5F
:1013340000F0FF00000000C0FF0000000000FF00FC
:1013440000000000FC000800000000002000000075
:1013540000008000000000000002471000000000B0
:101364001B41000000006B0401000000AB110400ED
:1013740000000030019000BD007D01EE00CC00E0D3
:101384000000000000B5048804E4046504870075C7
:101394000466044E6F2064657669636520666F7524
:1013A4006E64206174206164647265737320000D3F
:1013B4000A00436F6E76657274206572726F723ABA
:0A13C400200056616C75653A2000A8
:00000001FF
