:020000040000FA
:100000000C9458000C9480000C9480000C94800098
:100010000C9480000C9480000C9480000C94800060
:100020000C9480000C9480000C9480000C94800050
:100030000C9480000C9480000C9480000C94800040
:100040000C946D060C9480000C943B060C941506E1
:100050000C9480000C9480000C9480000C94800020
:100060000C94B7060C9480000000000025002800C6
:100070002B00040404040404040402020202020229
:10008000030303030303010204081020408001025C
:1000900004081020010204081020000000080002DB
:1000A0000100000304070000000000000000D60764
:1000B00011241FBECFEFD8E0DEBFCDBF11E0A0E01E
:1000C000B1E0EEE0F9E102C005900D92A23AB1076D
:1000D000D9F723E0A2EAB1E001C01D92A631B20730
:1000E000E1F710E0C8E5D0E004C02197FE010E94CE
:1000F0007F0CC735D107C9F70E941F080C94850CE7
:100100000C9400008091F3019091F401891B990BEC
:10011000089508950895AF92BF92CF92DF92EF9223
:10012000FF920F931F93CF93DF936C017B018B01A1
:10013000040F151FEB015E01AE18BF08C017D107F1
:1001400059F06991D601ED91FC910190F081E02D7B
:10015000C6010995892B79F7C501DF91CF911F91D0
:100160000F91FF90EF90DF90CF90BF90AF900895E8
:10017000FC01538D448D252F30E0842F90E0821BAD
:10018000930B541710F0CF96089501970895FC0132
:10019000918D828D981761F0A28DAE0FBF2FB11D8A
:1001A0005D968C91928D9F5F9F73928F90E00895E2
:1001B0008FEF9FEF0895FC01918D828D981731F09C
:1001C000828DE80FF11D858D90E008958FEF9FEFF0
:1001D0000895FC01918D228D892F90E0805C9F4FC6
:1001E000821B91098F739927089586E692E00E94F9
:1001F000E90021E0892B09F420E0822F089580E0B6
:1002000090E0892B29F00E94F50081110C940000E8
:100210000895FC01A48DA80FB92FB11DA35ABF4F9B
:100220002C91848D90E001968F739927848FA689F5
:10023000B7892C93A089B1898C91837080648C9349
:10024000938D848D981306C00288F389E02D8081F8
:100250008F7D80830895EF92FF920F931F93CF932A
:10026000DF93EC0181E0888F9B8D8C8D98131AC0F1
:10027000E889F989808185FF15C09FB7F894EE89D8
:10028000FF896083E889F989808183708064808335
:100290009FBF81E090E0DF91CF911F910F91FF9080
:1002A000EF900895F62E0B8D10E00F5F1F4F0F7328
:1002B0001127E02E8C8D8E110CC00FB607FCFACFE3
:1002C000E889F989808185FFF5CFCE010E94090177
:1002D000F1CFEB8DEC0FFD2FF11DE35AFF4FF082B4
:1002E0009FB7F8940B8FEA89FB8980818062CFCF1A
:1002F000CF93DF93EC01888D8823B9F0AA89BB895D
:10030000E889F9898C9185FD03C0808186FD0DC047
:100310000FB607FCF7CF8C9185FFF2CF808185FF68
:10032000EDCFCE010E940901E9CFDF91CF91089571
:1003300090E0FC01E656FF4F2491FC01EA57FF4F85
:100340003491FC01EE58FF4FE491EE23C9F02223D3
:1003500039F0233001F1A8F4213019F1223029F1CC
:10036000F0E0EE0FFF1FE859FF4FA591B4918FB752
:10037000F894EC91611126C030953E233C938FBFD9
:1003800008952730A9F02830C9F0243049F780912A
:1003900080008F7D03C0809180008F7780938000E4
:1003A000DFCF84B58F7784BDDBCF84B58F7DFBCF66
:1003B0008091B0008F778093B000D2CF8091B00051
:1003C0008F7DF9CF3E2BDACF3FB7F8948091EB01C8
:1003D0009091EC01A091ED01B091EE0126B5A89BA2
:1003E00005C02F3F19F00196A11DB11D3FBFBA2FC7
:1003F000A92F982F8827BC01CD01620F711D811D87
:10040000911D42E0660F771F881F991F4A95D1F70B
:1004100008952091C301260F3327331F2132310560
:10042000ECF420916002FC0190E080E0243069F05F
:1004300082E00895A091C3012191AC014D555E4F1A
:10044000A40FB52FB11D2C930196861798F38091B8
:10045000C301680F6093C30180E0089581E00895AF
:100460001092600281E080933F0210923A0261E0B4
:1004700082E10E94980161E083E10E949801E9EB2A
:10048000F0E080818E7F808380818D7F808388E40F
:100490008093B80085E48093BC000895CF93DF93E8
:1004A00091E09093A2018823B9F0C091B800D09157
:1004B000BA008091BC008A7B8093BC0060E082E13E
:1004C0000E94980160E083E10E9498010E9430023E
:1004D000D093BA00C093B800DF91CF910895CF9226
:1004E000DF92EF92FF920F931F93CF93DF93D82F5A
:1004F000C62F613208F098C00E94E4016B017C01B4
:100500008091600281116BC081E0809360028093D2
:100510003F029FEF90933E0210923D029C0F9093FA
:100520003C0280933B0280913B02DD0FD82BD0939D
:100530003B0280913A02813009F078C010923A0271
:100540000E94E4016B017C0180913B028093BB001F
:100550008091620290916302A0916402B091650261
:10056000892B8A2B8B2BA1F00E94E401009162025F
:100570001091630220916402309165026C197D092B
:100580008E099F09061717072807390708F448C07E
:100590008091BC0083FDD8CF85EC8093BC000E9485
:1005A000E4016B017C0180916002813009F440C05C
:1005B00080913D028C1710F4C0913D02EAE1F2E017
:1005C000A0E4B2E080E08C1355C08C2FDF91CF9176
:1005D0001F910F91FF90EF90DF90CF900895809141
:1005E000620290916302A0916402B0916502892B2E
:1005F0008A2B8B2B09F484CF0E94E40100916202C4
:100600001091630220916402309165026C197D099A
:100610008E099F09061717072807390708F070CFBA
:10062000809161020E944E02C0E0CFCF85EEB5CF2F
:100630008091620290916302A0916402B091650280
:10064000892B8A2B8B2B09F4AECF0E94E4010091F9
:1006500062021091630220916402309165026C196C
:100660007D098E099F09061717072807390708F023
:100670009ACFD6CF91919D938F5FA5CF8F929F9266
:10068000AF92BF92CF92DF92EF92FF920F931F93A0
:10069000CF93DF93D0911902D13208F0D7C0182F31
:1006A000C09118020E94E4016B017C0180916002FC
:1006B00081116BC082E08093600210933F028FEF44
:1006C00080933E0210923D02D0933C02A8EFB1E02D
:1006D000EAE1F2E080E0D81391C010923B028091F1
:1006E0003B02CC0FC82BC0933B0280913A02813071
:1006F00009F088C010923A020E94E4016B017C016B
:1007000080913B028093BB008091620290916302D2
:10071000A0916402B0916502892B8A2B8B2BA1F0EA
:100720000E94E40100916202109163022091640230
:10073000309165026C197D098E099F09061717070C
:100740002807390708F442C08091BC0083FDD8CF48
:1007500085EC8093BC000E94E4016B017C018091D8
:100760006002823009F450C080913E028F3F09F44C
:100770006FC080913E02803209F46CC080913E02CD
:10078000803309F469C084E026C0809162029091B0
:100790006302A0916402B0916502892B8A2B8B2B96
:1007A00009F484CF0E94E401809062029090630279
:1007B000A0906402B09065026C197D098E099F09B2
:1007C00086169706A806B90608F070CF80916102D8
:1007D0000E944E0285E01092F701109219021092C9
:1007E000F601DF91CF911F910F91FF90EF90DF9075
:1007F000CF90BF90AF909F908F9008959D919193CF
:100800008F5F69CF85EEA5CF8091620290916302E0
:10081000A0916402B0916502892B8A2B8B2B09F47D
:100820009ECF0E94E4010091620210916302209128
:100830006402309165026C197D098E099F090617C3
:1008400017072807390708F08ACFC0CF81E0C3CF48
:1008500080E0C1CF82E0BFCF83E0BDCF0895E091BB
:10086000F4018091F301E81730F4F0E0E05CFD4F13
:10087000808190E008958FEF9FEF08959091F401AB
:100880008091F3012FEF3FEF981748F4E92FF0E044
:10089000E05CFD4F208130E09F5F9093F401C9013F
:1008A0000895CF92DF92EF92FF920F931F93CF9311
:1008B000DF937C01CB018A012091F601222389F08C
:1008C000EB016B01C40ED51ECC15DD0569F06991F5
:1008D000D701ED91FC910190F081E02DC7010995C0
:1008E000F3CF642F0E940902C801DF91CF911F91BD
:1008F0000F91FF90EF90DF90CF900895CF93DF930B
:100900001F92CDB7DEB769832091F6012223F9F05B
:1009100020911902203258F021E030E0FC013383AD
:10092000228390E080E00F90DF91CF910895809135
:10093000F701E82FF0E0E850FE4F998190838F5F38
:100940008093F7018093190281E090E0ECCF61E0A1
:10095000CE0101960E940902F7CF90E080E0089551
:10096000FC0101900020E9F73197AF01481B590BBA
:10097000BC0186E692E00C948B008F929F92AF921E
:10098000BF920F931F93CF93DF93CDB7DEB7A1979D
:100990000FB6F894DEBF0FBECDBF19A2423008F4E7
:1009A0004AE08E010F5D1F4F842E912CB12CA12C9B
:1009B000A50194010E945D0CE62FB901CA01EA303D
:1009C000F4F4E05DD801EE938D01232B242B252B2D
:1009D00079F790E080E0109719F0CD010E94B00403
:1009E000A1960FB6F894DEBF0FBECDBFDF91CF91B9
:1009F0001F910F91BF90AF909F908F900895E95CE9
:100A0000E1CF4F925F926F927F928F929F92AF92BF
:100A1000BF92CF92DF92EF92FF920F931F93CF93EB
:100A20006B017C01742EAC019B010E94580C882341
:100A300099F08EE491E0CF911F910F91FF90EF908C
:100A4000DF90CF90BF90AF909F908F907F906F90EE
:100A50005F904F900C94B00446015701E894B7F8AA
:100A60002FEF3FEF4FE75FE7C501B4010E94580C3D
:100A700081110DC02FEF3FEF4FE75FE7C501B401D4
:100A80000E948E0A18161CF482E591E0D4CF2FEF55
:100A90003FEF4FE75FE4C701B6010E94E60B18166F
:100AA0001CF486E591E0C7CF2FEF3FEF4FE75FECF7
:100AB000C701B6010E948E0A87FDF3CF20E030E027
:100AC000A901C701B6010E948E0A10E000E087FF6D
:100AD0000AC06DE286E692E00E942B018C01F7FAD3
:100AE000F094F7F8F094C0E060E070E080E09FE3FD
:100AF0007C1641F020E030E040E251E40E94930A8D
:100B0000CF5FF6CFA70196010E94220A2B013C017C
:100B10000E94050B4B015C014AE00E94BD047C0170
:100B2000E00EF11ECC23C1F1C501B4010E94340BCB
:100B30009B01AC01C301B2010E94210A4B015C017F
:100B40006EE286E692E00E942B01E80EF91EC1508B
:100B500018F120E030E040E251E4C501B4010E9408
:100B6000EB0B2B013C010E94050B4B01B12CA12C7E
:100B70004AE0C501B4010E94BD04E80EF91EC5019A
:100B8000B4010E94340B9B01AC01C301B2010E946D
:100B9000210A4B015C01DBCFC701CF911F910F915F
:100BA000FF90EF90DF90CF90BF90AF909F908F908D
:100BB0007F906F905F904F90089585ED8093BC007B
:100BC0008091620290916302A0916402B0916502EB
:100BD0000796A11DB11D23E0B695A795979587951A
:100BE0002A95D1F72091BC0024FD03C01092600229
:100BF0000895409162025091630260916402709185
:100C00006502452B462B472B69F30097A105B105DB
:100C100041F025E32A95F1F700000197A109B109F8
:100C2000E1CF809161020C944E021F920F920FB699
:100C30000F9211242F933F934F935F936F937F9362
:100C40008F939F93AF93BF93EF93FF9386E692E0CA
:100C50000E940901FF91EF91BF91AF919F918F91F8
:100C60007F916F915F914F913F912F910F900FBEA8
:100C70000F901F9018951F920F920FB60F9211248C
:100C80002F938F939F93EF93FF93E0917602F091D0
:100C900077028081E0917C02F0917D0282FD1BC091
:100CA000908180917F028F5F8F73209180028217E5
:100CB00041F0E0917F02F0E0EA59FD4F958F80937B
:100CC0007F02FF91EF919F918F912F910F900FBE17
:100CD0000F901F9018958081F4CF1F920F920FB63E
:100CE0000F9211242F933F938F939F93AF93BF93B2
:100CF0008091E7019091E801A091E901B091EA01AA
:100D00003091E60123E0230F2D3758F50196A11D00
:100D1000B11D2093E6018093E7019093E801A09331
:100D2000E901B093EA018091EB019091EC01A0916F
:100D3000ED01B091EE010196A11DB11D8093EB0173
:100D40009093EC01A093ED01B093EE01BF91AF91B0
:100D50009F918F913F912F910F900FBE0F901F90F9
:100D6000189526E8230F0296A11DB11DD2CF1F9220
:100D70000F920FB60F9211242F933F934F935F93CF
:100D80006F937F938F939F93AF93BF93EF93FF9353
:100D90008091B900887F803609F44AC0F0F5883226
:100DA00009F4A7C018F5803109F49BC0B8F4882372
:100DB00009F4F9C0883009F494C0FF91EF91BF9114
:100DC000AF919F918F917F916F915F914F913F91E3
:100DD0002F910F900FBE0F901F901895883109F436
:100DE00088C0803251F780933E0214C0803409F4E9
:100DF0009DC040F48033B9F38833F9F680933E0206
:100E000085ECB0C0803509F485C0883509F496C0FA
:100E1000883499F60E94DD05D0CF883909F48CC05A
:100E200038F5883729F050F4883611F0803729F6E4
:100E300083E0809360021092E50157C0883809F47E
:100E40007BC0803919F0803809F0B7CF8091E50177
:100E5000803208F071C0E091E50181E08E0F80934F
:100E6000E5018091BB00F0E0EB53FE4F80833DC075
:100E7000803B39F0E0F4803A09F479C0883A09F00F
:100E80009CCF84E0809360021092C4011092C30151
:100E9000E091F101F091F20109958091C301811176
:100EA0000FC081E08093C3011092A30109C0803C70
:100EB00009F4A6CF883C09F4A3CF883B09F07DCF85
:100EC000E091C40181E08E0F8093C401F0E0ED5504
:100ED000FE4F80818093BB009091C4018091C3013B
:100EE00029C080913B028093BB0085EC8093BC00BD
:100EF00064CF90913D0280913C02981758F5E091A3
:100F00003D0281E08E0F80933D02F0E0E65EFD4FF2
:100F10008081E9CFE0913D0281E08E0F80933D0218
:100F20008091BB00F0E0E65EFD4F808390913D0232
:100F300080913C029817C8F285E8D8CFE0913D0235
:100F400081E08E0F80933D028091BB00F0E0E65E71
:100F5000FD4F808380913F0281115CCF81E08093BF
:100F60003A0284EA8093BC001092600226CF85EC9E
:100F70008093BC00109260028091E501803230F4D1
:100F8000E091E501F0E0EB53FE4F10826091E50146
:100F900070E0E091EF01F091F00185EC91E00995AE
:100FA0001092E5010ACF10923E0234CFE6E6F2E05D
:100FB0001382128248EE53E060E070E04483558370
:100FC000668377838EE291E09183808385EC90E065
:100FD0009587848784EC90E09787868780EC90E003
:100FE000918B808B81EC90E0938B828B82EC90E0F4
:100FF000958B848B86EC90E0978B868B118E128E6E
:10100000138E148E10921403109213038CE08093AD
:10101000120310921103E3E0F3E01382128244837F
:1010200055836683778320E431E03183208398E61B
:10103000909315038093100310920F030895CF939C
:10104000DF9300D000D0CDB7DEB7789484B582604E
:1010500084BD84B5816084BD85B5826085BD85B55C
:10106000816085BD80916E00816080936E001092DA
:101070008100809181008260809381008091810055
:1010800081608093810080918000816080938000E6
:101090008091B10084608093B1008091B000816044
:1010A0008093B00080917A00846080937A00809170
:1010B0007A00826080937A0080917A0081608093C8
:1010C0007A0080917A00806880937A001092C10043
:1010D000E0917602F091770282E08083E0917202E3
:1010E000F09173021082E0917402F09175028FEC1E
:1010F000808310927E02E0917A02F0917B0286E07A
:101100008083E0917802F091790280818061808310
:10111000E0917802F0917902808188608083E0918B
:101120007802F0917902808180688083E091780272
:10113000F091790280818F7D80831092F40110926A
:10114000F701109219020E94300289E890E0909312
:10115000F2018093F1018AE890E09093F00180938E
:10116000EF0181E08093F6011092180266E083E0BF
:1011700093E00E947E0481E00E943E0361E088E6E5
:101180000E946F028093F30181110FC08AE591E004
:101190000E94B00440E168E670E080E090E00E94C8
:1011A000BD0486E791E00E94B00481E08093F501E0
:1011B0008E010F5F1F4F4E0125E0820E911C50E003
:1011C000A52E50E0B52E772473948091F5018823E5
:1011D00079F189E791E00E94B00486E791E00E94EE
:1011E000B004809115037092F6018093180210925A
:1011F000F7011092190260911003606883E093E098
:101200000E947E0481E00E943E03882379F081E8F9
:1012100091E00E94B0044AE061E070E080E090E07C
:101220000E94BD0486E791E00E94B0041092F5018F
:1012300019821A821B821C8264E0809115030E942D
:101240006F021092F4018093F301843009F096C08C
:10125000780183E093E00E943E04F70181937F01CF
:10126000E815F905B1F78C81982F9C709C3009F036
:1012700080C080930F0323E080910F0387FD7EC021
:101280008C7090E095958795FC01EE0FFF1FDF01B4
:10129000A80FB91FAB5EBE4F4D915D916C91062EAC
:1012A000000C770BD801C12CD12C76013D91FE2C7E
:1012B000ED2CDC2CCC24C32A3A2F301B3217B0F390
:1012C0004C215D216E217F21452B462B472B71F050
:1012D000E80FF91FE050FF4F80819181A2810A2E13
:1012E000000CBB0BC82AD92AEA2AFB2A80910F03DB
:1012F00087FD47C081E991E00E94B0044AE0C70140
:10130000B601F7FE0DC06DE286E692E00E942B0169
:1013100066277727CB016C197D098E099F094AE062
:101320000E94BD0486E791E00E94B00489E991E043
:101330000E94B004C701B6010E94360B20E030E0E5
:1013400048EC56E40E94210A2CEF3FEF49E75FE3A7
:101350000E94EB0B20E030E0A9010E94220A42E04B
:101360000E94010586E791E00E94B0047092F501A9
:1013700008C08B8180930F0322E07ECFC12CD12C3B
:101380007601C701B6010E94360B2FE632E143E831
:101390005AE30E94EB0B20E030E040E85CE30E945F
:1013A000EB0B20E030E040E05FE30E94EB0B9B01A1
:1013B000AC010E94220A6B017C018DE991E00E9440
:1013C000B00420E030E04AE754E4C701B6010E94CF
:1013D000EB0B42E00E94010586E791E00E94B00419
:1013E0000E94E4011B012C018CEDC82E85E0D82E53
:1013F000E12CF12C0E94E40162197309840995091A
:10140000683E734081059105A8F3F1E0CF1AD10839
:10141000E108F10828EE220E23E0321E411C511C87
:10142000C114D104E104F10429F7A114B10409F4B1
:10143000CCCE0E94F500882309F4C7CE0E9400009C
:10144000C4CE5058BB27AA270E94390A0C94AC0B73
:101450000E949E0B38F00E94A50B20F039F49F3FAC
:1014600019F426F40C949B0B0EF4E095E7FB0C9416
:10147000950BE92F0E94BD0B58F3BA17620773074B
:101480008407950720F079F4A6F50C94DF0B0EF491
:10149000E0950B2EBA2FA02D0B01B90190010C0184
:1014A000CA01A0011124FF27591B99F0593F50F49C
:1014B000503E68F11A16F040A22F232F342F4427F4
:1014C000585FF3CF469537952795A795F0405395EC
:1014D000C9F77EF41F16BA0B620B730B840BBAF0BC
:1014E0009150A1F0FF0FBB1F661F771F881FC2F727
:1014F0000EC0BA0F621F731F841F48F4879577953B
:101500006795B795F7959E3F08F0B0CF9395880FF4
:1015100008F09927EE0F9795879508950E94710B13
:1015200008F481E008950E94A70A0C94AC0B0E9475
:10153000A50B58F00E949E0B40F029F45F3F29F064
:101540000C94950B51110C94E00B0C949B0B0E9486
:10155000BD0B68F39923B1F3552391F3951B550BFC
:10156000BB27AA2762177307840738F09F5F5F4F76
:10157000220F331F441FAA1FA9F335D00E2E3AF0B5
:10158000E0E832D091505040E695001CCAF72BD0CD
:10159000FE2F29D0660F771F881FBB1F261737071E
:1015A0004807AB07B0E809F0BB0B802DBF01FF2750
:1015B00093585F4F3AF09E3F510578F00C94950B8D
:1015C0000C94E00B5F3FE4F3983ED4F38695779557
:1015D0006795B795F7959F5FC9F7880F911D969509
:1015E000879597F90895E1E0660F771F881FBB1F65
:1015F000621773078407BA0720F0621B730B840B12
:10160000BA0BEE1F88F7E09508950E94C50B88F08D
:101610009F5798F0B92F9927B751B0F0E1F0660FB6
:10162000771F881F991F1AF0BA95C9F714C0B130F7
:1016300091F00E94DF0BB1E008950C94DF0B672F4F
:10164000782F8827B85F39F0B93FCCF38695779526
:101650006795B395D9F73EF490958095709561950F
:101660007F4F8F4F9F4F0895E89409C097FB3EF43A
:1016700090958095709561957F4F8F4F9F4F9923DF
:10168000A9F0F92F96E9BB279395F695879577955D
:101690006795B795F111F8CFFAF4BB0F11F460FF1D
:1016A0001BC06F5F7F4F8F4F9F4F16C0882311F075
:1016B00096E911C0772321F09EE8872F762F05C089
:1016C000662371F096E8862F70E060E02AF09A9524
:1016D000660F771F881FDAF7880F9695879597F919
:1016E0000895990F0008550FAA0BE0E8FEEF1616B3
:1016F0001706E807F907C0F012161306E407F50706
:1017000098F0621B730B840B950B39F40A2661F079
:10171000232B242B252B21F408950A2609F4A1401C
:10172000A6958FEF811D811D089597F99F6780E829
:1017300070E060E008959FEF80EC089500240A9423
:101740001616170618060906089500240A9412169C
:101750001306140605060895092E0394000C11F4CF
:10176000882352F0BB0F40F4BF2B11F460FF04C07C
:101770006F5F7F4F8F4F9F4F089557FD9058440FD5
:10178000551F59F05F3F71F04795880F97FB991FE0
:1017900061F09F3F79F0879508951216130614069D
:1017A000551FF2CF4695F1DF08C01616170618062A
:1017B000991FF1CF86957105610508940895E89405
:1017C000BB2766277727CB0197F908950E94710BF5
:1017D00008F48FEF08950E94FE0B0C94AC0B0E944E
:1017E0009E0B38F00E94A50B20F0952311F00C946D
:1017F000950B0C949B0B11240C94E00B0E94BD0BD9
:1018000070F3959FC1F3950F50E0551F629FF00153
:10181000729FBB27F00DB11D639FAA27F00DB11D6C
:10182000AA1F649F6627B00DA11D661F829F2227F5
:10183000B00DA11D621F739FB00DA11D621F839F7C
:10184000A00D611D221F749F3327A00D611D231F52
:10185000849F600D211D822F762F6A2F11249F57A0
:1018600050409AF0F1F088234AF0EE0FFF1FBB1FA3
:10187000661F771F881F91505040A9F79E3F510562
:1018800080F00C94950B0C94E00B5F3FE4F3983ED2
:10189000D4F3869577956795B795F795E7959F5F0C
:1018A000C1F7FE2B880F911D9695879597F908959E
:1018B0000E94710B880B990B0895A1E21A2EAA1BA6
:1018C000BB1BFD010DC0AA1FBB1FEE1FFF1FA217F0
:1018D000B307E407F50720F0A21BB30BE40BF50BED
:1018E000661F771F881F991F1A9469F76095709576
:1018F000809590959B01AC01BD01CF010895EE0F3D
:10190000FF1F0590F491E02D0994F894FFCF00F0AB
:10191000FF00000000C0FF0000000000FF0000000A
:101920000000FC0008000000000020000000000093
:101930008000000000000002000000002B018B006E
:10194000B8007801E900C700DB00000000007E0459
:101950005104AD042E0482003E042F046E616E001B
:10196000696E66006F7666004E6F20646576696307
:101970006520666F756E64206174206164647265B1
:10198000737320000D0A00436F6E76657274004316
:101990006F6E76657274206572726F723A200056AF
:1019A000616C75653A200059203A006D56203A0066
:107E0000112484B714BE81FFF0D085E080938100F7
:107E100082E08093C00088E18093C10086E0809377
:107E2000C20080E18093C4008EE0C9D0259A86E02C
:107E300020E33CEF91E0309385002093840096BBD3
:107E4000B09BFECF1D9AA8958150A9F7CC24DD24C4
:107E500088248394B5E0AB2EA1E19A2EF3E0BF2EE7
:107E6000A2D0813461F49FD0082FAFD0023811F036
:107E7000013811F484E001C083E08DD089C08234E0
:107E800011F484E103C0853419F485E0A6D080C0E4
:107E9000853579F488D0E82EFF2485D0082F10E0AE
:107EA000102F00270E291F29000F111F8ED06801E7
:107EB0006FC0863521F484E090D080E0DECF843638
:107EC00009F040C070D06FD0082F6DD080E0C81688
:107ED00080E7D80618F4F601B7BEE895C0E0D1E017
:107EE00062D089930C17E1F7F0E0CF16F0E7DF06D8
:107EF00018F0F601B7BEE89568D007B600FCFDCFD4
:107F0000A601A0E0B1E02C9130E011968C91119780
:107F100090E0982F8827822B932B1296FA010C0160
:107F200087BEE89511244E5F5F4FF1E0A038BF0790
:107F300051F7F601A7BEE89507B600FCFDCF97BE46
:107F4000E89526C08437B1F42ED02DD0F82E2BD052
:107F50003CD0F601EF2C8F010F5F1F4F84911BD097
:107F6000EA94F801C1F70894C11CD11CFA94CF0C13
:107F7000D11C0EC0853739F428D08EE10CD085E9AC
:107F80000AD08FE07ACF813511F488E018D01DD067
:107F900080E101D065CF982F8091C00085FFFCCF94
:107FA0009093C60008958091C00087FFFCCF809118
:107FB000C00084FD01C0A8958091C6000895E0E648
:107FC000F0E098E1908380830895EDDF803219F02E
:107FD00088E0F5DFFFCF84E1DECF1F93182FE3DFCA
:107FE0001150E9F7F2DF1F91089580E0E8DFEE27F6
:047FF000FF270994CA
:027FFE00040479
:00000001FF
