:100000000C945D000C9485000C9485000C94850084
:100010000C9485000C9485000C9485000C9485004C
:100020000C9485000C9485000C9485000C9485003C
:100030000C9485000C9485000C9485000C9485002C
:100040000C94B5050C9485000C9483050C945D0507
:100050000C9485000C9485000C9485000C9485000C
:100060000C94FF050C9485000000000800020100BC
:100070000003040700000000000000000000000072
:10008000250028002B0000000000240027002A0083
:10009000040404040404040402020202020203032E
:1000A0000303030301020408102040800102040836
:1000B00010200102040810201E0711241FBECFEFDC
:1000C000D8E0DEBFCDBF11E0A0E0B1E0E4E1F3E1B4
:1000D00002C005900D92A83AB107D9F723E0A8EA2B
:1000E000B1E001C01D92A132B207E1F710E0CDE509
:1000F000D0E004C02197FE010E948209CC35D107CF
:10010000C9F70E9467070C9488090C94000090E0DE
:10011000FC01EC55FF4F249180579F4FFC018491C7
:10012000882399F090E0880F991FFC01EA57FF4F50
:10013000A591B491FC01E458FF4F859194918FB73C
:10014000F894EC91E22BEC938FBF08958091F50128
:100150009091F601891B990B089508950895AF9227
:10016000BF92CF92DF92EF92FF920F931F93CF93A4
:10017000DF936C017B018B01040F151FEB015E0106
:10018000AE18BF08C017D10759F06991D601ED919B
:10019000FC910190F081E02DC6010995892B79F73A
:1001A000C501DF91CF911F910F91FF90EF90DF90EC
:1001B000CF90BF90AF900895FC01538D448D252FB3
:1001C00030E0842F90E0821B930B541710F0CF96F1
:1001D000089501970895FC01918D828D981761F023
:1001E000A28DAE0FBF2FB11D5D968C91928D9F5F3A
:1001F0009F73928F90E008958FEF9FEF0895FC0119
:10020000918D828D981731F0828DE80FF11D858DCB
:1002100090E008958FEF9FEF0895FC01918D228D5E
:10022000892F90E0805C9F4F821B91098F739927E3
:10023000089581E792E00E940D0121E0892B09F4E5
:1002400020E0822F089580E090E0892B29F00E9421
:10025000190181110C9400000895FC01A48DA80FD0
:10026000B92FB11DA35ABF4F2C91848D90E00196F8
:100270008F739927848FA689B7892C93A089B18918
:100280008C91837080648C93938D848D981306C0B9
:100290000288F389E02D80818F7D80830895EF921D
:1002A000FF920F931F93CF93DF93EC0181E0888F30
:1002B0009B8D8C8D98131AC0E889F989808185FF00
:1002C00015C09FB7F894EE89FF896083E889F989A2
:1002D00080818370806480839FBF81E090E0DF91A4
:1002E000CF911F910F91FF90EF900895F62E0B8DF7
:1002F00010E00F5F1F4F0F731127E02E8C8D8E11B2
:100300000CC00FB607FCFACFE889F989808185FF18
:10031000F5CFCE010E942D01F1CFEB8DEC0FFD2F1B
:10032000F11DE35AFF4FF0829FB7F8940B8FEA89D3
:10033000FB8980818062CFCFCF93DF93EC01888DE2
:100340008823B9F0AA89BB89E889F9898C9185FD50
:1003500003C0808186FD0DC00FB607FCF7CF8C91DE
:1003600085FFF2CF808185FFEDCFCE010E942D0168
:10037000E9CFDF91CF91089590E0FC01E859FF4F5C
:100380002491FC01EC55FF4F3491FC01E057FF4FE5
:10039000E491EE23C9F0222339F0233001F1A8F4CF
:1003A000213019F1223029F1F0E0EE0FFF1FE4585F
:1003B000FF4FA591B4918FB7F894EC91611126C0CD
:1003C00030953E233C938FBF08952730A9F0283005
:1003D000C9F0243049F7809180008F7D03C080915F
:1003E00080008F7780938000DFCF84B58F7784BDC6
:1003F000DBCF84B58F7DFBCF8091B0008F7780936A
:10040000B000D2CF8091B0008F7DF9CF3E2BDACFF4
:100410003FB7F8948091ED019091EE01A091EF012A
:10042000B091F00126B5A89B05C02F3F19F00196A9
:10043000A11DB11D3FBFBA2FA92F982F8827BC013E
:10044000CD01620F711D811D911D42E0660F771F66
:10045000881F991F4A95D1F708952091C901260F49
:100460003327331F21323105ECF420916B02FC015C
:1004700090E080E0243069F082E00895A091C90105
:100480002191AC0147555E4FA40FB52FB11D2C93A0
:100490000196861798F38091C901680F6093C9018E
:1004A00080E0089581E0089510926B0281E08093CE
:1004B0004A021092450261E082E10E94BC0161E0C3
:1004C00083E10E94BC01E9EBF0E080818E7F8083B4
:1004D00080818D7F808388E48093B80085E4809359
:1004E000BC000895CF93DF9391E09093A8018823F7
:1004F000B9F0C091B800D091BA008091BC008A7B5D
:100500008093BC0060E082E10E94BC0160E083E176
:100510000E94BC010E945402D093BA00C093B8005C
:10052000DF91CF910895CF92DF92EF92FF920F93D8
:100530001F93CF93DF93D82FC62F613208F098C056
:100540000E9408026B017C0180916B0281116BC0DB
:1005500081E080936B0280934A029FEF909349025F
:10056000109248029C0F909347028093460280911C
:100570004602DD0FD82BD093460280914502813090
:1005800009F078C0109245020E9408026B017C01BC
:10059000809146028093BB0080916D0290916E0223
:1005A000A0916F02B0917002892B8A2B8B2BA1F046
:1005B0000E94080200916D0210916E0220916F025C
:1005C000309170026C197D098E099F090617170773
:1005D0002807390708F448C08091BC0083FDD8CFB4
:1005E00085EC8093BC000E9408026B017C01809125
:1005F0006B02813009F440C0809148028C1710F4DE
:10060000C0914802E5E2F2E0ABE4B2E080E08C1396
:1006100055C08C2FDF91CF911F910F91FF90EF90DC
:10062000DF90CF90089580916D0290916E02A0911D
:100630006F02B0917002892B8A2B8B2B09F484CF27
:100640000E94080200916D0210916E0220916F02CB
:10065000309170026C197D098E099F0906171707E2
:100660002807390708F070CF80916C020E9472024F
:10067000C0E0CFCF85EEB5CF80916D0290916E0234
:10068000A0916F02B0917002892B8A2B8B2B09F4F9
:10069000AECF0E94080200916D0210916E0220916F
:1006A0006F02309170026C197D098E099F0906173F
:1006B00017072807390708F09ACFD6CF91919D9355
:1006C0008F5FA5CF8F929F92AF92BF92CF92DF9212
:1006D000EF92FF920F931F93CF93DF93D091240259
:1006E000D13208F0D7C0182FC09123020E9408020F
:1006F0006B017C0180916B0281116BC082E0809361
:100700006B0210934A028FEF8093490210924802C5
:10071000D0934702A3E0B2E0E5E2F2E080E0D81334
:1007200091C01092460280914602CC0FC82BC09314
:10073000460280914502813009F088C0109245023E
:100740000E9408026B017C01809146028093BB00ED
:1007500080916D0290916E02A0916F02B091700233
:10076000892B8A2B8B2BA1F00E94080200916D022D
:1007700010916E0220916F02309170026C197D0908
:100780008E099F09061717072807390708F442C082
:100790008091BC0083FDD8CF85EC8093BC000E9483
:1007A00008026B017C0180916B02823009F450C019
:1007B000809149028F3F09F46FC0809149028032D5
:1007C00009F46CC080914902803309F469C084E067
:1007D00026C080916D0290916E02A0916F02B0913F
:1007E0007002892B8A2B8B2B09F484CF0E9408027C
:1007F00080906D0290906E02A0906F02B090700297
:100800006C197D098E099F0986169706A806B906F8
:1008100008F070CF80916C020E94720285E0109205
:1008200002021092240210920102DF91CF911F91D7
:100830000F91FF90EF90DF90CF90BF90AF909F907F
:100840008F9008959D9191938F5F69CF85EEA5CF8D
:1008500080916D0290916E02A0916F02B091700232
:10086000892B8A2B8B2B09F49ECF0E9408020091C2
:100870006D0210916E0220916F02309170026C191E
:100880007D098E099F09061717072807390708F001
:100890008ACFC0CF81E0C3CF80E0C1CF82E0BFCF9D
:1008A00083E0BDCF0895E091F6018091F501E8174E
:1008B00030F4F0E0E55BFD4F808190E008958FEF2C
:1008C0009FEF08959091F6018091F5012FEF3FEF92
:1008D000981748F4E92FF0E0E55BFD4F208130E008
:1008E0009F5F9093F601C9010895CF92DF92EF9236
:1008F000FF920F931F93CF93DF937C01CB018A016B
:1009000020910102222389F0EB016B01C40ED51E58
:10091000CC15DD0569F06991D701ED91FC9101904D
:10092000F081E02DC7010995F3CF642F0E942D02BD
:10093000C801DF91CF911F910F91FF90EF90DF9051
:10094000CF900895CF93DF931F92CDB7DEB7698321
:10095000209101022223F9F020912402203258F044
:1009600021E030E0FC013383228390E080E00F90AF
:10097000DF91CF91089580910202E82FF0E0ED5FC2
:10098000FD4F998190838F5F8093020280932402B0
:1009900081E090E0ECCF61E0CE0101960E942D0253
:1009A000F7CF90E080E00895FC0101900020E9F786
:1009B0003197AF01481B590BBC0181E792E00C94C1
:1009C000AF008F929F92AF92BF920F931F93CF93DE
:1009D000DF93CDB7DEB7A1970FB6F894DEBF0FBE99
:1009E000CDBF19A2423008F44AE08E010F5D1F4FBF
:1009F000842E912CB12CA12CA50194010E94600998
:100A0000E62FB901CA01EA30F4F4E05DD801EE93B3
:100A10008D01232B242B252B79F790E080E0109774
:100A200019F0CD010E94D404A1960FB6F894DEBF50
:100A30000FBECDBFDF91CF911F910F91BF90AF90AF
:100A40009F908F900895E95CE1CF85ED8093BC0085
:100A500080916D0290916E02A0916F02B091700230
:100A60000796A11DB11D23E0B695A795979587958B
:100A70002A95D1F72091BC0024FD03C010926B028F
:100A8000089540916D0250916E0260916F027091D5
:100A90007002452B462B472B69F30097A105B10542
:100AA00041F025E32A95F1F700000197A109B1096A
:100AB000E1CF80916C020C9472021F920F920FB6DC
:100AC0000F9211242F933F934F935F936F937F93D4
:100AD0008F939F93AF93BF93EF93FF9381E792E040
:100AE0000E942D01FF91EF91BF91AF919F918F9146
:100AF0007F916F915F914F913F912F910F900FBE1A
:100B00000F901F9018951F920F920FB60F921124FD
:100B10002F938F939F93EF93FF93E0918102F09136
:100B200082028081E0918702F091880282FD1BC0E1
:100B3000908180918A028F5F8F7320918B02821740
:100B400041F0E0918A02F0E0EF58FD4F958F8093DD
:100B50008A02FF91EF919F918F912F910F900FBE7D
:100B60000F901F9018958081F4CF1F920F920FB6AF
:100B70000F9211242F933F938F939F93AF93BF9323
:100B80008091F7019091F801A091F901B091FA01DB
:100B90003091EC0123E0230F2D3758F50196A11D6C
:100BA000B11D2093EC018093F7019093F801A0937D
:100BB000F901B093FA018091ED019091EE01A091BD
:100BC000EF01B091F0010196A11DB11D8093ED01DF
:100BD0009093EE01A093EF01B093F001BF91AF911C
:100BE0009F918F913F912F910F900FBE0F901F906B
:100BF000189526E8230F0296A11DB11DD2CF1F9292
:100C00000F920FB60F9211242F933F934F935F9340
:100C10006F937F938F939F93AF93BF93EF93FF93C4
:100C20008091B900887F803609F44AC0F0F5883297
:100C300009F4A7C018F5803109F49BC0B8F48823E3
:100C400009F4F9C0883009F494C0FF91EF91BF9185
:100C5000AF919F918F917F916F915F914F913F9154
:100C60002F910F900FBE0F901F901895883109F4A7
:100C700088C0803251F78093490214C0803409F44F
:100C80009DC040F48033B9F38833F9F6809349026C
:100C900085ECB0C0803509F485C0883509F496C06C
:100CA000883499F60E942505D0CF883909F48CC084
:100CB00038F5883729F050F4883611F0803729F656
:100CC00083E080936B021092EB0157C0883809F4DF
:100CD0007BC0803919F0803809F0B7CF8091EB01E3
:100CE000803208F071C0E091EB0181E08E0F8093BB
:100CF000EB018091BB00F0E0E553FE4F80833DC0E7
:100D0000803B39F0E0F4803A09F479C0883A09F080
:100D10009CCF84E080936B021092CA011092C901AB
:100D2000E091F301F091F40109958091C9018111DD
:100D30000FC081E08093C9011092A90109C0803CD5
:100D400009F4A6CF883C09F4A3CF883B09F07DCFF6
:100D5000E091CA0181E08E0F8093CA01F0E0E7556F
:100D6000FE4F80818093BB009091CA018091C901A0
:100D700029C0809146028093BB0085EC8093BC0023
:100D800064CF9091480280914702981758F5E091FE
:100D9000480281E08E0F80934802F0E0EB5DFD4F4A
:100DA0008081E9CFE091480281E08E0F8093480274
:100DB0008091BB00F0E0EB5DFD4F80839091480295
:100DC000809147029817C8F285E8D8CFE091480291
:100DD00081E08E0F809348028091BB00F0E0EB5DD4
:100DE000FD4F808380914A0281115CCF81E0809326
:100DF000450284EA8093BC0010926B0226CF85ECFA
:100E00008093BC0010926B028091EB01803230F431
:100E1000E091EB01F0E0E553FE4F10826091EB01B1
:100E200070E0E091F101F091F2018BEC91E0099515
:100E30001092EB010ACF1092490234CFE1E7F2E0C1
:100E40001382128248EE53E060E070E044835583E1
:100E5000668377838EE291E09183808385EC90E0D6
:100E60009587848784EC90E09787868780EC90E074
:100E7000918B808B81EC90E0938B828B82EC90E065
:100E8000958B848B86EC90E0978B868B118E128EDF
:100E9000138E148E10921F0310921E038CE0809309
:100EA0001D0310921C03EEE0F3E0138212824483D0
:100EB00055836683778320E431E03183208398E68D
:100EC0009093200380931B0310921A030895CF93ED
:100ED000DF9300D000D0CDB7DEB7789484B58260C0
:100EE00084BD84B5816084BD85B5826085BD85B5CE
:100EF000816085BD80916E00816080936E0010924C
:100F000081008091810082608093810080918100C6
:100F10008160809381008091800081608093800057
:100F20008091B10084608093B1008091B0008160B5
:100F30008093B00080917A00846080937A008091E1
:100F40007A00826080937A0080917A008160809339
:100F50007A0080917A00806880937A001092C100B4
:100F6000E0918102F091820282E08083E0917D0233
:100F7000F0917E021082E0917F02F09180028FEC6E
:100F8000808310928902E0918502F091860286E0CA
:100F90008083E0918302F09184028081806180836C
:100FA000E0918302F0918402808188608083E091E7
:100FB0008302F0918402808180688083E0918302C3
:100FC000F091840280818F7D80831092F6011092CF
:100FD0000202109224020E9454028DEA90E0909343
:100FE000F4018093F3018EEA90E09093F2018093F4
:100FF000F10189E00E94870061E089E00E94BC0164
:101000008DE00E94870081E080930102109223020C
:1010100066E08EE093E00E94A20481E00E946203F9
:101020000E9408026B017C010E9408026C197D0974
:101030008E099F09683E734081059105A8F361E020
:1010400088E60E9493028093F501882309F423C166
:101050008091200311E010930102809323021092EB
:1010600002021092240260911B038EE093E00E9422
:10107000A20481E00E94620310930002662463943C
:101080008E010F5F1F4F6E0185E0C80ED11C50E02E
:10109000E52E50E0F52E772473948091000288238A
:1010A000D1F08DE691E00E94D4048AE691E00E949E
:1010B000D404709201021092230210920202109244
:1010C000240268E08EE093E00E94A20481E00E9486
:1010D00062031092000219821A821B821C8264E051
:1010E000809120030E9493021092F6018093F501F3
:1010F000843009F08EC058018EE093E00E946204B3
:10110000F50181935F01CE16DF06B1F78C81982F30
:101110009C709C3009F0CFC080931A0323E080912B
:101120001A0387FD76C08C7090E095958795FC0139
:10113000EE0FFF1FDF01A80FB91FAB5EBE4F4D9131
:101140005D916C91062E000C770BD801812C912CAF
:1011500054013D91BA2CA92C982C8824832A3A2F2B
:10116000301B3217B0F3482159216A217B21452BCE
:10117000462B472B71F0E80FF91FE050FF4F80819D
:101180009181A2810A2E000CBB0B882A992AAA2AD7
:10119000BB2A80911A0387FD3CC085E891E00E943C
:1011A000D4044AE0C501B401B7FE0DC06DE281E789
:1011B00092E00E944F0166277727CB0168197909D1
:1011C0008A099B094AE00E94E1048AE691E00E94B4
:1011D000D4048DE891E00E94D40460911B0370E078
:1011E00090E080E040E10E94E1048AE691E00E9404
:1011F000D40488E991E00E94D4044AE060E070E001
:10120000CB010E94E1048AE691E00E94D40470922E
:1012100000022FB7F8948091F7019091F801A09106
:10122000F901B091FA012FBF4091FC015091FD01ED
:101230006091FE017091FF01841B950BA60BB70B0B
:10124000C397A105B105D8F06091FB0166256093B5
:10125000FB018DE00E94BC012FB7F8948091F7014B
:101260009091F801A091F901B091FA012FBF8093FC
:10127000FC019093FD01A093FE01B093FF01E114E6
:10128000F10409F40ACF0E941901882309F405CF5B
:101290000E94000002CF8EE491E00E94D40440E15D
:1012A00068E670E080E090E00E94E1048AE691E068
:1012B0000E94D404FFCF8B8180931A0322E02FCFAA
:1012C000A1E21A2EAA1BBB1BFD010DC0AA1FBB1F4A
:1012D000EE1FFF1FA217B307E407F50720F0A21BBC
:1012E000B30BE40BF50B661F771F881F991F1A9429
:1012F00069F760957095809590959B01AC01BD0153
:10130000CF010895EE0FFF1F0590F491E02D099491
:04131000F894FFCF7F
:1013140000F0FF00000000C0FF0000000000FF001C
:1013240000000000FC000800000000002000000095
:1013340000008000000000000002000000004F01D7
:10134400AF00DC009C010D01EB00FF000000000079
:10135400A2047504D1045204A600620453044E6F1F
:101364002064657669636520666F756E64206174B8
:10137400206164647265737320000D0A0047656E12
:101384006572616C2063616C6C20636F6E7665724C
:1013940073696F6E0056616C75653A2000436F6E19
:1013A4006669673A20307800436F6E766572742000
:0813B4006572726F723A2000AD
:00000001FF
