:100000000C945D000C9485000C9485000C94850084
:100010000C9485000C9485000C9485000C9485004C
:100020000C9485000C9485000C9485000C9485003C
:100030000C9485000C9485000C9485000C9485002C
:100040000C9452070C9485000C9420070C94FA062B
:100050000C9485000C9485000C9485000C9485000C
:100060000C949C070C94850000000008000201001D
:100070000003040700000000000000000000000072
:10008000250028002B0000000000240027002A0083
:10009000040404040404040402020202020203032E
:1000A0000303030301020408102040800102040836
:1000B0001020010204081020BB0811241FBECFEF3E
:1000C000D8E0DEBFCDBF11E0A0E0B1E0EEE8F1E2A4
:1000D00002C005900D92A436B107D9F723E0A4E63B
:1000E000B1E001C01D92A230B207E1F710E0CDE50A
:1000F000D0E004C02197FE010E94D50DCC35D10778
:10010000C9F70E94F4080C94C5100C94000090E00C
:10011000FC01EC55FF4F249180579F4FFC018491C7
:10012000882399F090E0880F991FFC01EA57FF4F50
:10013000A591B491FC01E458FF4F859194918FB73C
:10014000F894EC91E22BEC938FBF089508950895F5
:10015000AF92BF92CF92DF92EF92FF920F931F93D5
:10016000CF93DF936C017B018B01040F151FEB0113
:100170005E01AE18BF08C017D10759F06991D601CA
:10018000ED91FC910190F081E02DC6010995892B3C
:1001900079F7C501DF91CF911F910F91FF90EF90FB
:1001A000DF90CF90BF90AF900895FC01538D448DA8
:1001B000252F30E0842F90E0821B930B541710F012
:1001C000CF96089501970895FC01918D828D98171F
:1001D00061F0A28DAE0FBF2FB11D5D968C91928DF7
:1001E0009F5F9F73928F90E008958FEF9FEF089528
:1001F000FC01918D828D981731F0828DE80FF11DF1
:10020000858D90E008958FEF9FEF0895FC01918D0B
:10021000228D892F90E0805C9F4F821B91098F7304
:100220009927089587E492E00E94060121E0892B36
:1002300009F420E0822F089580E090E0892B29F0D6
:100240000E94120181110C9400000895FC01A48DFC
:10025000A80FB92FB11DA35ABF4F2C91848D90E0E8
:1002600001968F739927848FA689B7892C93A089CB
:10027000B1898C91837080648C93938D848D981355
:1002800006C00288F389E02D80818F7D80830895E8
:10029000EF92FF920F931F93CF93DF93EC0181E0D6
:1002A000888F9B8D8C8D98131AC0E889F98980817D
:1002B00085FF15C09FB7F894EE89FF896083E889B0
:1002C000F98980818370806480839FBF81E090E0A2
:1002D000DF91CF911F910F91FF90EF900895F62E2F
:1002E0000B8D10E00F5F1F4F0F731127E02E8C8DC9
:1002F0008E110CC00FB607FCFACFE889F98980810E
:1003000085FFF5CFCE010E942601F1CFEB8DEC0FDA
:10031000FD2FF11DE35AFF4FF0829FB7F8940B8F2A
:10032000EA89FB8980818062CFCFCF93DF93EC0194
:10033000888D8823B9F0AA89BB89E889F9898C91CD
:1003400085FD03C0808186FD0DC00FB607FCF7CF89
:100350008C9185FFF2CF808185FFEDCFCE010E9489
:100360002601E9CFDF91CF91089590E0FC01E85993
:10037000FF4F2491FC01EC55FF4F3491FC01E057F5
:10038000FF4FE491EE23C9F0222339F0233001F12D
:10039000A8F4213019F1223029F1F0E0EE0FFF1F0F
:1003A000E458FF4FA591B4918FB7F894EC91611187
:1003B00026C030953E233C938FBF08952730A9F087
:1003C0002830C9F0243049F7809180008F7D03C028
:1003D000809180008F7780938000DFCF84B58F7706
:1003E00084BDDBCF84B58F7DFBCF8091B0008F774C
:1003F0008093B000D2CF8091B0008F7DF9CF3E2B9B
:10040000DACF3FB7F8948091AD019091AE01A09101
:10041000AF01B091B00126B5A89B05C02F3F19F0E0
:100420000196A11DB11D3FBFBA2FA92F982F882774
:10043000BC01CD01620F711D811D911D42E0660F4F
:10044000771F881F991F4A95D1F708958F929F9221
:10045000AF92BF92CF92DF92EF92FF924B015C017D
:100460000E9401026B017C010E9401026C197D094E
:100470008E099F09683E734081059105A8F321E02C
:10048000821A9108A108B10888EEC80E83E0D81E30
:10049000E11CF11C81149104A104B10429F7FF901F
:1004A000EF90DF90CF90BF90AF909F908F90089586
:1004B00020918501260F3327331F21323105ECF4BB
:1004C00020911D02FC0190E080E0243069F082E080
:1004D0000895A09185012191AC014B595E4FA40F65
:1004E000B52FB11D2C930196861798F38091850145
:1004F000680F6093850180E0089581E0089510926F
:100500001D0281E080931C021092F70161E082E1FC
:100510000E94B50161E083E10E94B501E9EBF0E0E2
:1005200080818E7F808380818D7F808388E480932B
:10053000B80085E48093BC000895CF93DF9391E0E9
:10054000909364018823B9F0C091B800D091BA00AB
:100550008091BC008A7B8093BC0060E082E10E94B5
:10056000B50160E083E10E94B5010E947F02D09353
:10057000BA00C093B800DF91CF910895CF92DF9277
:10058000EF92FF920F931F93CF93DF93D091460288
:1005900081E0D13208F09CC0C09145020E94010266
:1005A0006B017C0180911D0281116CC082E08093FF
:1005B0001D0281E080931C028FEF80931B0210923A
:1005C0001A02D0931902A5E2B2E0E9EFF1E080E06F
:1005D000D8138DC01092F8018091F801CC0FC82B70
:1005E000C093F8018091F701813009F084C0109226
:1005F000F7010E9401026B017C018091F801809358
:10060000BB0080911F0290912002A0912102B09125
:100610002202892B8A2B8B2BA1F00E9401020091D0
:100620001F021091200220912102309122026C19A8
:100630007D098E099F09061717072807390708F44F
:1006400042C08091BC0083FDD8CF85EC8093BC0074
:100650000E9401026B017C0180911D02823009F42D
:100660004CC080911B028F3F09F469C080911B022E
:10067000803209F466C080911B02803309F463C0A4
:1006800084E026C080911F0290912002A091210257
:10069000B0912202892B8A2B8B2B09F483CF0E94E5
:1006A000010200911F02109120022091210230913D
:1006B00022026C197D098E099F0906171707280762
:1006C000390708F06FCF80911E020E949D0285E0DD
:1006D000109224021092460210922302DF91CF91D1
:1006E0001F910F91FF90EF90DF90CF9008959D9113
:1006F00091938F5F6DCF85EEA9CF80911F0290916E
:100700002002A0912102B0912202892B8A2B8B2BEF
:1007100009F4A2CF0E94010200911F021091200251
:1007200020912102309122026C197D098E099F09C6
:10073000061717072807390708F08ECFC4CF80E0C7
:10074000C7CF82E0C5CF83E0C3CF0895E091D60143
:100750008091D501E81730F4F0E0E952FE4F808136
:1007600090E008958FEF9FEF08959091D6018091CA
:10077000D5012FEF3FEF981748F4E92FF0E0E95249
:10078000FE4F208130E09F5F9093D601C90108950C
:100790008091D5019091D601891B990B0895CF9234
:1007A000DF92EF92FF920F931F93CF93DF937C0121
:1007B000CB018A0120912302222389F0EB016B01F6
:1007C000C40ED51ECC15DD0569F06991D701ED91F8
:1007D000FC910190F081E02DC7010995F3CF642FC2
:1007E0000E945802C801DF91CF911F910F91FF9095
:1007F000EF90DF90CF900895CF93DF931F92CDB706
:10080000DEB76983209123022223F9F0209146026A
:10081000203258F021E030E0FC013383228390E065
:1008200080E00F90DF91CF91089580912402E82F0E
:10083000F0E0EB5DFD4F998190838F5F8093240200
:100840008093460281E090E0ECCF61E0CE0101961A
:100850000E945802F7CF90E080E00895FC010190DB
:100860000020E9F73197AF01481B590BBC0187E421
:1008700092E00C94A8008F929F92AF92BF920F9338
:100880001F93CF93DF93CDB7DEB7A1970FB6F89440
:10089000DEBF0FBECDBF19A2423008F44AE08E0180
:1008A0000F5D1F4F842E912CB12CA12CA50194011A
:1008B0000E94B30DE62FB901CA01EA30F4F4E05DFD
:1008C000D801EE938D01232B242B252B79F790E073
:1008D00080E0109719F0CD010E942E04A1960FB66A
:1008E000F894DEBF0FBECDBFDF91CF911F910F9166
:1008F000BF90AF909F908F900895E95CE1CFCF9328
:10090000DF930E942E04EC0184E291E00E942E0409
:100910008C0F9D1FDF91CF9108958F929F92AF9280
:10092000BF92CF92DF92EF92FF921F93CF93DF930C
:10093000D82F162F0E9401026B017C0180911D02AD
:10094000811166C0C12F81E080931D0280931C023B
:100950009FEF90931B0210921A02910F909319022D
:100960008093F8018091F801DD0FD82BD093F80126
:100970008091F701813009F082C01092F7010E9446
:1009800001026B017C018091F8018093BB00809192
:100990001F0290912002A0912102B0912202892B86
:1009A0008A2B8B2BA1F00E94010280901F02909055
:1009B0002002A0902102B09022026C197D098E09BC
:1009C0009F0986169706A806B90608F442C08091CA
:1009D000BC0083FDD8CF85EC8093BC000E9401024F
:1009E0006B017C0180911D02813009F44AC0809125
:1009F0001A02811710F4C0911A02A9EFB1E0E7EDD5
:100A0000F1E080E08C1751F19D9191938F5FFACFC7
:100A100080911F0290912002A0912102B0912202A8
:100A2000892B8A2B8B2B09F489CF0E94010280909D
:100A30001F0290902002A0902102B09022026C1917
:100A40007D098E099F0986169706A806B90608F043
:100A500075CF80911E020E949D02C0E01092D601C7
:100A6000C093D5018C2FDF91CF911F91FF90EF9014
:100A7000DF90CF90BF90AF909F908F90089585EEBC
:100A8000ABCF80911F0290912002A0912102B091E2
:100A90002202892B8A2B8B2B09F4A4CF0E940102FE
:100AA00080901F0290902002A0902102B09022021C
:100AB0006C197D098E099F0986169706A806B90646
:100AC00008F090CFC6CF8091F1029091F202209170
:100AD000F3022330C0F563E070E00E948D0484EEE1
:100AE00092E00E94B5038093F70284EE92E00E94A8
:100AF000B5038093F80284EE92E00E94B5038093E0
:100B0000F6020E94BE028091F702282F30E0322FB9
:100B100022278091F802820F932F911D092E000C3D
:100B2000AA0BBB0B8093FA029093FB02A093FC02EA
:100B3000B093FD026091FA027091FB028091FC0279
:100B40009091FD02089564E070E00E948D0484EEAF
:100B500092E00E94B5038093F70284EE92E00E9437
:100B6000B5038093F80284EE92E00E94B50380936F
:100B7000F90284EE92E00E94B5038093F6020E948F
:100B8000BE024091F80250E070E060E0B62FA52F61
:100B9000942F88272091F902820F911DA11DB11D6C
:100BA000BA0155274427840F951FA61FB71F8093AE
:100BB000FA029093FB02A093FC02B093FD022091F5
:100BC000F702213108F4B6CFBA95ACCF4F925F92BD
:100BD0006F927F928F929F92AF92BF92CF92DF924D
:100BE000EF92FF920F931F93CF936B017C01742EB2
:100BF000AC019B010E94AE0D882399F087E291E041
:100C0000CF911F910F91FF90EF90DF90CF90BF9009
:100C1000AF909F908F907F906F905F904F900C94CB
:100C20002E0446015701E894B7F82FEF3FEF4FE746
:100C30005FE7C501B4010E94AE0D81110DC02FEF19
:100C40003FEF4FE75FE7C501B4010E94DD0B1816C7
:100C50001CF48BE291E0D4CF2FEF3FEF4FE75FE43E
:100C6000C701B6010E943C0D18161CF48FE291E0FA
:100C7000C7CF2FEF3FEF4FE75FECC701B6010E94F0
:100C8000DD0B87FDF3CF20E030E0A901C701B601FD
:100C90000E94DD0B10E000E087FF0AC06DE287E4F0
:100CA00092E00E9448018C01F7FAF094F7F8F09472
:100CB000C0E060E070E080E09FE37C1641F020E05F
:100CC00030E040E251E40E94E20BCF5FF6CFA70193
:100CD00096010E94710B2B013C010E945B0C4B01A1
:100CE0005C014AE00E943B047C01E00EF11ECC2333
:100CF000C1F1C501B4010E948A0C9B01AC01C30182
:100D0000B2010E94700B4B015C016EE287E492E03D
:100D10000E944801E80EF91EC15018F120E030E0B1
:100D200040E251E4C501B4010E94410D2B013C0198
:100D30000E945B0C4B01B12CA12C4AE0C501B4010F
:100D40000E943B04E80EF91EC501B4010E948A0C02
:100D50009B01AC01C301B2010E94700B4B015C010D
:100D6000DBCFC701CF911F910F91FF90EF90DF90E4
:100D7000CF90BF90AF909F908F907F906F905F903B
:100D80004F90089585ED8093BC0080911F02909153
:100D90002002A0912102B09122020796A11DB11D4F
:100DA00023E0B695A795979587952A95D1F7209139
:100DB000BC0024FD03C010921D02089540911F0243
:100DC000509120026091210270912202452B462B06
:100DD000472B69F30097A105B10541F025E32A955A
:100DE000F1F700000197A109B109E1CF80911E023E
:100DF0000C949D021F920F920FB60F9211242F9305
:100E00003F934F935F936F937F938F939F93AF9392
:100E1000BF93EF93FF9387E492E00E942601FF9136
:100E2000EF91BF91AF919F918F917F916F915F9162
:100E30004F913F912F910F900FBE0F901F901895DB
:100E40001F920F920FB60F9211242F938F939F939F
:100E5000EF93FF93E0915702F09158028081E09167
:100E60005D02F0915E0282FD1BC090818091600264
:100E70008F5F8F7320916102821741F0E0916002D1
:100E8000F0E0E95BFD4F958F80936002FF91EF9159
:100E90009F918F912F910F900FBE0F901F901895DB
:100EA0008081F4CF1F920F920FB60F9211242F93CF
:100EB0003F938F939F93AF93BF938091A90190919C
:100EC000AA01A091AB01B091AC013091A80123E03F
:100ED000230F2D3758F50196A11DB11D2093A801B0
:100EE0008093A9019093AA01A093AB01B093AC01A8
:100EF0008091AD019091AE01A091AF01B091B00190
:100F00000196A11DB11D8093AD019093AE01A093F8
:100F1000AF01B093B001BF91AF919F918F913F917D
:100F20002F910F900FBE0F901F90189526E8230F5A
:100F30000296A11DB11DD2CF1F920F920FB60F9234
:100F400011242F933F934F935F936F937F938F93CE
:100F50009F93AF93BF93EF93FF938091B900887FE6
:100F6000803609F44AC0F0F5883209F4A7C018F5B4
:100F7000803109F49BC0B8F4882309F4F9C08830A3
:100F800009F494C0FF91EF91BF91AF919F918F9120
:100F90007F916F915F914F913F912F910F900FBE75
:100FA0000F901F901895883109F488C0803251F74E
:100FB00080931B0214C0803409F49DC040F4803338
:100FC000B9F38833F9F680931B0285ECB0C0803505
:100FD00009F485C0883509F496C0883499F60E94D2
:100FE000C206D0CF883909F48CC038F5883729F08B
:100FF00050F4883611F0803729F683E080931D0283
:101000001092A70157C0883809F47BC0803919F0C5
:10101000803809F0B7CF8091A701803208F071C005
:10102000E091A70181E08E0F8093A7018091BB0022
:10103000F0E0E957FE4F80833DC0803B39F0E0F49B
:10104000803A09F479C0883A09F09CCF84E0809313
:101050001D021092860110928501E091B301F0917A
:10106000B40109958091850181110FC081E08093C1
:1010700085011092650109C0803C09F4A6CF883C27
:1010800009F4A3CF883B09F07DCFE091860181E090
:101090008E0F80938601F0E0EB59FE4F80818093A4
:1010A000BB00909186018091850129C08091F80153
:1010B0008093BB0085EC8093BC0064CF90911A02B2
:1010C00080911902981758F5E0911A0281E08E0F6D
:1010D00080931A02F0E0E750FE4F8081E9CFE09163
:1010E0001A0281E08E0F80931A028091BB00F0E01B
:1010F000E750FE4F808390911A0280911902981751
:10110000C8F285E8D8CFE0911A0281E08E0F809373
:101110001A028091BB00F0E0E750FE4F808380917F
:101120001C0281115CCF81E08093F70184EA8093F7
:10113000BC0010921D0226CF85EC8093BC0010925B
:101140001D028091A701803230F4E091A701F0E008
:10115000E957FE4F10826091A70170E0E091B10164
:10116000F091B20187E891E009951092A7010ACFAA
:1011700010921B0234CFE7E4F2E01382128288EE71
:1011800093E0A0E0B0E084839583A683B78324E056
:1011900031E03183208325EC30E03587248724EC4F
:1011A00030E03787268720EC30E0318B208B21EC34
:1011B00030E0338B228B22EC30E0358B248B26EC15
:1011C00030E0378B268B118E128E138E148EE4EE48
:1011D000F2E01382128284839583A683B78386E12B
:1011E00091E0918380830895CF93DF93CDB7DEB7ED
:1011F00060970FB6F894DEBF0FBECDBF789484B56C
:10120000826084BD84B5816084BD85B5826085BD02
:1012100085B5816085BD80916E00816080936E0090
:101220001092810080918100826080938100809182
:101230008100816080938100809180008160809333
:1012400080008091B10084608093B1008091B000F3
:1012500081608093B00080917A00846080937A00EE
:1012600080917A00826080937A0080917A00816018
:1012700080937A0080917A00806880937A0010923F
:10128000C100E0915702F091580282E08083E09122
:101290005302F09154021082E0915502F0915602EF
:1012A00080E1808310925F02E0915B02F0915C022A
:1012B00086E08083E0915902F0915A02808180613A
:1012C0008083E0915902F0915A0280818860808386
:1012D000E0915902F0915A02808180688083E09108
:1012E0005902F0915A0280818F7D808381E10E94B2
:1012F000870080E10E9487008DE00E94870061E006
:1013000081E10E94B50183E391E00E947F04109285
:10131000D6011092D50110922402109246020E942A
:101320007F0286EA90E09093B4018093B30187EA4C
:1013300090E09093B2018093B10168EE73E080E099
:1013400090E00E94260280E491E00E947F0488E6FB
:1013500090E09093F2028093F1021092F3021092C7
:10136000F40281E08093230288E680934502109284
:1013700024021092460280E98093F50260E984EE2F
:1013800092E00E94FC036091F50270E090E080E042
:1013900042E00E943B0484E291E00E942E040E94FD
:1013A000BE0288248394912C8E010F5F1F4F50E062
:1013B000252E50E0352E61E08DE00E94B5010E949F
:1013C00063056093D1017093D2018093D301909310
:1013D000D40186E491E00E942E048091D4018F9381
:1013E0008091D3018F938091D2018F938091D1010D
:1013F0008F9389E491E09F938F938DEB91E09F937E
:101400008F930E94ED0D8DEB91E00E942E040E94BF
:1014100063056091FA027091FB028091FC02909149
:10142000FD020E948C0C2FE632E143E85AE30E9451
:10143000410D6B017C018091F302880FB40102C061
:10144000660F771F8A95E2F7072E000C880B990B21
:101450000E948C0C9B01AC01C701B6010E94E20BFB
:101460006B017C018091F402B40102C0660F771F0A
:101470008A95E2F7072E000C880B990B0E948C0CC2
:101480009B01AC01C701B6010E94E20B6093FE0212
:101490007093FF0280930003909301036093B9015E
:1014A0007093BA018093BB019093BC016093B50126
:1014B0007093B6018093B7019093B80180E591E0F5
:1014C0000E942E046091B5017091B6018091B70120
:1014D0009091B80142E00E94E60584E591E00E9407
:1014E0002E0420E030E04AE754E46091B5017091A9
:1014F000B6018091B7019091B8010E94410D42E080
:101500000E94E60586E491E00E942E0420E030E08F
:101510004AE754E46091B9017091BA018091BB012E
:101520009091BC010E94410D6093B9017093BA0182
:101530008093BB019093BC0184E591E00E942E044E
:101540004090B9015090BA016090BB017090BC010D
:10155000C301B2010E94540C6B015B0166E271E0B1
:101560008DEB91E00E94E60D0FB6F894DEBF0FBE42
:10157000CDBF20E030E0A901C301B2010E94DD0B24
:1015800087FF06C06AE571E08DEB91E00E94E60DF1
:10159000C601B7FE04C0882799278C199D099F931F
:1015A0008F938CE591E09F938F931F930F930E94ED
:1015B000ED0DB8018DEB91E00E94DB0D6FE571E060
:1015C0008DEB91E00E94DB0D0F900F900F900F902C
:1015D0000F900F9020E030E0A901C301B2010E94FA
:1015E0003C0D0D2C000CEE08FF0887FD3EC0C70126
:1015F000B6010E948C0C9B01AC01C301B2010E9498
:10160000700B20E030E04AE754E40E94410D0E9454
:101610005B0CF62EE72ED82EC92E412C512C320110
:101620004A9423E0B22EB40C2AE030E040E050E0CF
:101630000E94B30DC301B201622373238423952357
:1016400021E0421A51086108710861157105810590
:10165000910539F7BA948FEFB81671F061E671E031
:101660008DEB91E00E94DB0DF5CFC701B6010E9422
:101670008C0CA3019201C3CFCF92DF92EF92FF9225
:101680008CE491E09F938F931F930F930E94ED0D35
:10169000B8018DEB91E00E94DB0D8DEB91E00E9493
:1016A0002E0486E491E00E947F0460E08DE00E94B9
:1016B000B50160ED77E080E090E00E9426020FB671
:1016C000F894DEBF0FBECDBF2114310409F473CEF0
:1016D0000E941201882309F46ECE0E9400006BCE96
:1016E0005058BB27AA270E94880B0C94020D0E9419
:1016F000F40C38F00E94FB0C20F039F49F3F19F4F1
:1017000026F40C94F10C0EF4E095E7FB0C94EB0C32
:10171000E92F0E94130D58F3BA1762077307840765
:10172000950720F079F4A6F50C94350D0EF4E095AC
:101730000B2EBA2FA02D0B01B90190010C01CA018B
:10174000A0011124FF27591B99F0593F50F4503E36
:1017500068F11A16F040A22F232F342F4427585F28
:10176000F3CF469537952795A795F0405395C9F740
:101770007EF41F16BA0B620B730B840BBAF09150F8
:10178000A1F0FF0FBB1F661F771F881FC2F70EC097
:10179000BA0F621F731F841F48F48795779567956A
:1017A000B795F7959E3F08F0B0CF9395880F08F056
:1017B0009927EE0F9795879508950E94C70C08F416
:1017C00081E008950E94F60B0C94020D0E94FB0C20
:1017D00058F00E94F40C40F029F45F3F29F00C947B
:1017E000EB0C51110C94360D0C94F10C0E94130D5E
:1017F00068F39923B1F3552391F3951B550BBB2740
:10180000AA2762177307840738F09F5F5F4F220F84
:10181000331F441FAA1FA9F335D00E2E3AF0E0E87B
:1018200032D091505040E695001CCAF72BD0FE2FC5
:1018300029D0660F771F881FBB1F26173707480759
:10184000AB07B0E809F0BB0B802DBF01FF27935811
:101850005F4F3AF09E3F510578F00C94EB0C0C94DE
:10186000360D5F3FE4F3983ED4F386957795679500
:10187000B795F7959F5FC9F7880F911D9695879546
:1018800097F90895E1E0660F771F881FBB1F621765
:1018900073078407BA0720F0621B730B840BBA0B23
:1018A000EE1F88F7E09508950E945B0C6894B111D3
:1018B0000C94360D08950E941B0D88F09F5798F0E8
:1018C000B92F9927B751B0F0E1F0660F771F881F45
:1018D000991F1AF0BA95C9F714C0B13091F00E945F
:1018E000350DB1E008950C94350D672F782F8827BA
:1018F000B85F39F0B93FCCF3869577956795B39586
:10190000D9F73EF490958095709561957F4F8F4FF4
:101910009F4F0895E89409C097FB3EF490958095F9
:10192000709561957F4F8F4F9F4F9923A9F0F92FA5
:1019300096E9BB279395F695879577956795B79523
:10194000F111F8CFFAF4BB0F11F460FF1BC06F5F09
:101950007F4F8F4F9F4F16C0882311F096E911C01B
:10196000772321F09EE8872F762F05C0662371F03C
:1019700096E8862F70E060E02AF09A95660F771F50
:10198000881FDAF7880F9695879597F90895990F2C
:101990000008550FAA0BE0E8FEEF16161706E80739
:1019A000F907C0F012161306E407F50798F0621B5A
:1019B000730B840B950B39F40A2661F0232B242B2F
:1019C000252B21F408950A2609F4A140A6958FEF4E
:1019D000811D811D089597F99F6780E870E060E0A0
:1019E00008959FEF80EC089500240A9416161706B8
:1019F00018060906089500240A9412161306140600
:101A000005060895092E0394000C11F4882352F062
:101A1000BB0F40F4BF2B11F460FF04C06F5F7F4F1A
:101A20008F4F9F4F089557FD9058440F551F59F001
:101A30005F3F71F04795880F97FB991F61F09F3FBB
:101A400079F087950895121613061406551FF2CFE4
:101A50004695F1DF08C0161617061806991FF1CF34
:101A600086957105610508940895E894BB2766275B
:101A70007727CB0197F908950E94C70C08F48FEFE0
:101A800008950E94540D0C94020D0E94F40C38F03D
:101A90000E94FB0C20F0952311F00C94EB0C0C949D
:101AA000F10C11240C94360D0E94130D70F3959FC8
:101AB000C1F3950F50E0551F629FF001729FBB2745
:101AC000F00DB11D639FAA27F00DB11DAA1F649FE1
:101AD0006627B00DA11D661F829F2227B00DA11D94
:101AE000621F739FB00DA11D621F839FA00D611D1A
:101AF000221F749F3327A00D611D231F849F600D3B
:101B0000211D822F762F6A2F11249F5750409AF063
:101B1000F1F088234AF0EE0FFF1FBB1F661F771FEF
:101B2000881F91505040A9F79E3F510580F00C94BA
:101B3000EB0C0C94360D5F3FE4F3983ED4F386959E
:101B400077956795B795F795E7959F5FC1F7FE2B5A
:101B5000880F911D9695879597F908950E94C70C57
:101B6000880B990B0895A1E21A2EAA1BBB1BFD013D
:101B70000DC0AA1FBB1FEE1FFF1FA217B307E4076C
:101B8000F50720F0A21BB30BE40BF50B661F771FC4
:101B9000881F991F1A9469F76095709580959095A4
:101BA0009B01AC01BD01CF010895EE0FFF1F059011
:101BB000F491E02D0994FB01DC010D900020E9F780
:101BC000119701900D920020E1F70895FB01DC01CF
:101BD00001900D920020E1F70895AEE0B0E0E3EF50
:101BE000FDE00C949C100D891E8986E08C831A837D
:101BF00009838FEF9FE79E838D83AE01475E5F4F22
:101C00006F89788DCE0101960E94100E2F81388544
:101C1000020F131FF80110822E96E4E00C94B81006
:101C2000ABE0B0E0E6E1FEE00C948E107C013B01FD
:101C30008A01FC0117821682838181FFC8C1CE010F
:101C400001965C01F7019381F30193FD859193FF68
:101C500081913F01882309F453C1853239F493FD02
:101C6000859193FF81913F01853229F4B70190E07E
:101C70000E940010E7CF912C212C312CFFE1F315AD
:101C800038F08B3211F190F4803209F1833229F16E
:101C900037FC3CC020ED280F2A3050F536FE20C01E
:101CA0008AE0989E200D1124922E06C08D3291F06C
:101CB000803371F7689430F8F30193FD859193FFB9
:101CC00081913F018111DACF21C0689431F8689485
:101CD00032F8F2CF689433F8EFCF689434F8ECCF51
:101CE000EAE02E9E200D1124222E689435F8E4CFD0
:101CF0008E3229F436FC04C1689436F8DDCF8C3678
:101D000019F4689437F8D8CF8836B1F2982F9F7DB0
:101D100095549330E0F08336A1F18337C1F18335D8
:101D200009F063C02801F2E04F0E511CF801C08099
:101D3000D180692D70E036FC02C06FEF7FEFC601E5
:101D40000E94EA0F4C01689437F882010AC00C5FC8
:101D50001F4FFFE3F98388248394912C6501E89455
:101D600037F833FE2DC0522C8114910471F55520A3
:101D700009F468CFB70180E290E00E9400105A9405
:101D8000F6CFF801808189830E5F1F4FE4CF2801D1
:101D9000F2E04F0E511CF801C080D180692D70E037
:101DA00036FC02C06FEF7FEFC6010E94F50F4C01B9
:101DB0008201D5CFB70180E290E00E9400102A9402
:101DC0002814190409F0B0F7CECFF60137FC85913D
:101DD00037FE81916F01B70190E00E940010511011
:101DE0005A94F1E08F1A9108BFCF843619F08936E2
:101DF00009F077C0F80137FE6BC060817181828184
:101E000093810C5F1F4FF32DFF763F2E97FF09C084
:101E100090958095709561957F4F8F4F9F4F6894F7
:101E200037F82AE030E0A5010E943010C82ECA1809
:101E30008C2C432C36FE0CC0E89440F8C91440F4B6
:101E400034FE05C032FC03C0F32DFE7E4F2E892CDC
:101E500044FE95C0FE01EC0DF11D8081803309F038
:101E600087C0242D297E422E842D8870582E43FC55
:101E700095C040FE8FC09C2C821418F42C0C922C20
:101E8000981844FE91C0B70180E390E00E940010D2
:101E900042FE09C088E790E041FE02C088E590E07C
:101EA000B7010E940010C91408F48AC0CA94D12C4A
:101EB0009FEFC91AD90ACA0CDB1CF60182916F0187
:101EC000B70190E00E940010AC14BD04B1F74FCFF1
:101ED00060817181072E000C880B990B0E5F1F4FDC
:101EE00092CFD32CE894D4F82AE030E0853739F14A
:101EF000232D297FD22E8F3601F148F48835A9F0A1
:101F0000F701868197812B96E2E10C94AA10803725
:101F100049F08837A9F7D4FE02C06894D2F820E1CE
:101F200030E00DC06894D4F8F6CF34FE03C0822FA1
:101F30008660D82E20E132E002C028E030E0F801CF
:101F4000D7FE0FC060817181828193810C5F1F4F2A
:101F5000A5010E943010C82ECA183D2CE89437F80D
:101F600067CF6081718190E080E00E5F1F4FF0CFFE
:101F700042FC02C0839478CF8394839475CF842DE0
:101F8000867809F471CFF6CFB70180E290E00E9425
:101F9000001083948214C0F3512C73CF522C581824
:101FA000821408F46ECFF8CF842D867809F47BCFA5
:101FB0008BE241FE80E247FC8DE2B70190E071CFF9
:101FC000B70180E390E00E9400109A946CCF8FEFED
:101FD0009FEF99CFFC010590615070400110D8F738
:101FE000809590958E0F9F1F0895FC016150704061
:101FF00001900110D8F7809590958E0F9F1F08953E
:102000000F931F93CF93DF93182F092FEB018B8131
:1020100081FD09C01FEF0FEF812F902FDF91CF912E
:102020001F910F91089582FF14C02E813F818C81F2
:102030009D81281739073CF4E881F981CF01019689
:102040009983888310838E819F8101969F838E83DD
:10205000E3CFE885F985812F0995892BA1F3DACFA4
:10206000FA01AA27283051F1203181F1E8946F93C9
:102070006E7F6E5F7F4F8F4F9F4FAF4FB1E03ED06F
:10208000B4E03CD0670F781F891F9A1FA11D680F0D
:10209000791F8A1F911DA11D6A0F711D811D911D40
:1020A000A11D20D009F468943F912AE0269F1124B5
:1020B0003019305D3193DEF6CF010895462F477019
:1020C000405D4193B3E00FD0C9F7F6CF462F4F7074
:1020D000405D4A3318F0495D31FD4052419302D0D2
:1020E000A9F7EACFB4E0A695979587957795679578
:1020F000BA95C9F700976105710508959B01AC0178
:102100000A2E06945795479537952795BA95C9F79E
:10211000620F731F841F951FA01D08952F923F9279
:102120004F925F926F927F928F929F92AF92BF92E7
:10213000CF92DF92EF92FF920F931F93CF93DF9393
:10214000CDB7DEB7CA1BDB0B0FB6F894DEBF0FBEF0
:10215000CDBF09942A88398848885F846E847D843D
:102160008C849B84AA84B984C884DF80EE80FD803F
:102170000C811B81AA81B981CE0FD11D0FB6F894B5
:0E218000DEBF0FBECDBFED010895F894FFCF76
:10218E00000000004801A800D50095010601E400FA
:10219E00F80000000000FC03CF032B04A503C803C6
:1021AE00B503A6030D0A006E616E00696E66006FC0
:1021BE00766600414443204D435020333432310083
:1021CE00626567696E002020006C6420256C6400D7
:1021DE0020563A0020206D563A002D002564002E20
:0421EE0000300000BD
:00000001FF
