:020000040000FA
:100000000C945D000C9485000C9485000C94850084
:100010000C9485000C9485000C9485000C9485004C
:100020000C9485000C9485000C9485000C9485003C
:100030000C9485000C9485000C9485000C9485002C
:100040000C9429080C9485000C94F7070C94D107A4
:100050000C9485000C9485000C9485000C9485000C
:100060000C9473080C948500000000080002010045
:100070000003040700000000000000000000000072
:10008000250028002B0000000000240027002A0083
:10009000040404040404040402020202020203032E
:1000A0000303030301020408102040800102040836
:1000B0001020010204081020920911241FBECFEF66
:1000C000D8E0DEBFCDBF11E0A0E0B1E0E8EFFBE19A
:1000D00002C005900D92A039B107D9F723E0A0E93D
:1000E000B1E001C01D92AC31B207E1F710E0CDE5FF
:1000F000D0E004C02197FE010E94F40DCC35D10759
:10010000C9F70E94FA090C94FA0D0C94000090E0D3
:10011000FC01EC55FF4F249180579F4FFC018491C7
:10012000882399F090E0880F991FFC01EA57FF4F50
:10013000A591B491FC01E458FF4F859194918FB73C
:10014000F894EC91E22BEC938FBF0895FC01538D52
:10015000448D252F30E0842F90E0821B930B5417A1
:1001600010F0CF96089501970895FC01918D828D2E
:10017000981761F0A28DAE0FBF2FB11D5D968C91C7
:10018000928D9F5F9F73928F90E008958FEF9FEF06
:100190000895FC01918D828D981731F0828DE80FC2
:1001A000F11D858D90E008958FEF9FEF0895FC017C
:1001B000918D228D892F90E0805C9F4F821B910949
:1001C0008F7399270895FC01A48DA80FB92FB11D35
:1001D000A35ABF4F2C91848D90E001968F7399277D
:1001E000848FA689B7892C93A089B1898C9183705B
:1001F00080648C93938D848D981306C00288F38954
:10020000E02D80818F7D80830895EF92FF920F9380
:100210001F93CF93DF93EC0181E0888F9B8D8C8DB2
:1002200098131AC0E889F989808185FF15C09FB7A6
:10023000F894EE89FF896083E889F9898081837069
:10024000806480839FBF81E090E0DF91CF911F9118
:100250000F91FF90EF900895F62E0B8D10E00F5F39
:100260001F4F0F731127E02E8C8D8E110CC00FB60F
:1002700007FCFACFE889F989808185FFF5CFCE01A7
:100280000E94E300F1CFEB8DEC0FFD2FF11DE35A3F
:10029000FF4FF0829FB7F8940B8FEA89FB8980812A
:1002A0008062CFCFCF93DF93EC01888D8823B9F0A4
:1002B000AA89BB89E889F9898C9185FD03C0808171
:1002C00086FD0DC00FB607FCF7CF8C9185FFF2CFEE
:1002D000808185FFEDCFCE010E94E300E9CFDF9161
:1002E000CF91089584E592E00E94D70021E0892B08
:1002F00009F420E0822F089580E090E0892B29F016
:100300000E94720181110C94000008958091E10116
:100310009091E201891B990B089508950895AF9279
:10032000BF92CF92DF92EF92FF920F931F93CF93E2
:10033000DF936C017B018B01040F151FEB015E0144
:10034000AE18BF08C017D10759F06991D601ED91D9
:10035000FC910190F081E02DC6010995892B79F778
:10036000C501DF91CF911F910F91FF90EF90DF902A
:10037000CF90BF90AF90089590E0FC01E859FF4FF7
:100380002491FC01EC55FF4F3491FC01E057FF4FE5
:10039000E491EE23C9F0222339F0233001F1A8F4CF
:1003A000213019F1223029F1F0E0EE0FFF1FE4585F
:1003B000FF4FA591B4918FB7F894EC91611126C0CD
:1003C00030953E233C938FBF08952730A9F0283005
:1003D000C9F0243049F7809180008F7D03C080915F
:1003E00080008F7780938000DFCF84B58F7784BDC6
:1003F000DBCF84B58F7DFBCF8091B0008F7780936A
:10040000B000D2CF8091B0008F7DF9CF3E2BDACFF4
:100410003FB7F8948091D9019091DA01A091DB0166
:10042000B091DC0126B5A89B05C02F3F19F00196BD
:10043000A11DB11D3FBFBA2FA92F982F8827BC013E
:10044000CD01620F711D811D911D42E0660F771F66
:10045000881F991F4A95D1F708958F929F92AF9266
:10046000BF92CF92DF92EF92FF924B015C010E940C
:1004700008026B017C010E9408026C197D098E093B
:100480009F09683E734081059105A8F321E0821A17
:100490009108A108B10888EEC80E83E0D81EE11CBF
:1004A000F11C81149104A104B10429F7FF90EF908D
:1004B000DF90CF90BF90AF909F908F900895089558
:1004C0002091B101260F3327331F21323105ECF47F
:1004D00020914E02FC0190E080E0243069F082E03F
:1004E0000895A091B1012191AC014F565E4FA40F28
:1004F000B52FB11D2C930196861798F38091B10109
:10050000680F6093B10180E0089581E00895109232
:100510004E0281E080932D021092280261E082E178
:100520000E94BC0161E083E10E94BC01E9EBF0E0C4
:1005300080818E7F808380818D7F808388E480931B
:10054000B80085E48093BC000895CF93DF9391E0D9
:10055000909390018823B9F0C091B800D091BA006F
:100560008091BC008A7B8093BC0060E082E10E94A5
:10057000BC0160E083E10E94BC010E948702D0932D
:10058000BA00C093B800DF91CF910895CF92DF9267
:10059000EF92FF920F931F93CF93DF93D82FC62F25
:1005A000613208F098C00E9408026B017C018091C2
:1005B0004E0281116BC081E080934E0280932D0228
:1005C0009FEF90932C0210922B029C0F90932A0283
:1005D0008093290280912902DD0FD82BD093290224
:1005E00080912802813009F078C0109228020E9480
:1005F00008026B017C01809129028093BB008091ED
:10060000500290915102A0915202B0915302892B55
:100610008A2B8B2BA1F00E940802009150021091AE
:10062000510220915202309153026C197D098E09BA
:100630009F09061717072807390708F448C0809153
:10064000BC0083FDD8CF85EC8093BC000E940802DB
:100650006B017C0180914E02813009F440C0809191
:100660002B028C1710F4C0912B02E8E0F2E0AEE20E
:10067000B2E080E08C1355C08C2FDF91CF911F9199
:100680000F91FF90EF90DF90CF90089580915002EE
:1006900090915102A0915202B0915302892B8A2B62
:1006A0008B2B09F484CF0E94080200915002109114
:1006B000510220915202309153026C197D098E092A
:1006C0009F09061717072807390708F070CF809190
:1006D0004F020E94A502C0E0CFCF85EEB5CF80913A
:1006E000500290915102A0915202B0915302892B75
:1006F0008A2B8B2B09F4AECF0E9408020091500286
:100700001091510220915202309153026C197D09CF
:100710008E099F09061717072807390708F09ACF8F
:10072000D6CF91919D938F5FA5CF8F929F92AF92DD
:10073000BF92CF92DF92EF92FF920F931F93CF93CE
:10074000DF93D0910702D13208F0D7C0182FC091A3
:1007500006020E9408026B017C0180914E02811109
:100760006BC082E080934E0210932D028FEF809336
:100770002C0210922B02D0932A02A6EEB1E0E8E000
:10078000F2E080E0D81391C01092290280912902F2
:10079000CC0FC82BC093290280912802813009F028
:1007A00088C0109228020E9408026B017C0180918F
:1007B00029028093BB008091500290915102A09138
:1007C0005202B0915302892B8A2B8B2BA1F00E94ED
:1007D0000802009150021091510220915202309172
:1007E00053026C197D098E099F0906171707280700
:1007F000390708F442C08091BC0083FDD8CF85EC56
:100800008093BC000E9408026B017C0180914E0223
:10081000823009F450C080912C028F3F09F46FC0E0
:1008200080912C02803209F46CC080912C028033BC
:1008300009F469C084E026C0809150029091510271
:10084000A0915202B0915302892B8A2B8B2B09F471
:1008500084CF0E9408028090500290905102A09094
:100860005202B09053026C197D098E099F098616B9
:100870009706A806B90608F070CF80914F020E9433
:10088000A50285E01092E501109207021092E401A2
:10089000DF91CF911F910F91FF90EF90DF90CF905C
:1008A000BF90AF909F908F9008959D9191938F5F8F
:1008B00069CF85EEA5CF8091500290915102A09111
:1008C0005202B0915302892B8A2B8B2B09F49ECFB5
:1008D0000E94080200915002109151022091520290
:1008E000309153026C197D098E099F09061717076D
:1008F0002807390708F08ACFC0CF81E0C3CF80E056
:10090000C1CF82E0BFCF83E0BDCF0895E091E20187
:100910008091E101E81730F4F0E0E25DFD4F808165
:1009200090E008958FEF9FEF08959091E2018091FC
:10093000E1012FEF3FEF981748F4E92FF0E0E25D77
:10094000FD4F208130E09F5F9093E201C90108953F
:10095000CF92DF92EF92FF920F931F93CF93DF938B
:100960007C01CB018A012091E401222389F0EB0173
:100970006B01C40ED51ECC15DD0569F06991D70158
:10098000ED91FC910190F081E02DC7010995F3CF25
:10099000642F0E946002C801DF91CF911F910F91D7
:1009A000FF90EF90DF90CF900895CF93DF931F9249
:1009B000CDB7DEB769832091E4012223F9F02091BD
:1009C0000702203258F021E030E0FC01338322831B
:1009D00090E080E00F90DF91CF9108958091E50144
:1009E000E82FF0E0EA51FE4F998190838F5F80936A
:1009F000E5018093070281E090E0ECCF61E0CE0159
:100A000001960E946002F7CF90E080E00895CF93B6
:100A1000DF93EC0160E08E810E94BC0161E08E8179
:100A20000E94BC0160E08E810E94BC018BE891E0D5
:100A30000197F1F7DF91CF910895CF92DF92EF9276
:100A4000FF920F931F93CF93DF936C017C0187E09C
:100A5000E80EF11CD0E0C0E0062F10E0B8010C2E2B
:100A600002C0759567950A94E2F76170F70181916C
:100A70007F010E94BC012196C430D10579F7C601DF
:100A8000DF91CF911F910F91FF90EF90DF90CF906A
:100A90000C940705CF92DF92EF92FF920F931F9372
:100AA000CF93DF93EC01F62E642F8C810E94BC0162
:100AB0008D818F3F19F060E00E94BC010F2D10E086
:100AC0008F8584FF25C06E0187E0C80ED11CF12CF4
:100AD000E12CB8010E2C02C0759567950A94E2F7D7
:100AE0006170F60181916F010E94BC01FFEFEF1A66
:100AF000FF0A88E0E816F10461F7CE01DF91CF919B
:100B00001F910F91FF90EF90DF90CF900C9407050D
:100B1000B80184E0759567958A95E1F7CE010E944A
:100B20001D056F2DCE01DF91CF911F910F91FF9089
:100B3000EF90DF90CF900C941D0540E0682F84E08B
:100B400093E00C944A05CF93DF93823029F490917F
:100B50001303986090931303809317031092180364
:100B600080E48093190380E180931A0380E58093E9
:100B70001B03809108030E948700809109038F3F27
:100B800011F00E94870080910A030E948700C4E050
:100B9000D3E09E01245033408091130384FD0AC0AA
:100BA00084E090E02196281739073CF48E810E945A
:100BB0008700EFCF88E090E0F5CF8BE39DE00197D1
:100BC000F1F760E0809108030E94BC0160E0809131
:100BD0000A030E94BC01809109038F3F19F060E075
:100BE0000E94BC018091130384FD39C063E084E05E
:100BF00093E00E941D05CBE4D6E4CE010197F1F706
:100C000063E084E093E00E941D052197F1F763E023
:100C100084E093E00E941D0583E592E00197F1F7DF
:100C200062E084E093E00E941D05809113038062DE
:100C30000E949D0584E0809314038CE00E949D0532
:100C400081E00E949D058BE39FE10197F1F782E02F
:100C50008093150386E0DF91CF910C949D0580620F
:100C60000E949D058BE496E40197F1F780911303B0
:100C700080620E949D0583E592E00197F1F78091E3
:100C8000130380620E949D05D0CF909117036917CE
:100C900010F06FEF690FE62FF0E0EC5FFC4F9489E6
:100CA000890F80680C949D0541E00E944A0581E00F
:100CB00090E00895FB0101900020E9F73197AF0122
:100CC000461B570BDC01ED91FC910280F381E02D76
:100CD00009948F929F92AF92BF92EF92FF920F93DF
:100CE0001F93CF93DF93CDB7DEB7A1970FB6F894DC
:100CF000DEBF0FBECDBF7C01FA01CB0119A22230AD
:100D000008F42AE08E010F5D1F4F822E912CB12C2A
:100D1000A12CBF01A50194010E94D20DF901CA01C5
:100D20006A300CF5605DD8016E938D01232B242B66
:100D3000252B79F790E080E0109721F0BD01C701E5
:100D40000E945A06A1960FB6F894DEBF0FBECDBF23
:100D5000DF91CF911F910F91FF90EF90BF90AF90D7
:100D60009F908F900895695CDECF4F925F926F9253
:100D70007F928F929F92AF92BF92CF92DF92EF922B
:100D8000FF920F931F93CF936B017C01742EAC01E4
:100D90009B010E94CD0D6AE571E0811126C04601DC
:100DA0005701E894B7F82FEF3FEF4FE75FE7C50132
:100DB000B4010E94CD0D81110CC02FEF3FEF4FE722
:100DC0005FE7C501B4010E94030C6EE571E01816DF
:100DD00064F02FEF3FEF4FE75FE4C701B6010E94D9
:100DE0005B0D1816ACF462E671E084E093E0CF91FD
:100DF0001F910F91FF90EF90DF90CF90BF90AF9039
:100E00009F908F907F906F905F904F900C945A06B8
:100E10002FEF3FEF4FE75FECC701B6010E94030CD5
:100E200087FDE1CF20E030E0A901C701B6010E94B3
:100E3000030C10E000E087FF0CC041E06DE284E0AD
:100E400093E00E944A05F7FAF094F7F8F09401E075
:100E500010E0C0E060E070E080E09FE37C1641F0CD
:100E600020E030E040E251E40E94080CCF5FF6CF72
:100E7000A70196010E94970B4B015C010E947A0C1E
:100E80002B013C012AE0BC01A20184E093E00E9416
:100E90006906080F191FCC23D9F1C301B2010E94C2
:100EA000A90C9B01AC01C501B4010E94960B4B013A
:100EB0005C0141E06EE284E093E00E944A050F5F2E
:100EC0001F4FC15028F120E030E040E251E4C5015D
:100ED000B4010E94600D2B013C010E947A0C4B0171
:100EE000B12CA12C2AE0B501A40184E093E00E947A
:100EF0006906080F191FC501B4010E94A90C9B01C6
:100F0000AC01C301B2010E94960B4B015C01D9CF29
:100F1000C801CF911F910F91FF90EF90DF90CF907C
:100F2000BF90AF909F908F907F906F905F904F9009
:100F3000089585ED8093BC008091500290915102FC
:100F4000A0915202B09153020796A11DB11D23E05A
:100F5000B695A795979587952A95D1F72091BC00CE
:100F600024FD03C010924E0208954091500250910A
:100F700051026091520270915302452B462B472B30
:100F800069F30097A105B10541F025E32A95F1F732
:100F900000000197A109B109E1CF80914F020C94A3
:100FA000A5021F920F920FB60F9211242F933F9319
:100FB0004F935F936F937F938F939F93AF93BF9361
:100FC000EF93FF9384E592E00E94E300FF91EF919D
:100FD000BF91AF919F918F917F916F915F914F9151
:100FE0003F912F910F900FBE0F901F9018951F9259
:100FF0000F920FB60F9211242F938F939F93EF931D
:10100000FF93E0916402F09165028081E0916A02B1
:10101000F0916B0282FD1BC0908180916D028F5F09
:101020008F7320916E02821741F0E0916D02F0E023
:10103000EC5AFD4F958F80936D02FF91EF919F9138
:101040008F912F910F900FBE0F901F901895808158
:10105000F4CF1F920F920FB60F9211242F933F934C
:101060008F939F93AF93BF938091D5019091D601B9
:10107000A091D701B091D8013091D40123E0230F82
:101080002D3758F50196A11DB11D2093D4018093F1
:10109000D5019093D601A093D701B093D801809148
:1010A000D9019091DA01A091DB01B091DC010196A8
:1010B000A11DB11D8093D9019093DA01A093DB01AA
:1010C000B093DC01BF91AF919F918F913F912F9190
:1010D0000F900FBE0F901F90189526E8230F0296D1
:1010E000A11DB11DD2CF1F920F920FB60F921124E6
:1010F0002F933F934F935F936F937F938F939F9320
:10110000AF93BF93EF93FF938091B900887F8036B0
:1011100009F44AC0F0F5883209F4A7C018F5803107
:1011200009F49BC0B8F4882309F4F9C0883009F4A5
:1011300094C0FF91EF91BF91AF919F918F917F915B
:101140006F915F914F913F912F910F900FBE0F9034
:101150001F901895883109F488C0803251F7809328
:101160002C0214C0803409F49DC040F48033B9F3DC
:101170008833F9F680932C0285ECB0C0803509F4F1
:1011800085C0883509F496C0883499F60E9499077D
:10119000D0CF883909F48CC038F5883729F050F45D
:1011A000883611F0803729F683E080934E02109242
:1011B000D30157C0883809F47BC0803919F08038D2
:1011C00009F0B7CF8091D301803208F071C0E0916F
:1011D000D30181E08E0F8093D3018091BB00F0E0BA
:1011E000ED54FE4F80833DC0803B39F0E0F4803AFF
:1011F00009F479C0883A09F09CCF84E080934E02CC
:101200001092B2011092B101E091DF01F091E00182
:1012100009958091B10181110FC081E08093B101E6
:101220001092910109C0803C09F4A6CF883C09F4D2
:10123000A3CF883B09F07DCFE091B20181E08E0F12
:101240008093B201F0E0EF56FE4F80818093BB00A7
:101250009091B2018091B10129C0809129028093BF
:10126000BB0085EC8093BC0064CF90912B028091F1
:101270002A02981758F5E0912B0281E08E0F809397
:101280002B02F0E0E85FFD4F8081E9CFE0912B0277
:1012900081E08E0F80932B028091BB00F0E0E85F2D
:1012A000FD4F808390912B0280912A029817C8F2FB
:1012B00085E8D8CFE0912B0281E08E0F80932B023E
:1012C0008091BB00F0E0E85FFD4F808380912D02AC
:1012D00081115CCF81E08093280284EA8093BC0076
:1012E00010924E0226CF85EC8093BC0010924E02E5
:1012F0008091D301803230F4E091D301F0E0ED54DD
:10130000FE4F10826091D30170E0E091DD01F09119
:10131000DE0183EB91E009951092D3010ACF109280
:101320002C0234CFCF93E4E5F2E01382128288EEF0
:1013300093E0A0E0B0E084839583A683B7832EE298
:1013400031E03183208325EC30E03587248724EC9D
:1013500030E03787268720EC30E0318B208B21EC82
:1013600030E0338B228B22EC30E0358B248B26EC63
:1013700030E0378B268B118E128E138E148E1092C6
:10138000020310920103CCE0C09300031092FF020D
:10139000E1EFF2E01382128284839583A683B78300
:1013A00080E491E091838083E4E0F3E01382128291
:1013B00082E591E09183808314828FEF858381E0C1
:1013C000868388E0878389E080878AE081878BE055
:1013D00082871386148615861686178681E00E94FA
:1013E000A30588E680930303C093FE021092FD02DA
:1013F000CF910895CF93DF9300D000D0CDB7DEB763
:10140000789484B5826084BD84B5816084BD85B5DF
:10141000826085BD85B5816085BD80916E008160EB
:1014200080936E0010928100809181008260809391
:101430008100809181008160809381008091800093
:101440008160809380008091B10084608093B100BE
:101450008091B00081608093B00080917A008460B8
:1014600080937A0080917A00826080937A008091E4
:101470007A00816080937A0080917A0080688093FE
:101480007A001092C1001092E2011092E5011092D0
:1014900007020E9487028DE891E09093E00180931B
:1014A000DF018EE891E09093DE018093DD0182E020
:1014B0000E94A30511E01093E4011092060266E079
:1014C00081EF92E00E94D50481E00E94950361E0E3
:1014D00070E080E090E00E942D0261E088E60E94CA
:1014E000C6028093E101811116C066E671E084E5D1
:1014F00092E00E945A0620E148E650E060E070E089
:1015000084E592E00E94690662E871E084E592E079
:101510000E945A06FFCF1093E3018E010F5F1F4F09
:101520006E0185E0C80ED11C50E0E52E50E0F52E8E
:10153000332433948091E3018823B1F08091030335
:101540003092E401809306021092E50110920702A6
:101550006091FE02606881EF92E00E94D50481E014
:101560000E9495031092E30119821A821B821C8249
:1015700064E0809103030E94C6021092E20180930E
:10158000E101843009F0BBC0380181EF92E00E9494
:101590009504F30181933F01CE16DF06B1F78C81EC
:1015A000982F9C709C3009F0BCC08093FD0223E012
:1015B0008091FD0287FDA3C08C7090E09595879582
:1015C000FC01EE0FFF1FDF01A80FB91FAB5EBE4F7E
:1015D0004D905D906C90062C000C7708D80140E08F
:1015E00050E0BA013D91762F652F542F4427432BAD
:1015F0003A2F301B3217B0F344225522662277224D
:1016000045284628472871F0E80FF91FE050FF4FA2
:1016100080819181A2810A2E000CBB0B482B592B93
:101620006A2B7B2B8091FD0287FD69C0CB01BA013B
:101630000E94AB0C2B013C013092E3012FE632E11A
:1016400043E85AE30E94600D20E030E040E85CE3AC
:101650000E94600D20E030E040E05FE30E94600DFA
:101660009B01AC010E94970B4B015C0165E871E0A6
:1016700084E093E00E945A0660E084E00E94450600
:1016800020E030E04AE754E4C501B4010E94600D57
:1016900042E00E94B50661E080E00E9445066AE8EB
:1016A00071E084E093E00E945A0661E084E00E94C9
:1016B000450620E030E048EC56E4C301B2010E9448
:1016C000960B20E83FEF47EC57E40E94080C20E817
:1016D0003FE443EC57E40E94600D20E030E0A901B4
:1016E0000E94970B42E00E94B5066EEE72E080E029
:1016F00090E00E942D0260E080E00E94450668EEC6
:1017000073E080E090E00E942D02E114F10409F4FE
:1017100011CF0E947201882309F40CCF0E940000AF
:1017200009CF8B818093FD0222E042CF5058BB2726
:10173000AA270E94AE0B0C94210D0E94130D38F0C5
:101740000E941A0D20F039F49F3F19F426F40C94EE
:10175000100D0EF4E095E7FB0C940A0DE92F0E94A2
:10176000320D58F3BA17620773078407950720F004
:1017700079F4A6F50C94540D0EF4E0950B2EBA2FC7
:10178000A02D0B01B90190010C01CA01A001112487
:10179000FF27591B99F0593F50F4503E68F11A1633
:1017A000F040A22F232F342F4427585FF3CF4695C4
:1017B00037952795A795F0405395C9F77EF41F16E6
:1017C000BA0B620B730B840BBAF09150A1F0FF0FB0
:1017D000BB1F661F771F881FC2F70EC0BA0F621F9C
:1017E000731F841F48F4879577956795B795F7958C
:1017F0009E3F08F0B0CF9395880F08F09927EE0F21
:101800009795879508950E94E60C08F481E0089565
:101810000E941C0C0C94210D0E941A0D58F00E947D
:10182000130D40F029F45F3F29F00C940A0D51117B
:101830000C94550D0C94100D0E94320D68F39923F1
:10184000B1F3552391F3951B550BBB27AA276217BC
:101850007307840738F09F5F5F4F220F331F441FC9
:10186000AA1FA9F335D00E2E3AF0E0E832D09150FD
:101870005040E695001CCAF72BD0FE2F29D0660FEA
:10188000771F881FBB1F261737074807AB07B0E82D
:1018900009F0BB0B802DBF01FF2793585F4F3AF033
:1018A0009E3F510578F00C940A0D0C94550D5F3F46
:1018B000E4F3983ED4F3869577956795B795F795B9
:1018C0009F5FC9F7880F911D9695879597F90895A1
:1018D000E1E0660F771F881FBB1F6217730784073D
:1018E000BA0720F0621B730B840BBA0BEE1F88F74C
:1018F000E09508950E943A0D88F09F5798F0B92F0F
:101900009927B751B0F0E1F0660F771F881F991F34
:101910001AF0BA95C9F714C0B13091F00E94540D75
:10192000B1E008950C94540D672F782F8827B85F85
:1019300039F0B93FCCF3869577956795B395D9F78C
:101940003EF490958095709561957F4F8F4F9F4F96
:101950000895E89409C097FB3EF4909580957095A2
:1019600061957F4F8F4F9F4F9923A9F0F92F96E9EB
:10197000BB279395F695879577956795B795F11160
:10198000F8CFFAF4BB0F11F460FF1BC06F5F7F4FFD
:101990008F4F9F4F16C0882311F096E911C077230F
:1019A00021F09EE8872F762F05C0662371F096E818
:1019B000862F70E060E02AF09A95660F771F881FE7
:1019C000DAF7880F9695879597F90895990F00088B
:1019D000550FAA0BE0E8FEEF16161706E807F90701
:1019E000C0F012161306E407F50798F0621B730B9C
:1019F000840B950B39F40A2661F0232B242B252B1D
:101A000021F408950A2609F4A140A6958FEF811DBF
:101A1000811D089597F99F6780E870E060E0089560
:101A20009FEF80EC089500240A94161617061806F6
:101A30000906089500240A941216130614060506D2
:101A40000895092E0394000C11F4882352F0BB0F63
:101A500040F4BF2B11F460FF04C06F5F7F4F8F4FC6
:101A60009F4F089557FD9058440F551F59F05F3F01
:101A700071F04795880F97FB991F61F09F3F79F0B0
:101A800087950895121613061406551FF2CF469532
:101A9000F1DF08C0161617061806991FF1CF8695B4
:101AA0007105610508940895E894BB276627772798
:101AB000CB0197F908950E94E60C08F48FEF089582
:101AC0000E94730D0C94210D0E94130D38F00E949A
:101AD0001A0D20F0952311F00C940A0D0C94100DA2
:101AE00011240C94550D0E94320D70F3959FC1F393
:101AF000950F50E0551F629FF001729FBB27F00DBC
:101B0000B11D639FAA27F00DB11DAA1F649F662710
:101B1000B00DA11D661F829F2227B00DA11D621F5F
:101B2000739FB00DA11D621F839FA00D611D221F19
:101B3000749F3327A00D611D231F849F600D211DFD
:101B4000822F762F6A2F11249F5750409AF0F1F080
:101B500088234AF0EE0FFF1FBB1F661F771F881FE9
:101B600091505040A9F79E3F510580F00C940A0D0A
:101B70000C94550D5F3FE4F3983ED4F3869577952A
:101B80006795B795F795E7959F5FC1F7FE2B880F8F
:101B9000911D9695879597F908950E94E60C880BFC
:101BA000990B0895A1E21A2EAA1BBB1BFD010DC0C3
:101BB000AA1FBB1FEE1FFF1FA217B307E407F507FD
:101BC00020F0A21BB30BE40BF50B661F771F881FD9
:101BD000991F1A9469F760957095809590959B016F
:101BE000AC01BD01CF010895EE0FFF1F0590F491E8
:101BF000E02D0994F894FFCF00F0FF00000000C032
:101C0000FF0000000000FF0000000000FC000800D2
:101C10000000000020000000000080000000000024
:101C200000020000000005018F01A6005201D7004C
:101C3000B500C90000000000D504A804040585040F
:101C40008601950486040000000054068F010405F7
:101C50005F026E616E00696E66006F7666004E6FA1
:101C60002064657669636520666F756E64206174B3
:101C7000206164647265737320000D0A006D562044
:081C80003A00416E733A0000C6
:107E0000112484B714BE81FFF0D085E080938100F7
:107E100082E08093C00088E18093C10086E0809377
:107E2000C20080E18093C4008EE0C9D0259A86E02C
:107E300020E33CEF91E0309385002093840096BBD3
:107E4000B09BFECF1D9AA8958150A9F7CC24DD24C4
:107E500088248394B5E0AB2EA1E19A2EF3E0BF2EE7
:107E6000A2D0813461F49FD0082FAFD0023811F036
:107E7000013811F484E001C083E08DD089C08234E0
:107E800011F484E103C0853419F485E0A6D080C0E4
:107E9000853579F488D0E82EFF2485D0082F10E0AE
:107EA000102F00270E291F29000F111F8ED06801E7
:107EB0006FC0863521F484E090D080E0DECF843638
:107EC00009F040C070D06FD0082F6DD080E0C81688
:107ED00080E7D80618F4F601B7BEE895C0E0D1E017
:107EE00062D089930C17E1F7F0E0CF16F0E7DF06D8
:107EF00018F0F601B7BEE89568D007B600FCFDCFD4
:107F0000A601A0E0B1E02C9130E011968C91119780
:107F100090E0982F8827822B932B1296FA010C0160
:107F200087BEE89511244E5F5F4FF1E0A038BF0790
:107F300051F7F601A7BEE89507B600FCFDCF97BE46
:107F4000E89526C08437B1F42ED02DD0F82E2BD052
:107F50003CD0F601EF2C8F010F5F1F4F84911BD097
:107F6000EA94F801C1F70894C11CD11CFA94CF0C13
:107F7000D11C0EC0853739F428D08EE10CD085E9AC
:107F80000AD08FE07ACF813511F488E018D01DD067
:107F900080E101D065CF982F8091C00085FFFCCF94
:107FA0009093C60008958091C00087FFFCCF809118
:107FB000C00084FD01C0A8958091C6000895E0E648
:107FC000F0E098E1908380830895EDDF803219F02E
:107FD00088E0F5DFFFCF84E1DECF1F93182FE3DFCA
:107FE0001150E9F7F2DF1F91089580E0E8DFEE27F6
:047FF000FF270994CA
:027FFE00040479
:00000001FF
